{"abi":[{"type":"constructor","inputs":[{"name":"_settlementToken","type":"address","internalType":"address"},{"name":"_correlationGuard","type":"address","internalType":"address"},{"name":"_minOdds","type":"uint256","internalType":"uint256"},{"name":"_maxOdds","type":"uint256","internalType":"uint256"}],"stateMutability":"nonpayable"},{"type":"function","name":"addReserveFund","inputs":[{"name":"amount","type":"uint256","internalType":"uint256"}],"outputs":[],"stateMutability":"nonpayable"},{"type":"function","name":"batchSettle","inputs":[{"name":"parlayIds","type":"uint256[]","internalType":"uint256[]"}],"outputs":[],"stateMutability":"nonpayable"},{"type":"function","name":"canSettle","inputs":[{"name":"parlayId","type":"uint256","internalType":"uint256"}],"outputs":[{"name":"","type":"bool","internalType":"bool"},{"name":"","type":"uint8","internalType":"enum IBasket.ParlayStatus"}],"stateMutability":"view"},{"type":"function","name":"correlationGuard","inputs":[],"outputs":[{"name":"","type":"address","internalType":"contract ICorrelationGuard"}],"stateMutability":"view"},{"type":"function","name":"createParlay","inputs":[{"name":"legs","type":"tuple[]","internalType":"struct ICorrelationGuard.ParlayLeg[]","components":[{"name":"market","type":"address","internalType":"address"},{"name":"outcomeId","type":"uint256","internalType":"uint256"}]},{"name":"stake","type":"uint256","internalType":"uint256"},{"name":"minPayout","type":"uint256","internalType":"uint256"}],"outputs":[{"name":"parlayId","type":"uint256","internalType":"uint256"}],"stateMutability":"nonpayable"},{"type":"function","name":"getParlay","inputs":[{"name":"parlayId","type":"uint256","internalType":"uint256"}],"outputs":[{"name":"","type":"tuple","internalType":"struct IBasket.Parlay","components":[{"name":"user","type":"address","internalType":"address"},{"name":"legs","type":"tuple[]","internalType":"struct ICorrelationGuard.ParlayLeg[]","components":[{"name":"market","type":"address","internalType":"address"},{"name":"outcomeId","type":"uint256","internalType":"uint256"}]},{"name":"stake","type":"uint256","internalType":"uint256"},{"name":"potentialPayout","type":"uint256","internalType":"uint256"},{"name":"combinedOdds","type":"uint256","internalType":"uint256"},{"name":"penaltyBps","type":"uint256","internalType":"uint256"},{"name":"status","type":"uint8","internalType":"enum IBasket.ParlayStatus"},{"name":"createdAt","type":"uint256","internalType":"uint256"},{"name":"settledAt","type":"uint256","internalType":"uint256"}]}],"stateMutability":"view"},{"type":"function","name":"getPoolStatus","inputs":[],"outputs":[{"name":"poolBalance","type":"uint256","internalType":"uint256"},{"name":"lockedStake","type":"uint256","internalType":"uint256"},{"name":"reserve","type":"uint256","internalType":"uint256"},{"name":"potentialPayout","type":"uint256","internalType":"uint256"}],"stateMutability":"view"},{"type":"function","name":"getUserParlays","inputs":[{"name":"user","type":"address","internalType":"address"}],"outputs":[{"name":"","type":"uint256[]","internalType":"uint256[]"}],"stateMutability":"view"},{"type":"function","name":"maxLegs","inputs":[],"outputs":[{"name":"","type":"uint256","internalType":"uint256"}],"stateMutability":"view"},{"type":"function","name":"maxOdds","inputs":[],"outputs":[{"name":"","type":"uint256","internalType":"uint256"}],"stateMutability":"view"},{"type":"function","name":"minOdds","inputs":[],"outputs":[{"name":"","type":"uint256","internalType":"uint256"}],"stateMutability":"view"},{"type":"function","name":"onERC1155BatchReceived","inputs":[{"name":"","type":"address","internalType":"address"},{"name":"","type":"address","internalType":"address"},{"name":"","type":"uint256[]","internalType":"uint256[]"},{"name":"","type":"uint256[]","internalType":"uint256[]"},{"name":"","type":"bytes","internalType":"bytes"}],"outputs":[{"name":"","type":"bytes4","internalType":"bytes4"}],"stateMutability":"pure"},{"type":"function","name":"onERC1155Received","inputs":[{"name":"","type":"address","internalType":"address"},{"name":"","type":"address","internalType":"address"},{"name":"","type":"uint256","internalType":"uint256"},{"name":"","type":"uint256","internalType":"uint256"},{"name":"","type":"bytes","internalType":"bytes"}],"outputs":[{"name":"","type":"bytes4","internalType":"bytes4"}],"stateMutability":"pure"},{"type":"function","name":"owner","inputs":[],"outputs":[{"name":"","type":"address","internalType":"address"}],"stateMutability":"view"},{"type":"function","name":"parlayCounter","inputs":[],"outputs":[{"name":"","type":"uint256","internalType":"uint256"}],"stateMutability":"view"},{"type":"function","name":"parlays","inputs":[{"name":"","type":"uint256","internalType":"uint256"}],"outputs":[{"name":"user","type":"address","internalType":"address"},{"name":"stake","type":"uint256","internalType":"uint256"},{"name":"potentialPayout","type":"uint256","internalType":"uint256"},{"name":"combinedOdds","type":"uint256","internalType":"uint256"},{"name":"penaltyBps","type":"uint256","internalType":"uint256"},{"name":"status","type":"uint8","internalType":"enum IBasket.ParlayStatus"},{"name":"createdAt","type":"uint256","internalType":"uint256"},{"name":"settledAt","type":"uint256","internalType":"uint256"}],"stateMutability":"view"},{"type":"function","name":"quote","inputs":[{"name":"legs","type":"tuple[]","internalType":"struct ICorrelationGuard.ParlayLeg[]","components":[{"name":"market","type":"address","internalType":"address"},{"name":"outcomeId","type":"uint256","internalType":"uint256"}]},{"name":"stake","type":"uint256","internalType":"uint256"}],"outputs":[{"name":"combinedOdds","type":"uint256","internalType":"uint256"},{"name":"penaltyBps","type":"uint256","internalType":"uint256"},{"name":"potentialPayout","type":"uint256","internalType":"uint256"}],"stateMutability":"view"},{"type":"function","name":"renounceOwnership","inputs":[],"outputs":[],"stateMutability":"nonpayable"},{"type":"function","name":"reserveFund","inputs":[],"outputs":[{"name":"","type":"uint256","internalType":"uint256"}],"stateMutability":"view"},{"type":"function","name":"setCorrelationGuard","inputs":[{"name":"newGuard","type":"address","internalType":"address"}],"outputs":[],"stateMutability":"nonpayable"},{"type":"function","name":"setMaxLegs","inputs":[{"name":"newMax","type":"uint256","internalType":"uint256"}],"outputs":[],"stateMutability":"nonpayable"},{"type":"function","name":"setOddsLimits","inputs":[{"name":"_minOdds","type":"uint256","internalType":"uint256"},{"name":"_maxOdds","type":"uint256","internalType":"uint256"}],"outputs":[],"stateMutability":"nonpayable"},{"type":"function","name":"settleParlay","inputs":[{"name":"parlayId","type":"uint256","internalType":"uint256"}],"outputs":[{"name":"payout","type":"uint256","internalType":"uint256"}],"stateMutability":"nonpayable"},{"type":"function","name":"settlementToken","inputs":[],"outputs":[{"name":"","type":"address","internalType":"contract IERC20"}],"stateMutability":"view"},{"type":"function","name":"supportsInterface","inputs":[{"name":"interfaceId","type":"bytes4","internalType":"bytes4"}],"outputs":[{"name":"","type":"bool","internalType":"bool"}],"stateMutability":"view"},{"type":"function","name":"totalLockedStake","inputs":[],"outputs":[{"name":"","type":"uint256","internalType":"uint256"}],"stateMutability":"view"},{"type":"function","name":"totalPotentialPayout","inputs":[],"outputs":[{"name":"","type":"uint256","internalType":"uint256"}],"stateMutability":"view"},{"type":"function","name":"transferOwnership","inputs":[{"name":"newOwner","type":"address","internalType":"address"}],"outputs":[],"stateMutability":"nonpayable"},{"type":"function","name":"withdrawReserveFund","inputs":[{"name":"amount","type":"uint256","internalType":"uint256"}],"outputs":[],"stateMutability":"nonpayable"},{"type":"event","name":"CorrelationGuardUpdated","inputs":[{"name":"oldGuard","type":"address","indexed":true,"internalType":"address"},{"name":"newGuard","type":"address","indexed":true,"internalType":"address"}],"anonymous":false},{"type":"event","name":"MaxLegsUpdated","inputs":[{"name":"oldMax","type":"uint256","indexed":false,"internalType":"uint256"},{"name":"newMax","type":"uint256","indexed":false,"internalType":"uint256"}],"anonymous":false},{"type":"event","name":"OddsLimitsUpdated","inputs":[{"name":"minOdds","type":"uint256","indexed":false,"internalType":"uint256"},{"name":"maxOdds","type":"uint256","indexed":false,"internalType":"uint256"}],"anonymous":false},{"type":"event","name":"OwnershipTransferred","inputs":[{"name":"previousOwner","type":"address","indexed":true,"internalType":"address"},{"name":"newOwner","type":"address","indexed":true,"internalType":"address"}],"anonymous":false},{"type":"event","name":"ParlayCreated","inputs":[{"name":"parlayId","type":"uint256","indexed":true,"internalType":"uint256"},{"name":"user","type":"address","indexed":true,"internalType":"address"},{"name":"legs","type":"tuple[]","indexed":false,"internalType":"struct ICorrelationGuard.ParlayLeg[]","components":[{"name":"market","type":"address","internalType":"address"},{"name":"outcomeId","type":"uint256","internalType":"uint256"}]},{"name":"stake","type":"uint256","indexed":false,"internalType":"uint256"},{"name":"potentialPayout","type":"uint256","indexed":false,"internalType":"uint256"},{"name":"combinedOdds","type":"uint256","indexed":false,"internalType":"uint256"},{"name":"penaltyBps","type":"uint256","indexed":false,"internalType":"uint256"}],"anonymous":false},{"type":"event","name":"ParlayQuoted","inputs":[{"name":"user","type":"address","indexed":true,"internalType":"address"},{"name":"legs","type":"tuple[]","indexed":false,"internalType":"struct ICorrelationGuard.ParlayLeg[]","components":[{"name":"market","type":"address","internalType":"address"},{"name":"outcomeId","type":"uint256","internalType":"uint256"}]},{"name":"combinedOdds","type":"uint256","indexed":false,"internalType":"uint256"},{"name":"penaltyBps","type":"uint256","indexed":false,"internalType":"uint256"},{"name":"potentialPayout","type":"uint256","indexed":false,"internalType":"uint256"}],"anonymous":false},{"type":"event","name":"ParlaySettled","inputs":[{"name":"parlayId","type":"uint256","indexed":true,"internalType":"uint256"},{"name":"user","type":"address","indexed":true,"internalType":"address"},{"name":"status","type":"uint8","indexed":false,"internalType":"enum IBasket.ParlayStatus"},{"name":"payout","type":"uint256","indexed":false,"internalType":"uint256"}],"anonymous":false},{"type":"error","name":"AlreadySettled","inputs":[{"name":"parlayId","type":"uint256","internalType":"uint256"}]},{"type":"error","name":"CannotWithdrawWhileParlaysActive","inputs":[]},{"type":"error","name":"InsufficientFunds","inputs":[{"name":"required","type":"uint256","internalType":"uint256"},{"name":"available","type":"uint256","internalType":"uint256"}]},{"type":"error","name":"InsufficientReserveFund","inputs":[{"name":"requested","type":"uint256","internalType":"uint256"},{"name":"available","type":"uint256","internalType":"uint256"}]},{"type":"error","name":"InvalidLegCount","inputs":[{"name":"count","type":"uint256","internalType":"uint256"},{"name":"min","type":"uint256","internalType":"uint256"},{"name":"max","type":"uint256","internalType":"uint256"}]},{"type":"error","name":"InvalidMarketStatus","inputs":[{"name":"market","type":"address","internalType":"address"},{"name":"status","type":"uint8","internalType":"uint8"}]},{"type":"error","name":"InvalidParlayId","inputs":[{"name":"parlayId","type":"uint256","internalType":"uint256"}]},{"type":"error","name":"NotReadyToSettle","inputs":[{"name":"parlayId","type":"uint256","internalType":"uint256"}]},{"type":"error","name":"OddsOutOfBounds","inputs":[{"name":"odds","type":"uint256","internalType":"uint256"},{"name":"min","type":"uint256","internalType":"uint256"},{"name":"max","type":"uint256","internalType":"uint256"}]},{"type":"error","name":"OwnableInvalidOwner","inputs":[{"name":"owner","type":"address","internalType":"address"}]},{"type":"error","name":"OwnableUnauthorizedAccount","inputs":[{"name":"account","type":"address","internalType":"address"}]},{"type":"error","name":"ParlayBlocked","inputs":[{"name":"reason","type":"string","internalType":"string"}]},{"type":"error","name":"ReentrancyGuardReentrantCall","inputs":[]},{"type":"error","name":"SafeERC20FailedOperation","inputs":[{"name":"token","type":"address","internalType":"address"}]},{"type":"error","name":"SlippageExceeded","inputs":[{"name":"actualPayout","type":"uint256","internalType":"uint256"},{"name":"minPayout","type":"uint256","internalType":"uint256"}]},{"type":"error","name":"Unauthorized","inputs":[]},{"type":"error","name":"ZeroAmount","inputs":[]}],"bytecode":{"object":"0x60a03461021e57601f611f2a38819003918201601f19168301916001600160401b038311848410176102225780849260809460405283398101031261021e5761004781610236565b9061005460208201610236565b916060604083015192015192331561020b575f8054336001600160a01b0319821681178355604051949290916001600160a01b0316907f8be0079c531659141344cd1fd0a4f28419497f9722a3daafe3b4186f6b6457e09080a3600180556001600160a01b03169182156101c957506001600160a01b0316908115610184578383101561013f57608052600280546001600160a01b031916919091179055600a600655600755600855604051611cdf908161024b82396080518181816103df015281816104d20152818161061f015281816106cc01528181610c1201528181610d5a0152610f600152f35b60405162461bcd60e51b815260206004820152601360248201527f496e76616c6964206f646473206c696d697473000000000000000000000000006044820152606490fd5b60405162461bcd60e51b815260206004820152601960248201527f496e76616c696420636f7272656c6174696f6e206775617264000000000000006044820152606490fd5b62461bcd60e51b815260206004820152601860248201527f496e76616c696420736574746c656d656e7420746f6b656e00000000000000006044820152606490fd5b631e4fbdf760e01b5f525f60045260245ffd5b5f80fd5b634e487b7160e01b5f52604160045260245ffd5b51906001600160a01b038216820361021e5756fe6080806040526004361015610012575f80fd5b5f3560e01c90816301ffc9a71461168d5750806308300597146116025780630c35cff7146111da5780630f53c069146111bd57806315a1111d14610ec5578063161151ab14610e295780632a8ddf4814610b235780633538ab4a14610a7b578063381738f51461083057806340c85a641461081357806343a03bbc146107f6578063467979aa146107425780634cf0d92014610725578063562d256b146106fd5780636be5733c146106a5578063715018a61461064e5780637b9e618d1461060a5780637e7503981461056b5780637f79496c146104a75780638da5cb5b14610480578063a968fc1714610463578063b4e69d7f14610446578063b7f92b7114610429578063b964eebb1461039e578063bc197c8114610306578063d30400c41461026f578063df69433b1461023a578063f23a6e61146101e45763f2fde38b1461015b575f80fd5b346101e05760203660031901126101e05761017461172e565b61017c611bf0565b6001600160a01b031680156101cd575f80546001600160a01b03198116831782556001600160a01b0316907f8be0079c531659141344cd1fd0a4f28419497f9722a3daafe3b4186f6b6457e09080a3005b631e4fbdf760e01b5f525f60045260245ffd5b5f80fd5b346101e05760a03660031901126101e0576101fd61172e565b50610206611744565b506084356001600160401b0381116101e05761022690369060040161178a565b505060405163f23a6e6160e01b8152602090f35b346101e05760203660031901126101e0576040610258600435611903565b82519115158252610268816116e0565b6020820152f35b346101e05760203660031901126101e05760043561028b611bf0565b600281106102cc5760407f669443542dc979819b46e67f91200af5a8b2438390667fceff9860194fc6342191600654908060065582519182526020820152a1005b60405162461bcd60e51b815260206004820152601260248201527113585e081b1959dcc81d1bdbc81cdb585b1b60721b6044820152606490fd5b346101e05760a03660031901126101e05761031f61172e565b50610328611744565b506044356001600160401b0381116101e05761034890369060040161175a565b50506064356001600160401b0381116101e05761036990369060040161175a565b50506084356001600160401b0381116101e05761038a90369060040161178a565b505060405163bc197c8160e01b8152602090f35b346101e05760203660031901126101e0576004356103ba611bf0565b60095461041a57600b5490818111610405576103d981610403936118d0565b600b55337f0000000000000000000000000000000000000000000000000000000000000000611c16565b005b630ffb9e9960e31b5f5260045260245260445ffd5b636b51d7c560e01b5f5260045ffd5b346101e0575f3660031901126101e0576020600b54604051908152f35b346101e0575f3660031901126101e0576020600654604051908152f35b346101e0575f3660031901126101e0576020600754604051908152f35b346101e0575f3660031901126101e0575f546040516001600160a01b039091168152602090f35b346101e0575f3660031901126101e0576040516370a0823160e01b81523060048201526020816024817f00000000000000000000000000000000000000000000000000000000000000006001600160a01b03165afa8015610560575f9061052d575b608090600954600b54600a5491604051938452602084015260408301526060820152f35b506020813d602011610558575b81610547602093836117d3565b810103126101e05760809051610509565b3d915061053a565b6040513d5f823e3d90fd5b346101e05760203660031901126101e0576004356001600160401b0381116101e05761059b90369060040161175a565b5f5b8181101561040357604051630551bbe960e31b8152600582901b8401356004820152906020826024815f305af16105d9575b600191500161059d565b6020823d8211610602575b816105f1602093836117d3565b810103126101e057600191506105cf565b3d91506105e4565b346101e0575f3660031901126101e0576040517f00000000000000000000000000000000000000000000000000000000000000006001600160a01b03168152602090f35b346101e0575f3660031901126101e057610666611bf0565b5f80546001600160a01b0319811682556001600160a01b03167f8be0079c531659141344cd1fd0a4f28419497f9722a3daafe3b4186f6b6457e08280a3005b346101e05760203660031901126101e0576106f86004356106c4611bf0565b6106f08130337f0000000000000000000000000000000000000000000000000000000000000000611ba5565b600b546118f6565b600b55005b346101e0575f3660031901126101e0576002546040516001600160a01b039091168152602090f35b346101e0575f3660031901126101e0576020600a54604051908152f35b346101e05760203660031901126101e0576001600160a01b0361076361172e565b165f52600560205260405f20604051806020835491828152019081935f5260205f20905f5b8181106107e0575050508161079e9103826117d3565b604051918291602083019060208452518091526040830191905f5b8181106107c7575050500390f35b82518452859450602093840193909201916001016107b9565b8254845260209093019260019283019201610788565b346101e0575f3660031901126101e0576020600954604051908152f35b346101e0575f3660031901126101e0576020600354604051908152f35b346101e05760203660031901126101e0576004355f610100604051610854816117b7565b828152606060208201528260408201528260608201528260808201528260a08201528260c08201528260e0820152015280158015610a70575b610a5e575f52600460205260405f20604051906108a9826117b7565b80546001600160a01b0316825260018101805491906108c7836118b9565b926108d560405194856117d3565b80845260208401915f5260205f20915f905b828210610a045750505050602083019182526002810154906040840191825260038101549060608501918252600481015460808601908152600582015460a0870190815260ff6006840154169160c0880192610942816116e0565b8352600860078501549460e08a019586520154946101008901958652604051976020895261014089019960018060a01b0390511660208a0152519661012060408a01528751809a5260206101608a0198015f9a5b808c106109db5750508899505160608901525160808801525160a08701525160c0860152516109c4816116e0565b60e085015251610100840152516101208301520390f35b909860206040600192828d51858060a01b038151168352015183820152019a019b019a90610996565b604051604081018181106001600160401b03821117610a4a57600192600292602092604052848060a01b03885416815284880154838201528152019401910190926108e7565b634e487b7160e01b5f52604160045260245ffd5b636472462f60e01b5f5260045260245ffd5b50600354811161088d565b346101e05760203660031901126101e057610a9461172e565b610a9c611bf0565b6001600160a01b03168015610aee57600280546001600160a01b0319811683179091556001600160a01b03167f0216b227cfb443c6a1287cf7dfdc9367ae08f2e9e5c34093e508ab1ddf7ebd835f80a3005b60405162461bcd60e51b815260206004820152600d60248201526c125b9d985b1a590819dd585c99609a1b6044820152606490fd5b346101e05760203660031901126101e057600435610b3f611b85565b80158015610e1e575b610a5e57805f52600460205260405f20906006820160ff815416610b6b816116e0565b610e0b576040519063df69433b60e01b8252826004830152604082602481305afa918215610560575f905f93610dc1575b5015610dae57610bab826116e0565b60ff1981541660ff831617905542600884015560028301610bcf81546009546118d0565b6009556003840190610be48254600a546118d0565b600a55610bf0836116e0565b60018303610d0d5750546040516370a0823160e01b81523060048201529092907f0000000000000000000000000000000000000000000000000000000000000000906020816024816001600160a01b0386165afa908115610560575f91610cdb575b50808511610cc6575084546020957fafd922159c5a1e4895f8ef419596703517b47fa2a5243133083847a82fbd563b92604092610c9a9188916001600160a01b031690611c16565b5481516001600160a01b0390911694610cb2816116e0565b81528587820152a360018055604051908152f35b8462fae2d560e21b5f5260045260245260445ffd5b90506020813d602011610d05575b81610cf6602093836117d3565b810103126101e0575186610c52565b3d9150610ce9565b602094939150610d1c836116e0565b60038303610d835760407fafd922159c5a1e4895f8ef419596703517b47fa2a5243133083847a82fbd563b915494610d7e8660018060a01b038354167f0000000000000000000000000000000000000000000000000000000000000000611c16565b610c9a565b507fafd922159c5a1e4895f8ef419596703517b47fa2a5243133083847a82fbd563b60405f94610c9a565b8263a86f1f7d60e01b5f5260045260245ffd5b9250506040823d604011610e03575b81610ddd604093836117d3565b810103126101e0576020610df0836117f4565b9201519160048310156101e05785610b9c565b3d9150610dd0565b506347f629af60e11b5f5260045260245ffd5b506003548111610b48565b346101e05760403660031901126101e057600435602435610e48611bf0565b80821015610e8a57816040917f7fdfa4ddae5fa111b6894ceeb9b816fdc580acad2862d1ea6665a6e3907bfbe5936007558060085582519182526020820152a1005b60405162461bcd60e51b8152602060048201526013602482015272496e76616c6964206f646473206c696d69747360681b6044820152606490fd5b346101e05760603660031901126101e0576004356001600160401b0381116101e057610ef59036906004016116fe565b9060243560443591610f05611b85565b81156111ae5760405192630c35cff760e01b84526040600485015260608480610f3260448201898761181c565b8660248301520381305afa948515610560575f915f955f97611168575b508087106111525750610f848430337f0000000000000000000000000000000000000000000000000000000000000000611ba5565b6003545f19811461113e576001019485600355855f52600460205260405f2060018060a01b0333166bffffffffffffffffffffffff60a01b8254161781558560028201558760038201558360048201558160058201556006810160ff1981541690554260078201555f600882015560015f9101905b8381106110c857505061100e856009546118f6565b60095561101d87600a546118f6565b600a55335f52600560205260405f2092835497600160401b891015610a4a57600189018086558910156110b45761108e88968760209b7f6655d54665a5d46af0053724fcfe0f36c1af957f8ffebd64e1150fc16b938e14985f528c5f2001556040519560a0875260a087019161181c565b96898501526040840152606083015260808201528033940390a360018055604051908152f35b634e487b7160e01b5f52603260045260245ffd5b6110d381858861186a565b908254600160401b811015610a4a578060016110f292018555846118dd565b61112b5760019283906020906001600160a01b0361110f8261187a565b85546001600160a01b0319169116178455013591015501610ff9565b634e487b7160e01b5f525f60045260245ffd5b634e487b7160e01b5f52601160045260245ffd5b866371c4efed60e01b5f5260045260245260445ffd5b9250955093506060813d6060116111a6575b81611187606093836117d3565b810103126101e057805193604060208301519201519491949587610f4f565b3d915061117a565b631f2a200560e01b5f5260045ffd5b346101e0575f3660031901126101e0576020600854604051908152f35b346101e05760403660031901126101e0576004356001600160401b0381116101e05761120a9036906004016116fe565b6002811080156115f7575b6115d957600254604051637e8397bd60e11b8152602060048201526001600160a01b0390911692905f818061124e60248201878761181c565b0381875afa908115610560575f905f92611552575b506115125750612710915f5b8181106113d75750604051633d2e57c960e01b815260206004820152935f928592839182916112a39160248401919061181c565b03915afa918215610560575f92611342575b508082611320575b50600754918282108015611315575b6112f757606092506127106112e3836024356118a6565b049060405192835260208301526040820152f35b5090600854916311c9066160e21b5f5260045260245260445260645ffd5b5060085482116112cc565b6127108381039250821161113e576127109161133b916118a6565b04826112bd565b9091503d805f833e61135481836117d3565b81016040828203126101e0578151916020810151906001600160401b0382116101e0570181601f820112156101e057805190602080611392846118b9565b61139f60405191826117d3565b848152019260051b8201019283116101e057602001905b8282106113c75750505090826112b5565b81518152602091820191016113b6565b926001600160a01b036113f36113ee86858761186a565b61187a565b16604051631006976960e11b8152602081600481855afa908115610560575f916114f4575b50611422816116e0565b611464575061271061145c6001926114566114416113ee89888a61186a565b602061144e8a898b61186a565b013590611ac3565b906118a6565b04930161126f565b60049060206114776113ee88878961186a565b9160405193848092631006976960e11b82525afa9081156105605760ff925f926114c4575b506114a6826116e0565b630d29442760e31b5f5260018060a01b03166004521660245260445ffd5b6114e691925060203d81116114ed575b6114de81836117d3565b81019061188e565b908361149c565b503d6114d4565b61150c915060203d81116114ed576114de81836117d3565b87611418565b60446020916040519283916304ef757b60e01b83528160048401528051918291826024860152018484015e5f828201840152601f01601f19168101030190fd5b9150503d805f833e61156481836117d3565b8101906040818303126101e05761157a816117f4565b906020810151906001600160401b0382116101e0570182601f820112156101e0578051906115a782611801565b936115b560405195866117d3565b828552602083830101116101e057815f9260208093018387015e8401015285611263565b60065490636a0696e160e11b5f52600452600260245260445260645ffd5b506006548111611215565b346101e05760203660031901126101e0576004355f52600460205261010060405f2060018060a01b03815416906002810154906003810154600482015460058301549060ff600685015416926008600786015495015495604051978852602088015260408701526060860152608085015261167c816116e0565b60a084015260c083015260e0820152f35b346101e05760203660031901126101e0576004359063ffffffff60e01b82168092036101e057602091630271189760e51b81149081156116cf575b5015158152f35b6301ffc9a760e01b149050836116c8565b600411156116ea57565b634e487b7160e01b5f52602160045260245ffd5b9181601f840112156101e0578235916001600160401b0383116101e0576020808501948460061b0101116101e057565b600435906001600160a01b03821682036101e057565b602435906001600160a01b03821682036101e057565b9181601f840112156101e0578235916001600160401b0383116101e0576020808501948460051b0101116101e057565b9181601f840112156101e0578235916001600160401b0383116101e057602083818601950101116101e057565b61012081019081106001600160401b03821117610a4a57604052565b90601f801991011681019081106001600160401b03821117610a4a57604052565b519081151582036101e057565b6001600160401b038111610a4a57601f01601f191660200190565b916020908281520191905f905b8082106118365750505090565b90919283359060018060a01b0382168092036101e05760408160019382935260208701356020820152019401920190611829565b91908110156110b45760061b0190565b356001600160a01b03811681036101e05790565b908160209103126101e0575160048110156101e05790565b8181029291811591840414171561113e57565b6001600160401b038111610a4a5760051b60200190565b9190820391821161113e57565b80548210156110b4575f5260205f209060011b01905f90565b9190820180921161113e57565b80158015611ab8575b610a5e575f52600460205260405f2060ff60068201541661192c816116e0565b80611ab1575060015f9160015f91018054915b82811061196a575b505050156119635761195b57600190600190565b600190600290565b505f905f90565b61197481836118dd565b5054604051631006976960e11b81526001600160a01b0390911690602081600481855afa908115610560575f91611a93575b506119b0816116e0565b80158015611a80575b611a71576119c6816116e0565b60028114908115611a5d575b506119e1575b5060010161193f565b602060049160405192838092639b34ae0360e01b82525afa908115610560575f91611a2c575b506001611a1483856118dd565b50015403611a23575b5f6119d8565b60019450611a1d565b90506020813d8211611a55575b81611a46602093836117d3565b810103126101e057515f611a07565b3d9150611a39565b60039150611a6a816116e0565b145f6119d2565b5050505050505f5f8080611947565b50611a8a816116e0565b600181146119b9565b611aab915060203d81116114ed576114de81836117d3565b5f6119a6565b5f92909150565b50600354811161190c565b5f9190829160405160208101916362ae87ab60e11b8352602482015260248152611aee6044826117d3565b51915afa3d15611b7d573d90611b0382611801565b91611b1160405193846117d3565b82523d5f602084013e5b80611b71575b611b2d575b50614e2090565b602081519181808201938492010103126101e0575180158015611b505750611b26565b611b5d576305f5e1000490565b634e487b7160e01b5f52601260045260245ffd5b50602081511015611b21565b606090611b1b565b600260015414611b96576002600155565b633ee5aeb560e01b5f5260045ffd5b6040516323b872dd60e01b60208201526001600160a01b039283166024820152929091166044830152606480830193909352918152611bee91611be96084836117d3565b611c51565b565b5f546001600160a01b03163303611c0357565b63118cdaa760e01b5f523360045260245ffd5b60405163a9059cbb60e01b60208201526001600160a01b039092166024830152604480830193909352918152611bee91611be96064836117d3565b905f602091828151910182855af115610560575f513d611ca057506001600160a01b0381163b155b611c805750565b635274afe760e01b5f9081526001600160a01b0391909116600452602490fd5b60011415611c7956fea264697066735822122049f228d64b37536fca684fba647f429000e1137113dfd139c0bffca6582f0b1d64736f6c634300081e0033","linkReferences":{}},"methodIdentifiers":{"addReserveFund(uint256)":"6be5733c","batchSettle(uint256[])":"7e750398","canSettle(uint256)":"df69433b","correlationGuard()":"562d256b","createParlay((address,uint256)[],uint256,uint256)":"15a1111d","getParlay(uint256)":"381738f5","getPoolStatus()":"7f79496c","getUserParlays(address)":"467979aa","maxLegs()":"b4e69d7f","maxOdds()":"0f53c069","minOdds()":"a968fc17","onERC1155BatchReceived(address,address,uint256[],uint256[],bytes)":"bc197c81","onERC1155Received(address,address,uint256,uint256,bytes)":"f23a6e61","owner()":"8da5cb5b","parlayCounter()":"40c85a64","parlays(uint256)":"08300597","quote((address,uint256)[],uint256)":"0c35cff7","renounceOwnership()":"715018a6","reserveFund()":"b7f92b71","setCorrelationGuard(address)":"3538ab4a","setMaxLegs(uint256)":"d30400c4","setOddsLimits(uint256,uint256)":"161151ab","settleParlay(uint256)":"2a8ddf48","settlementToken()":"7b9e618d","supportsInterface(bytes4)":"01ffc9a7","totalLockedStake()":"43a03bbc","totalPotentialPayout()":"4cf0d920","transferOwnership(address)":"f2fde38b","withdrawReserveFund(uint256)":"b964eebb"},"id":93}