{"abi":[{"type":"constructor","inputs":[{"name":"admin","type":"address","internalType":"address"}],"stateMutability":"nonpayable"},{"type":"function","name":"ADMIN_ROLE","inputs":[],"outputs":[{"name":"","type":"bytes32","internalType":"bytes32"}],"stateMutability":"view"},{"type":"function","name":"DEFAULT_ADMIN_ROLE","inputs":[],"outputs":[{"name":"","type":"bytes32","internalType":"bytes32"}],"stateMutability":"view"},{"type":"function","name":"OPERATOR_ROLE","inputs":[],"outputs":[{"name":"","type":"bytes32","internalType":"bytes32"}],"stateMutability":"view"},{"type":"function","name":"createCampaign","inputs":[{"name":"campaignId","type":"bytes32","internalType":"bytes32"},{"name":"name","type":"string","internalType":"string"},{"name":"ruleHash","type":"bytes32","internalType":"bytes32"},{"name":"budgetCap","type":"uint256","internalType":"uint256"},{"name":"startTime","type":"uint256","internalType":"uint256"},{"name":"endTime","type":"uint256","internalType":"uint256"}],"outputs":[],"stateMutability":"nonpayable"},{"type":"function","name":"endCampaign","inputs":[{"name":"campaignId","type":"bytes32","internalType":"bytes32"}],"outputs":[],"stateMutability":"nonpayable"},{"type":"function","name":"getAllCampaignIds","inputs":[],"outputs":[{"name":"campaignIds","type":"bytes32[]","internalType":"bytes32[]"}],"stateMutability":"view"},{"type":"function","name":"getCampaignCount","inputs":[],"outputs":[{"name":"count","type":"uint256","internalType":"uint256"}],"stateMutability":"view"},{"type":"function","name":"getCampaignInfo","inputs":[{"name":"campaignId","type":"bytes32","internalType":"bytes32"}],"outputs":[{"name":"info","type":"tuple","internalType":"struct ICampaign.CampaignInfo","components":[{"name":"campaignId","type":"bytes32","internalType":"bytes32"},{"name":"name","type":"string","internalType":"string"},{"name":"ruleHash","type":"bytes32","internalType":"bytes32"},{"name":"budgetCap","type":"uint256","internalType":"uint256"},{"name":"spentAmount","type":"uint256","internalType":"uint256"},{"name":"startTime","type":"uint256","internalType":"uint256"},{"name":"endTime","type":"uint256","internalType":"uint256"},{"name":"status","type":"uint8","internalType":"enum ICampaign.CampaignStatus"},{"name":"participantCount","type":"uint256","internalType":"uint256"}]}],"stateMutability":"view"},{"type":"function","name":"getRemainingBudget","inputs":[{"name":"campaignId","type":"bytes32","internalType":"bytes32"}],"outputs":[{"name":"remaining","type":"uint256","internalType":"uint256"}],"stateMutability":"view"},{"type":"function","name":"getRoleAdmin","inputs":[{"name":"role","type":"bytes32","internalType":"bytes32"}],"outputs":[{"name":"","type":"bytes32","internalType":"bytes32"}],"stateMutability":"view"},{"type":"function","name":"grantRole","inputs":[{"name":"role","type":"bytes32","internalType":"bytes32"},{"name":"account","type":"address","internalType":"address"}],"outputs":[],"stateMutability":"nonpayable"},{"type":"function","name":"hasParticipated","inputs":[{"name":"campaignId","type":"bytes32","internalType":"bytes32"},{"name":"user","type":"address","internalType":"address"}],"outputs":[{"name":"participated","type":"bool","internalType":"bool"}],"stateMutability":"view"},{"type":"function","name":"hasRole","inputs":[{"name":"role","type":"bytes32","internalType":"bytes32"},{"name":"account","type":"address","internalType":"address"}],"outputs":[{"name":"","type":"bool","internalType":"bool"}],"stateMutability":"view"},{"type":"function","name":"increaseBudget","inputs":[{"name":"campaignId","type":"bytes32","internalType":"bytes32"},{"name":"additionalBudget","type":"uint256","internalType":"uint256"}],"outputs":[],"stateMutability":"nonpayable"},{"type":"function","name":"isActive","inputs":[{"name":"campaignId","type":"bytes32","internalType":"bytes32"}],"outputs":[{"name":"active","type":"bool","internalType":"bool"}],"stateMutability":"view"},{"type":"function","name":"participate","inputs":[{"name":"campaignId","type":"bytes32","internalType":"bytes32"}],"outputs":[],"stateMutability":"nonpayable"},{"type":"function","name":"pauseCampaign","inputs":[{"name":"campaignId","type":"bytes32","internalType":"bytes32"}],"outputs":[],"stateMutability":"nonpayable"},{"type":"function","name":"recordSpending","inputs":[{"name":"campaignId","type":"bytes32","internalType":"bytes32"},{"name":"amount","type":"uint256","internalType":"uint256"}],"outputs":[],"stateMutability":"nonpayable"},{"type":"function","name":"renounceRole","inputs":[{"name":"role","type":"bytes32","internalType":"bytes32"},{"name":"callerConfirmation","type":"address","internalType":"address"}],"outputs":[],"stateMutability":"nonpayable"},{"type":"function","name":"resumeCampaign","inputs":[{"name":"campaignId","type":"bytes32","internalType":"bytes32"}],"outputs":[],"stateMutability":"nonpayable"},{"type":"function","name":"revokeRole","inputs":[{"name":"role","type":"bytes32","internalType":"bytes32"},{"name":"account","type":"address","internalType":"address"}],"outputs":[],"stateMutability":"nonpayable"},{"type":"function","name":"supportsInterface","inputs":[{"name":"interfaceId","type":"bytes4","internalType":"bytes4"}],"outputs":[{"name":"","type":"bool","internalType":"bool"}],"stateMutability":"view"},{"type":"event","name":"CampaignBudgetIncreased","inputs":[{"name":"campaignId","type":"bytes32","indexed":true,"internalType":"bytes32"},{"name":"oldCap","type":"uint256","indexed":false,"internalType":"uint256"},{"name":"newCap","type":"uint256","indexed":false,"internalType":"uint256"}],"anonymous":false},{"type":"event","name":"CampaignBudgetSpent","inputs":[{"name":"campaignId","type":"bytes32","indexed":true,"internalType":"bytes32"},{"name":"amount","type":"uint256","indexed":false,"internalType":"uint256"},{"name":"totalSpent","type":"uint256","indexed":false,"internalType":"uint256"}],"anonymous":false},{"type":"event","name":"CampaignCreated","inputs":[{"name":"campaignId","type":"bytes32","indexed":true,"internalType":"bytes32"},{"name":"name","type":"string","indexed":false,"internalType":"string"},{"name":"ruleHash","type":"bytes32","indexed":false,"internalType":"bytes32"},{"name":"budgetCap","type":"uint256","indexed":false,"internalType":"uint256"},{"name":"startTime","type":"uint256","indexed":false,"internalType":"uint256"},{"name":"endTime","type":"uint256","indexed":false,"internalType":"uint256"}],"anonymous":false},{"type":"event","name":"CampaignParticipated","inputs":[{"name":"campaignId","type":"bytes32","indexed":true,"internalType":"bytes32"},{"name":"user","type":"address","indexed":true,"internalType":"address"},{"name":"timestamp","type":"uint256","indexed":false,"internalType":"uint256"}],"anonymous":false},{"type":"event","name":"CampaignStatusChanged","inputs":[{"name":"campaignId","type":"bytes32","indexed":true,"internalType":"bytes32"},{"name":"oldStatus","type":"uint8","indexed":false,"internalType":"enum ICampaign.CampaignStatus"},{"name":"newStatus","type":"uint8","indexed":false,"internalType":"enum ICampaign.CampaignStatus"}],"anonymous":false},{"type":"event","name":"RoleAdminChanged","inputs":[{"name":"role","type":"bytes32","indexed":true,"internalType":"bytes32"},{"name":"previousAdminRole","type":"bytes32","indexed":true,"internalType":"bytes32"},{"name":"newAdminRole","type":"bytes32","indexed":true,"internalType":"bytes32"}],"anonymous":false},{"type":"event","name":"RoleGranted","inputs":[{"name":"role","type":"bytes32","indexed":true,"internalType":"bytes32"},{"name":"account","type":"address","indexed":true,"internalType":"address"},{"name":"sender","type":"address","indexed":true,"internalType":"address"}],"anonymous":false},{"type":"event","name":"RoleRevoked","inputs":[{"name":"role","type":"bytes32","indexed":true,"internalType":"bytes32"},{"name":"account","type":"address","indexed":true,"internalType":"address"},{"name":"sender","type":"address","indexed":true,"internalType":"address"}],"anonymous":false},{"type":"error","name":"AccessControlBadConfirmation","inputs":[]},{"type":"error","name":"AccessControlUnauthorizedAccount","inputs":[{"name":"account","type":"address","internalType":"address"},{"name":"neededRole","type":"bytes32","internalType":"bytes32"}]},{"type":"error","name":"AlreadyParticipated","inputs":[{"name":"campaignId","type":"bytes32","internalType":"bytes32"},{"name":"user","type":"address","internalType":"address"}]},{"type":"error","name":"CampaignAlreadyEnded","inputs":[{"name":"campaignId","type":"bytes32","internalType":"bytes32"}]},{"type":"error","name":"CampaignAlreadyExists","inputs":[{"name":"campaignId","type":"bytes32","internalType":"bytes32"}]},{"type":"error","name":"CampaignBudgetExceeded","inputs":[{"name":"campaignId","type":"bytes32","internalType":"bytes32"},{"name":"required","type":"uint256","internalType":"uint256"},{"name":"available","type":"uint256","internalType":"uint256"}]},{"type":"error","name":"CampaignNotActive","inputs":[{"name":"campaignId","type":"bytes32","internalType":"bytes32"}]},{"type":"error","name":"CampaignNotFound","inputs":[{"name":"campaignId","type":"bytes32","internalType":"bytes32"}]},{"type":"error","name":"CampaignNotStarted","inputs":[{"name":"campaignId","type":"bytes32","internalType":"bytes32"}]},{"type":"error","name":"InvalidBudget","inputs":[{"name":"budget","type":"uint256","internalType":"uint256"}]},{"type":"error","name":"InvalidTimeRange","inputs":[{"name":"startTime","type":"uint256","internalType":"uint256"},{"name":"endTime","type":"uint256","internalType":"uint256"}]},{"type":"error","name":"ReentrancyGuardReentrantCall","inputs":[]}],"bytecode":{"object":"0x6080346100cb57601f6115d838819003918201601f19168301916001600160401b038311848410176100cf578084926020946040528339810103126100cb57516001600160a01b0381168082036100cb5760018055156100865780610066610076926100e3565b5061007081610159565b506101ec565b506040516112d890816102808239f35b60405162461bcd60e51b815260206004820152601760248201527f43616d706169676e3a20496e76616c69642061646d696e0000000000000000006044820152606490fd5b5f80fd5b634e487b7160e01b5f52604160045260245ffd5b6001600160a01b0381165f9081525f5160206115b85f395f51905f52602052604090205460ff16610154576001600160a01b03165f8181525f5160206115b85f395f51905f5260205260408120805460ff191660011790553391905f5160206115585f395f51905f528180a4600190565b505f90565b6001600160a01b0381165f9081525f5160206115785f395f51905f52602052604090205460ff16610154576001600160a01b03165f8181525f5160206115785f395f51905f5260205260408120805460ff191660011790553391907fa49807205ce4d355092ef5a8a18f56e8913cf4a201fbe287825b095693c21775905f5160206115585f395f51905f529080a4600190565b6001600160a01b0381165f9081525f5160206115985f395f51905f52602052604090205460ff16610154576001600160a01b03165f8181525f5160206115985f395f51905f5260205260408120805460ff191660011790553391907f97667070c54ef182b0f5858b034beac1b6f3089aa2d3188bb1e8929f4fa9b929905f5160206115585f395f51905f529080a460019056fe6080806040526004361015610012575f80fd5b5f3560e01c90816301ffc9a714610f72575080630418249614610ebc5780630a14504c14610d6d578063248a9ca314610d3b57806329777bc614610c9e5780632f2ff15d14610c6f57806336568abe14610c395780633bc62a5a14610b3257806352d9808314610a855780635c36901c14610a5d5780636caa921814610a4057806375b238fc14610a0657806391d14854146109cb5780639d2b12e514610925578063a217fddf1461090b578063b999be1b146106fd578063be184d8014610351578063cc8d381014610315578063d547741f146102df578063decb876314610267578063e17aef251461014c5763f5b541a61461010e575f80fd5b34610148575f3660031901126101485760206040517f97667070c54ef182b0f5858b034beac1b6f3089aa2d3188bb1e8929f4fa9b9298152f35b5f80fd5b34610148576020366003190112610148576004356101686110f3565b805f52600260205260405f20815f52600560205260ff60405f20541615610254576007810160ff815416916003831015610240576001830361020457600601544210156101f157805460ff19169055604080517f62e2a1953e821510c0e790500822de97e88565d771724ba089fcfe6f375f86ad926101e8908290611001565b5f6020820152a2005b826318c83d6360e01b5f5260045260245ffd5b60405162461bcd60e51b815260206004820152601460248201527310d85b5c185a59db8e88139bdd081c185d5cd95960621b6044820152606490fd5b634e487b7160e01b5f52602160045260245ffd5b5063ce1befcb60e01b5f5260045260245ffd5b3461014857602036600319011261014857600435805f52600560205260ff60405f205416156102cd575f52600260205260405f206004600382015491015481039081116102b957602090604051908152f35b634e487b7160e01b5f52601160045260245ffd5b63ce1befcb60e01b5f5260045260245ffd5b34610148576103136102f036610fc5565b9061030e610309825f525f602052600160405f20015490565b611162565b611222565b005b346101485761032336610fc5565b905f52600360205260405f209060018060a01b03165f52602052602060ff60405f2054166040519015158152f35b346101485760c03660031901126101485760043560243567ffffffffffffffff8111610148573660238201121561014857806004013567ffffffffffffffff8111610148576024820191602482369201011161014857604435916064359060843560a4356103bd6110f3565b865f52600560205260ff60405f2054166106ea5783156106d857808210156106c2574282106106ab57604051916103f38361100e565b878352601f19601f8701169260405161040f602086018261102b565b878152878660208301375f602089830101526020820190815289604083018a815260608401898152608085015f815260a086019187835260c087019389855260e08801965f88526101008901965f88525f52600260205260405f209851895560018901905180519067ffffffffffffffff82116105d957819061049284546110bb565b601f811161065b575b50602090601f83116001146105f8575f926105ed575b50508160011b915f199060031b1c19161790555b5160028801555160038701555160048601555160058501555160068401556007830191519160038310156102405760089260ff8019835416911617905551910155875f52600560205260405f20600160ff1982541617905560045494680100000000000000008610156105d95760018601806004558610156105c5577f72508513ecebfcd20bf81763960fed3b057f808b31bff71b3d388cf6336203a2978960c09760045f527f8a35acfbc15ff81a39ae7d344fd709f28e8600b4aa8c65c6b64bfe7fe36bd19b01555f87896040519a8b9960a08b528160a08c0152838b01378801015260208601526040850152606084015260808301528101030190a2005b634e487b7160e01b5f52603260045260245ffd5b634e487b7160e01b5f52604160045260245ffd5b015190505f806104b1565b5f8581528281209350601f198516905b818110610643575090846001959493921061062b575b505050811b0190556104c5565b01515f1960f88460031b161c191690555f808061061e565b92936020600181928786015181550195019301610608565b909150835f5260205f20601f840160051c810191602085106106a1575b90601f859493920160051c01905b818110610693575061049b565b5f8155849350600101610686565b9091508190610678565b50630e781b2360e31b5f526004524260245260445ffd5b90630e781b2360e31b5f5260045260245260445ffd5b8362ffff3360e71b5f5260045260245ffd5b8663495a9e0160e11b5f5260045260245ffd5b34610148576020366003190112610148576004355f6101006040516107218161100e565b828152606060208201528260408201528260608201528260808201528260a08201528260c08201528260e08201520152805f52600560205260ff60405f205416156102cd575f52600260205260405f206040519061077e8261100e565b805482526001810160405190815f825492610798846110bb565b80845293600181169081156108e957506001146108a5575b506107bd9250038261102b565b6020830190815260028201549160408401928352600381015493606081019485526004820154916080820192835260058101549260a08301938452600682015460c0840190815260ff6007840154169460e0850192600387101561024057602099610160996008610890976101409a885201549761010081019889526040519c8d9b8c9282845251828401525161012060408401528051809c81940152018c8c015e5f8b8a8c0101525160608a01525160808901525160a08801525160c08701525160e086015251610100850190611001565b51610120830152601f01601f19168101030190f35b90505f9291925260205f20905f915b8183106108cd5750509060206107bd92820101866107b0565b60209193508060019154838588010152019101909183926108b4565b9050602092506107bd94915060ff191682840152151560051b820101866107b0565b34610148575f3660031901126101485760206040515f8152f35b346101485761093336610feb565b61093b6110f3565b815f52600260205260405f20825f52600560205260ff60405f205416156109b85781156109a6577fb1e7d236cf290de7e7395cab5ca21f0eaceb36e73d18fce39ec42a821187b9ac916003604092016109968154928361104d565b80915582519182526020820152a2005b5062ffff3360e71b5f5260045260245ffd5b8263ce1befcb60e01b5f5260045260245ffd5b34610148576109d936610fc5565b905f525f60205260405f209060018060a01b03165f52602052602060ff60405f2054166040519015158152f35b34610148575f3660031901126101485760206040517fa49807205ce4d355092ef5a8a18f56e8913cf4a201fbe287825b095693c217758152f35b34610148575f366003190112610148576020600454604051908152f35b34610148576020366003190112610148576020610a7b60043561105a565b6040519015158152f35b3461014857602036600319011261014857600435610aa16110f3565b805f52600260205260405f20815f52600560205260ff60405f205416156102545760070160ff8154169060038210156102405781610b1f57805460ff19166001179055604080517f62e2a1953e821510c0e790500822de97e88565d771724ba089fcfe6f375f86ad92610b15908290611001565b60016020820152a2005b8263ef78d6ef60e01b5f5260045260245ffd5b3461014857610b4036610feb565b335f9081527fee57cd81e84075558e8fcc182a1f4393f91fc97f963a136e66b7f949a62f319f602052604090205460ff1615610c0257815f52600260205260405f20825f52600560205260ff60405f205416156109b857600481016003610ba884835461104d565b920154808311610be8575091816040927f1a894d3f7a7e6ae22863b264db591ee9eac71e36fbe804c0aaf147802d3406b7945582519182526020820152a2005b8285637d66ae8960e11b5f5260045260245260445260645ffd5b63e2517d3f60e01b5f52336004527f97667070c54ef182b0f5858b034beac1b6f3089aa2d3188bb1e8929f4fa9b92960245260445ffd5b3461014857610c4736610fc5565b336001600160a01b03821603610c605761031391611222565b63334bd91960e11b5f5260045ffd5b3461014857610313610c8036610fc5565b90610c99610309825f525f602052600160405f20015490565b61119a565b3461014857602036600319011261014857600435610cba6110f3565b805f52600260205260405f20815f52600560205260ff60405f205416156102545760070160ff81541690600382101561024057600282146101f157805460ff19166002179055604080517f62e2a1953e821510c0e790500822de97e88565d771724ba089fcfe6f375f86ad92610d31908290611001565b60026020820152a2005b34610148576020366003190112610148576020610d656004355f525f602052600160405f20015490565b604051908152f35b3461014857602036600319011261014857600435600260015414610ead576002600155805f52600260205260405f20815f52600560205260ff60405f2054161561025457815f52600260205260405f2060ff600782015416600381101561024057610b1f5760058101544210610e9a5760060154421015610e87575f82815260036020908152604080832033845290915290205460ff16610e70575f8281526003602090815260408083203384529091529020805460ff1916600117905560080180545f1981146102b9576001019055604051904282527f1e48d19fcc6bddc4f14f738922074a8492d364c0570ed37d3e6e9bf69b8f94dd60203393a360018055005b5063b608aa1960e01b5f526004523360245260445ffd5b506318c83d6360e01b5f5260045260245ffd5b8263430f321760e01b5f5260045260245ffd5b633ee5aeb560e01b5f5260045ffd5b34610148575f366003190112610148576040518060206004549283815201809260045f527f8a35acfbc15ff81a39ae7d344fd709f28e8600b4aa8c65c6b64bfe7fe36bd19b905f5b818110610f5c5750505081610f1a91038261102b565b604051918291602083019060208452518091526040830191905f5b818110610f43575050500390f35b8251845285945060209384019390920191600101610f35565b8254845260209093019260019283019201610f04565b34610148576020366003190112610148576004359063ffffffff60e01b821680920361014857602091637965db0b60e01b8114908115610fb4575b5015158152f35b6301ffc9a760e01b14905083610fad565b604090600319011261014857600435906024356001600160a01b03811681036101485790565b6040906003190112610148576004359060243590565b9060038210156102405752565b610120810190811067ffffffffffffffff8211176105d957604052565b90601f8019910116810190811067ffffffffffffffff8211176105d957604052565b919082018092116102b957565b805f52600560205260ff60405f205416156110b6575f52600260205260405f2060ff6007820154166003811015610240571590816110a7575b8161109c575090565b600691500154421090565b60058101544210159150611093565b505f90565b90600182811c921680156110e9575b60208310146110d557565b634e487b7160e01b5f52602260045260245ffd5b91607f16916110ca565b335f9081527f7d7ffb7a348e1c6a02869081a26547b49160dd3df72d1d75a570eb9b698292ec602052604090205460ff161561112b57565b63e2517d3f60e01b5f52336004527fa49807205ce4d355092ef5a8a18f56e8913cf4a201fbe287825b095693c2177560245260445ffd5b5f8181526020818152604080832033845290915290205460ff16156111845750565b63e2517d3f60e01b5f523360045260245260445ffd5b5f818152602081815260408083206001600160a01b038616845290915290205460ff1661121c575f818152602081815260408083206001600160a01b0395909516808452949091528120805460ff19166001179055339291907f2f8788117e7eff1d82e926ec794901d17c78024a50270940304540a733656f0d9080a4600190565b50505f90565b5f818152602081815260408083206001600160a01b038616845290915290205460ff161561121c575f818152602081815260408083206001600160a01b0395909516808452949091528120805460ff19169055339291907ff6391f5c32d9c69d2a47ea670b442974b53935d1edc7fd64eb21e047a839171b9080a460019056fea2646970667358221220240de9799e29456f57ba680c6cbd7ec368d775fee67e4d2404649c7565bf9a4464736f6c634300081e00332f8788117e7eff1d82e926ec794901d17c78024a50270940304540a733656f0d7d7ffb7a348e1c6a02869081a26547b49160dd3df72d1d75a570eb9b698292ecee57cd81e84075558e8fcc182a1f4393f91fc97f963a136e66b7f949a62f319fad3228b676f7d3cd4284a5443f17f1962b36e491b30a40b2405849e597ba5fb5","linkReferences":{}},"methodIdentifiers":{"ADMIN_ROLE()":"75b238fc","DEFAULT_ADMIN_ROLE()":"a217fddf","OPERATOR_ROLE()":"f5b541a6","createCampaign(bytes32,string,bytes32,uint256,uint256,uint256)":"be184d80","endCampaign(bytes32)":"29777bc6","getAllCampaignIds()":"04182496","getCampaignCount()":"6caa9218","getCampaignInfo(bytes32)":"b999be1b","getRemainingBudget(bytes32)":"decb8763","getRoleAdmin(bytes32)":"248a9ca3","grantRole(bytes32,address)":"2f2ff15d","hasParticipated(bytes32,address)":"cc8d3810","hasRole(bytes32,address)":"91d14854","increaseBudget(bytes32,uint256)":"9d2b12e5","isActive(bytes32)":"5c36901c","participate(bytes32)":"0a14504c","pauseCampaign(bytes32)":"52d98083","recordSpending(bytes32,uint256)":"3bc62a5a","renounceRole(bytes32,address)":"36568abe","resumeCampaign(bytes32)":"e17aef25","revokeRole(bytes32,address)":"d547741f","supportsInterface(bytes4)":"01ffc9a7"},"id":74}