{"abi":[{"type":"constructor","inputs":[{"name":"initialPolicy","type":"uint8","internalType":"enum ICorrelationGuard.CorrelationPolicy"},{"name":"_defaultSameMatchPenalty","type":"uint256","internalType":"uint256"}],"stateMutability":"nonpayable"},{"type":"function","name":"DEFAULT_ADMIN_ROLE","inputs":[],"outputs":[{"name":"","type":"bytes32","internalType":"bytes32"}],"stateMutability":"view"},{"type":"function","name":"MAX_PENALTY_BPS","inputs":[],"outputs":[{"name":"","type":"uint256","internalType":"uint256"}],"stateMutability":"view"},{"type":"function","name":"RULE_MANAGER_ROLE","inputs":[],"outputs":[{"name":"","type":"bytes32","internalType":"bytes32"}],"stateMutability":"view"},{"type":"function","name":"_extractMatchId","inputs":[{"name":"market","type":"address","internalType":"address"}],"outputs":[{"name":"","type":"bytes32","internalType":"bytes32"}],"stateMutability":"view"},{"type":"function","name":"batchRegisterMarkets","inputs":[{"name":"markets","type":"address[]","internalType":"address[]"},{"name":"matchIds","type":"bytes32[]","internalType":"bytes32[]"}],"outputs":[],"stateMutability":"nonpayable"},{"type":"function","name":"batchSetRules","inputs":[{"name":"rules","type":"tuple[]","internalType":"struct ICorrelationGuard.CorrelationRule[]","components":[{"name":"matchId1","type":"bytes32","internalType":"bytes32"},{"name":"matchId2","type":"bytes32","internalType":"bytes32"},{"name":"penaltyBps","type":"uint256","internalType":"uint256"},{"name":"isBlocked","type":"bool","internalType":"bool"}]}],"outputs":[],"stateMutability":"nonpayable"},{"type":"function","name":"calculatePenalty","inputs":[{"name":"legs","type":"tuple[]","internalType":"struct ICorrelationGuard.ParlayLeg[]","components":[{"name":"market","type":"address","internalType":"address"},{"name":"outcomeId","type":"uint256","internalType":"uint256"}]}],"outputs":[{"name":"totalPenaltyBps","type":"uint256","internalType":"uint256"},{"name":"details","type":"uint256[]","internalType":"uint256[]"}],"stateMutability":"view"},{"type":"function","name":"checkBlocked","inputs":[{"name":"legs","type":"tuple[]","internalType":"struct ICorrelationGuard.ParlayLeg[]","components":[{"name":"market","type":"address","internalType":"address"},{"name":"outcomeId","type":"uint256","internalType":"uint256"}]}],"outputs":[{"name":"isBlocked","type":"bool","internalType":"bool"},{"name":"reason","type":"string","internalType":"string"}],"stateMutability":"view"},{"type":"function","name":"defaultSameMatchPenalty","inputs":[],"outputs":[{"name":"","type":"uint256","internalType":"uint256"}],"stateMutability":"view"},{"type":"function","name":"getCorrelationRule","inputs":[{"name":"matchId1","type":"bytes32","internalType":"bytes32"},{"name":"matchId2","type":"bytes32","internalType":"bytes32"}],"outputs":[{"name":"penaltyBps","type":"uint256","internalType":"uint256"},{"name":"isBlocked","type":"bool","internalType":"bool"}],"stateMutability":"view"},{"type":"function","name":"getMatchId","inputs":[{"name":"market","type":"address","internalType":"address"}],"outputs":[{"name":"","type":"bytes32","internalType":"bytes32"}],"stateMutability":"view"},{"type":"function","name":"getPolicy","inputs":[],"outputs":[{"name":"","type":"uint8","internalType":"enum ICorrelationGuard.CorrelationPolicy"}],"stateMutability":"view"},{"type":"function","name":"getRoleAdmin","inputs":[{"name":"role","type":"bytes32","internalType":"bytes32"}],"outputs":[{"name":"","type":"bytes32","internalType":"bytes32"}],"stateMutability":"view"},{"type":"function","name":"grantRole","inputs":[{"name":"role","type":"bytes32","internalType":"bytes32"},{"name":"account","type":"address","internalType":"address"}],"outputs":[],"stateMutability":"nonpayable"},{"type":"function","name":"hasRole","inputs":[{"name":"role","type":"bytes32","internalType":"bytes32"},{"name":"account","type":"address","internalType":"address"}],"outputs":[{"name":"","type":"bool","internalType":"bool"}],"stateMutability":"view"},{"type":"function","name":"owner","inputs":[],"outputs":[{"name":"","type":"address","internalType":"address"}],"stateMutability":"view"},{"type":"function","name":"policy","inputs":[],"outputs":[{"name":"","type":"uint8","internalType":"enum ICorrelationGuard.CorrelationPolicy"}],"stateMutability":"view"},{"type":"function","name":"registerMarket","inputs":[{"name":"market","type":"address","internalType":"address"},{"name":"matchId","type":"bytes32","internalType":"bytes32"}],"outputs":[],"stateMutability":"nonpayable"},{"type":"function","name":"renounceOwnership","inputs":[],"outputs":[],"stateMutability":"nonpayable"},{"type":"function","name":"renounceRole","inputs":[{"name":"role","type":"bytes32","internalType":"bytes32"},{"name":"callerConfirmation","type":"address","internalType":"address"}],"outputs":[],"stateMutability":"nonpayable"},{"type":"function","name":"revokeRole","inputs":[{"name":"role","type":"bytes32","internalType":"bytes32"},{"name":"account","type":"address","internalType":"address"}],"outputs":[],"stateMutability":"nonpayable"},{"type":"function","name":"setCorrelationRule","inputs":[{"name":"matchId1","type":"bytes32","internalType":"bytes32"},{"name":"matchId2","type":"bytes32","internalType":"bytes32"},{"name":"penaltyBps","type":"uint256","internalType":"uint256"},{"name":"isBlocked","type":"bool","internalType":"bool"}],"outputs":[],"stateMutability":"nonpayable"},{"type":"function","name":"setDefaultSameMatchPenalty","inputs":[{"name":"penaltyBps","type":"uint256","internalType":"uint256"}],"outputs":[],"stateMutability":"nonpayable"},{"type":"function","name":"setPolicy","inputs":[{"name":"newPolicy","type":"uint8","internalType":"enum ICorrelationGuard.CorrelationPolicy"}],"outputs":[],"stateMutability":"nonpayable"},{"type":"function","name":"supportsInterface","inputs":[{"name":"interfaceId","type":"bytes4","internalType":"bytes4"}],"outputs":[{"name":"","type":"bool","internalType":"bool"}],"stateMutability":"view"},{"type":"function","name":"transferOwnership","inputs":[{"name":"newOwner","type":"address","internalType":"address"}],"outputs":[],"stateMutability":"nonpayable"},{"type":"event","name":"CorrelationRuleSet","inputs":[{"name":"matchId1","type":"bytes32","indexed":true,"internalType":"bytes32"},{"name":"matchId2","type":"bytes32","indexed":true,"internalType":"bytes32"},{"name":"penaltyBps","type":"uint256","indexed":false,"internalType":"uint256"},{"name":"isBlocked","type":"bool","indexed":false,"internalType":"bool"}],"anonymous":false},{"type":"event","name":"DefaultPenaltyUpdated","inputs":[{"name":"sameMatchPenalty","type":"uint256","indexed":false,"internalType":"uint256"}],"anonymous":false},{"type":"event","name":"OwnershipTransferred","inputs":[{"name":"previousOwner","type":"address","indexed":true,"internalType":"address"},{"name":"newOwner","type":"address","indexed":true,"internalType":"address"}],"anonymous":false},{"type":"event","name":"ParlayBlocked","inputs":[{"name":"user","type":"address","indexed":true,"internalType":"address"},{"name":"reason","type":"string","indexed":false,"internalType":"string"}],"anonymous":false},{"type":"event","name":"PolicyUpdated","inputs":[{"name":"oldPolicy","type":"uint8","indexed":true,"internalType":"enum ICorrelationGuard.CorrelationPolicy"},{"name":"newPolicy","type":"uint8","indexed":true,"internalType":"enum ICorrelationGuard.CorrelationPolicy"}],"anonymous":false},{"type":"event","name":"RoleAdminChanged","inputs":[{"name":"role","type":"bytes32","indexed":true,"internalType":"bytes32"},{"name":"previousAdminRole","type":"bytes32","indexed":true,"internalType":"bytes32"},{"name":"newAdminRole","type":"bytes32","indexed":true,"internalType":"bytes32"}],"anonymous":false},{"type":"event","name":"RoleGranted","inputs":[{"name":"role","type":"bytes32","indexed":true,"internalType":"bytes32"},{"name":"account","type":"address","indexed":true,"internalType":"address"},{"name":"sender","type":"address","indexed":true,"internalType":"address"}],"anonymous":false},{"type":"event","name":"RoleRevoked","inputs":[{"name":"role","type":"bytes32","indexed":true,"internalType":"bytes32"},{"name":"account","type":"address","indexed":true,"internalType":"address"},{"name":"sender","type":"address","indexed":true,"internalType":"address"}],"anonymous":false},{"type":"error","name":"AccessControlBadConfirmation","inputs":[]},{"type":"error","name":"AccessControlUnauthorizedAccount","inputs":[{"name":"account","type":"address","internalType":"address"},{"name":"neededRole","type":"bytes32","internalType":"bytes32"}]},{"type":"error","name":"InvalidLegCount","inputs":[{"name":"count","type":"uint256","internalType":"uint256"}]},{"type":"error","name":"InvalidPenalty","inputs":[{"name":"penaltyBps","type":"uint256","internalType":"uint256"}]},{"type":"error","name":"InvalidPolicy","inputs":[]},{"type":"error","name":"OwnableInvalidOwner","inputs":[{"name":"owner","type":"address","internalType":"address"}]},{"type":"error","name":"OwnableUnauthorizedAccount","inputs":[{"name":"account","type":"address","internalType":"address"}]},{"type":"error","name":"ParlayBlockedByCorrelation","inputs":[{"name":"reason","type":"string","internalType":"string"}]},{"type":"error","name":"Unauthorized","inputs":[]}],"bytecode":{"object":"0x60803461014e57601f61171738819003918201601f19168301916001600160401b0383118484101761015257808492604094855283398101031261014e57805190600382101561014e576020015190331561013b575f8054336001600160a01b0319821681178355916001600160a01b03909116907f8be0079c531659141344cd1fd0a4f28419497f9722a3daafe3b4186f6b6457e09080a36127108211610128576020907f0a421f1cc6702a4c4b8b0b196a36d0a38c4532737e720e08ad38e5a204817cd79260ff196002541660ff831617600255806005556100e233610166565b506100ec336101dc565b50604051915f7fc03d2c623dd2ffc9dcf7405b7a6c317d058eb450ad8a9e7e7411bf25b00e472a8180a38152a160405161144790816102708239f35b5063e139b34960e01b5f5260045260245ffd5b631e4fbdf760e01b5f525f60045260245ffd5b5f80fd5b634e487b7160e01b5f52604160045260245ffd5b6001600160a01b0381165f9081525f5160206116d75f395f51905f52602052604090205460ff166101d7576001600160a01b03165f8181525f5160206116d75f395f51905f5260205260408120805460ff191660011790553391905f5160206116b75f395f51905f528180a4600190565b505f90565b6001600160a01b0381165f9081525f5160206116f75f395f51905f52602052604090205460ff166101d7576001600160a01b03165f8181525f5160206116f75f395f51905f5260205260408120805460ff191660011790553391907f34aa5d158876defff4e39cc63c042ba212881d1a993250fa1e3000e852a7967d905f5160206116b75f395f51905f529080a460019056fe6080806040526004361015610012575f80fd5b5f3560e01c90816301ffc9a7146109b8575080630225d3cc1461099c5780630505c8c914610480578063248a9ca3146109715780632f2ff15d1461093357806336568abe146108ef5780633d2e57c91461088c578063715018a61461083557806374bce0bc146107b85780638da5cb5b146107915780638f503e191461077457806391d148541461072b578063a217fddf14610711578063a43ec9b9146105a8578063a99bec3114610552578063b1d6794f14610518578063b45970c1146104e7578063ca816ee2146104a9578063ce1e462614610480578063d547741f1461043b578063dbcab71814610344578063dc42550214610263578063ed5530c914610240578063f2fde38b146101bb578063f33fcf0b146101905763fd072f7a1461013a575f80fd5b3461018c57606061015361014d36610a4a565b90610f24565b91906020604051938492151583526040828401528051918291826040860152018484015e5f828201840152601f01601f19168101030190f35b5f80fd5b3461018c57602036600319011261018c5760206101b36101ae610a34565b610e6d565b604051908152f35b3461018c57602036600319011261018c576101d4610a34565b6101dc611308565b6001600160a01b0316801561022d575f80546001600160a01b03198116831782556001600160a01b0316907f8be0079c531659141344cd1fd0a4f28419497f9722a3daafe3b4186f6b6457e09080a3005b631e4fbdf760e01b5f525f60045260245ffd5b3461018c57602036600319011261018c5760206101b361025e610a34565b610d1a565b3461018c57604036600319011261018c5760043567ffffffffffffffff811161018c57610294903690600401610a9e565b9060243567ffffffffffffffff811161018c576102b5903690600401610a9e565b9290916102c06110ee565b83820361030d575f5b8281106102d257005b806102e06001928787610cee565b35828060a01b036102fa6102f5848888610cee565b610b5d565b165f52600460205260405f2055016102c9565b60405162461bcd60e51b815260206004820152600f60248201526e098cadccee8d040dad2e6dac2e8c6d608b1b6044820152606490fd5b3461018c57608036600319011261018c5760043560243590604435916064358015159384820361018c576103766110ee565b61271081116104295782841015610410576103fe5f5160206113f25f395f51905f5293955b6003604051916103aa83610acf565b87835260208301898152604084019086825260608501928352895f528360205260405f208b5f5260205260405f209451855551600185015551600284015551151591019060ff801983541691151516179055565b604080519182529115156020820152a3005b6103fe5f5160206113f25f395f51905f5293949561039b565b63e139b34960e01b5f5260045260245ffd5b3461018c57604036600319011261018c5761047e60043561045a610a1e565b90610479610474825f526001602052600160405f20015490565b61115d565b611223565b005b3461018c575f36600319011261018c576104a560ff6002541660405191829182610a0b565b0390f35b3461018c57604036600319011261018c576104c2610a34565b6104ca6110ee565b6001600160a01b03165f9081526004602052604090206024359055005b3461018c57604036600319011261018c576105066024356004356112a7565b60408051928352901515602083015290f35b3461018c575f36600319011261018c5760206040517f34aa5d158876defff4e39cc63c042ba212881d1a993250fa1e3000e852a7967d8152f35b3461018c57602036600319011261018c5760043561056e611308565b6127108111610429576020817f0a421f1cc6702a4c4b8b0b196a36d0a38c4532737e720e08ad38e5a204817cd792600555604051908152a1005b3461018c57602036600319011261018c5760043567ffffffffffffffff811161018c573660238201121561018c5780600401359067ffffffffffffffff821161018c573660248360071b8301011161018c57906106036110ee565b5f915b8183101561047e578260071b81019260648401359361271085116106fe5760019293946024820135906044830135908183105f146106e3576106ca60845f5160206113f25f395f51905f5293955b016106c561066182610ce1565b60036040519161067083610acf565b888352602083018a815260408401908882526060850192151583528a5f528360205260405f208c5f5260205260405f2094518555518d85015551600284015551151591019060ff801983541691151516179055565b610ce1565b60408051928352901515602083015290a3019190610606565b6106ca60845f5160206113f25f395f51905f52939495610654565b8463e139b34960e01b5f5260045260245ffd5b3461018c575f36600319011261018c5760206040515f8152f35b3461018c57604036600319011261018c57610744610a1e565b6004355f52600160205260405f209060018060a01b03165f52602052602060ff60405f2054166040519015158152f35b3461018c575f36600319011261018c576020600554604051908152f35b3461018c575f36600319011261018c575f546040516001600160a01b039091168152602090f35b3461018c57602036600319011261018c57600435600381101561018c576107dd611308565b60025460ff81169060ff83169060ff1916176002556003811015610821577fc03d2c623dd2ffc9dcf7405b7a6c317d058eb450ad8a9e7e7411bf25b00e472a5f80a3005b634e487b7160e01b5f52602160045260245ffd5b3461018c575f36600319011261018c5761084d611308565b5f80546001600160a01b0319811682556001600160a01b03167f8be0079c531659141344cd1fd0a4f28419497f9722a3daafe3b4186f6b6457e08280a3005b3461018c576108a361089d36610a4a565b90610b93565b90604051918291604083019083526040602084015281518091526020606084019201905f5b8181106108d6575050500390f35b82518452859450602093840193909201916001016108c8565b3461018c57604036600319011261018c57610908610a1e565b336001600160a01b038216036109245761047e90600435611223565b63334bd91960e11b5f5260045ffd5b3461018c57604036600319011261018c5761047e600435610952610a1e565b9061096c610474825f526001602052600160405f20015490565b611197565b3461018c57602036600319011261018c5760206101b36004355f526001602052600160405f20015490565b3461018c575f36600319011261018c5760206040516127108152f35b3461018c57602036600319011261018c576004359063ffffffff60e01b821680920361018c57602091637965db0b60e01b81149081156109fa575b5015158152f35b6301ffc9a760e01b149050836109f3565b9190602083019260038210156108215752565b602435906001600160a01b038216820361018c57565b600435906001600160a01b038216820361018c57565b90602060031983011261018c5760043567ffffffffffffffff811161018c578260238201121561018c5780600401359267ffffffffffffffff841161018c5760248460061b8301011161018c576024019190565b9181601f8401121561018c5782359167ffffffffffffffff831161018c576020808501948460051b01011161018c57565b6080810190811067ffffffffffffffff821117610aeb57604052565b634e487b7160e01b5f52604160045260245ffd5b90601f8019910116810190811067ffffffffffffffff821117610aeb57604052565b67ffffffffffffffff8111610aeb5760051b60200190565b9190811015610b495760061b0190565b634e487b7160e01b5f52603260045260245ffd5b356001600160a01b038116810361018c5790565b5f198114610b7f5760010190565b634e487b7160e01b5f52601160045260245ffd5b91909160ff60025416600381101561082157600103610cc45760028310610cc4575f198301838111610b7f57808402908482041484151715610b7f5760011c92610bdc84610b21565b93610bea6040519586610aff565b808552610bf9601f1991610b21565b013660208601375f905f925f5b828110610c1557505050509190565b60018101808211610b7f575b838110610c315750600101610c06565b610c426101ae6102f5848787610b39565b94610c546101ae6102f5848888610b39565b610c5e81886112a7565b5096148681610cbb575b50610cb1575b8851811015610b495780866020610c8b9360051b8c010152610b71565b948601809611610b7f576127108611610ca7575b600101610c21565b6127109550610c9f565b6005549550610c6e565b9050155f610c68565b506040519150610cd5602083610aff565b5f82525f3681375f9190565b35801515810361018c5790565b9190811015610b495760051b0190565b67ffffffffffffffff8111610aeb57601f01601f191660200190565b5f809160405160208101906399892e4760e01b825260048152610d3e602482610aff565b51915afa3d15610e65573d90610d5382610cfe565b91610d616040519384610aff565b82523d5f602084013e5b80610e5b575b610dba5760405162461bcd60e51b815260206004820152601960248201527f4661696c656420746f2065787472616374206d617463684964000000000000006044820152606490fd5b805181019060208181840193031261018c5760208101519067ffffffffffffffff821161018c57019080603f8301121561018c576020820151610dfc81610cfe565b92610e0a6040519485610aff565b81845260208401926040828401011161018c57815f92604060209301855e84010152610e556020604051809382820195518091875e81015f838201520301601f198101835282610aff565b51902090565b5080511515610d71565b606090610d6b565b6001600160a01b0381165f8181526004602052604090205491908215610e9257505090565b9091506040519063ed5530c960e01b82526004820152602081602481305afa5f9181610ef0575b50610eeb575060405160208101916bffffffffffffffffffffffff199060601b16825260148152610e55603482610aff565b905090565b9091506020813d602011610f1c575b81610f0c60209383610aff565b8101031261018c5751905f610eb9565b3d9150610eff565b9060ff600254166003811015806108215781156110da57600283106110da575f5b838110610f675750505050505f90604051610f61602082610aff565b5f815290565b60018101808211610b7f575b848110610f835750600101610f45565b610f966101ae6102f584888a969a610b39565b610fa76101ae6102f5848987610b39565b90610fb282826112a7565b905085816110ca575b5061102a57849114610fd4575b50600101949094610f73565b6108215760028414610fe65782610fc8565b5050505050506001906040610ffd81519182610aff565b601f81527f426c6f636b65643a2073616d65206d6174636820636f7272656c6174696f6e00602082015290565b50509150506110c49250600991506041602061105061104a82989761132e565b9361132e565b6040519788947f426c6f636b65643a20636f7272656c6174696f6e206265747765656e206c656782870152600160fd1b60408701528051918291018587015e8401906801030b732103632b3960bd1b84830152805192839101604a83015e01015f838201520301601f198101845283610aff565b60019190565b9050610821576002861485610fbb565b505050505f90604051610f61602082610aff565b335f9081527fd797d21b4113287da9d8763b161e0cda477ef211d19a580f96d760377a58e77d602052604090205460ff161561112657565b63e2517d3f60e01b5f52336004527f34aa5d158876defff4e39cc63c042ba212881d1a993250fa1e3000e852a7967d60245260445ffd5b5f81815260016020908152604080832033845290915290205460ff16156111815750565b63e2517d3f60e01b5f523360045260245260445ffd5b5f8181526001602090815260408083206001600160a01b038616845290915290205460ff1661121d575f8181526001602081815260408084206001600160a01b0396909616808552959091528220805460ff19169091179055339291907f2f8788117e7eff1d82e926ec794901d17c78024a50270940304540a733656f0d9080a4600190565b50505f90565b5f8181526001602090815260408083206001600160a01b038616845290915290205460ff161561121d575f8181526001602090815260408083206001600160a01b0395909516808452949091528120805460ff19169055339291907ff6391f5c32d9c69d2a47ea670b442974b53935d1edc7fd64eb21e047a839171b9080a4600190565b606092919081811015611302575b5f52600360205260405f20905f5260205260405f206040516112d681610acf565b815481526001820154602082015260ff6003600284015493846040850152015416151593849101529190565b906112b5565b5f546001600160a01b0316330361131b57565b63118cdaa760e01b5f523360045260245ffd5b80156113d1575f81805b6113bd575061134681610cfe565b906113546040519283610aff565b808252601f1961136382610cfe565b013660208401375b809280156113b657600a81066030019182603011610b7f578015610b7f575f1901938351851015610b4957600a9260f81b6001600160f81b0319165f1a908401601f0153049161136b565b5050905090565b906113c9600a91610b71565b910480611338565b506040516113e0604082610aff565b60018152600360fc1b60208201529056fe7cb3172f049a693289d5a4b371142e1c02baae0525955e1571f9e2a283dee915a2646970667358221220fc578b2e1e4181fc8c4cf905538538c00df96a0a63130acd2152a6979db3d37964736f6c634300081e00332f8788117e7eff1d82e926ec794901d17c78024a50270940304540a733656f0da6eef7e35abe7026729641147f7915573c7e97b47efa546f5f6e3230263bcb49d797d21b4113287da9d8763b161e0cda477ef211d19a580f96d760377a58e77d","linkReferences":{}},"methodIdentifiers":{"DEFAULT_ADMIN_ROLE()":"a217fddf","MAX_PENALTY_BPS()":"0225d3cc","RULE_MANAGER_ROLE()":"b1d6794f","_extractMatchId(address)":"ed5530c9","batchRegisterMarkets(address[],bytes32[])":"dc425502","batchSetRules((bytes32,bytes32,uint256,bool)[])":"a43ec9b9","calculatePenalty((address,uint256)[])":"3d2e57c9","checkBlocked((address,uint256)[])":"fd072f7a","defaultSameMatchPenalty()":"8f503e19","getCorrelationRule(bytes32,bytes32)":"b45970c1","getMatchId(address)":"f33fcf0b","getPolicy()":"ce1e4626","getRoleAdmin(bytes32)":"248a9ca3","grantRole(bytes32,address)":"2f2ff15d","hasRole(bytes32,address)":"91d14854","owner()":"8da5cb5b","policy()":"0505c8c9","registerMarket(address,bytes32)":"ca816ee2","renounceOwnership()":"715018a6","renounceRole(bytes32,address)":"36568abe","revokeRole(bytes32,address)":"d547741f","setCorrelationRule(bytes32,bytes32,uint256,bool)":"dbcab718","setDefaultSameMatchPenalty(uint256)":"a99bec31","setPolicy(uint8)":"74bce0bc","supportsInterface(bytes4)":"01ffc9a7","transferOwnership(address)":"f2fde38b"},"id":94}