{"abi":[{"type":"constructor","inputs":[{"name":"uri","type":"string","internalType":"string"}],"stateMutability":"nonpayable"},{"type":"function","name":"BPS_DENOMINATOR","inputs":[],"outputs":[{"name":"","type":"uint256","internalType":"uint256"}],"stateMutability":"view"},{"type":"function","name":"DEFAULT_ADMIN_ROLE","inputs":[],"outputs":[{"name":"","type":"bytes32","internalType":"bytes32"}],"stateMutability":"view"},{"type":"function","name":"MAX_BOOST_BPS","inputs":[],"outputs":[{"name":"","type":"uint256","internalType":"uint256"}],"stateMutability":"view"},{"type":"function","name":"MINTER_ROLE","inputs":[],"outputs":[{"name":"","type":"bytes32","internalType":"bytes32"}],"stateMutability":"view"},{"type":"function","name":"PAUSER_ROLE","inputs":[],"outputs":[{"name":"","type":"bytes32","internalType":"bytes32"}],"stateMutability":"view"},{"type":"function","name":"balanceOf","inputs":[{"name":"account","type":"address","internalType":"address"},{"name":"id","type":"uint256","internalType":"uint256"}],"outputs":[{"name":"","type":"uint256","internalType":"uint256"}],"stateMutability":"view"},{"type":"function","name":"balanceOfBatch","inputs":[{"name":"accounts","type":"address[]","internalType":"address[]"},{"name":"ids","type":"uint256[]","internalType":"uint256[]"}],"outputs":[{"name":"","type":"uint256[]","internalType":"uint256[]"}],"stateMutability":"view"},{"type":"function","name":"batchMint","inputs":[{"name":"couponTypeId","type":"uint256","internalType":"uint256"},{"name":"recipients","type":"address[]","internalType":"address[]"},{"name":"amounts","type":"uint256[]","internalType":"uint256[]"}],"outputs":[],"stateMutability":"nonpayable"},{"type":"function","name":"couponTypes","inputs":[{"name":"","type":"uint256","internalType":"uint256"}],"outputs":[{"name":"boostBps","type":"uint256","internalType":"uint256"},{"name":"scope","type":"uint8","internalType":"enum Coupon.UsageScope"},{"name":"minBetAmount","type":"uint256","internalType":"uint256"},{"name":"maxOdds","type":"uint256","internalType":"uint256"},{"name":"expiresAt","type":"uint256","internalType":"uint256"},{"name":"maxUses","type":"uint256","internalType":"uint256"},{"name":"isActive","type":"bool","internalType":"bool"},{"name":"metadata","type":"string","internalType":"string"}],"stateMutability":"view"},{"type":"function","name":"createCouponType","inputs":[{"name":"boostBps","type":"uint256","internalType":"uint256"},{"name":"scope","type":"uint8","internalType":"enum Coupon.UsageScope"},{"name":"minBetAmount","type":"uint256","internalType":"uint256"},{"name":"maxOdds","type":"uint256","internalType":"uint256"},{"name":"expiresAt","type":"uint256","internalType":"uint256"},{"name":"maxUses","type":"uint256","internalType":"uint256"},{"name":"metadata","type":"string","internalType":"string"}],"outputs":[{"name":"couponTypeId","type":"uint256","internalType":"uint256"}],"stateMutability":"nonpayable"},{"type":"function","name":"getCouponStatus","inputs":[{"name":"user","type":"address","internalType":"address"},{"name":"couponTypeId","type":"uint256","internalType":"uint256"}],"outputs":[{"name":"balance","type":"uint256","internalType":"uint256"},{"name":"used","type":"uint256","internalType":"uint256"},{"name":"maxUses","type":"uint256","internalType":"uint256"}],"stateMutability":"view"},{"type":"function","name":"getRoleAdmin","inputs":[{"name":"role","type":"bytes32","internalType":"bytes32"}],"outputs":[{"name":"","type":"bytes32","internalType":"bytes32"}],"stateMutability":"view"},{"type":"function","name":"getUsageDetail","inputs":[{"name":"usageId","type":"uint256","internalType":"uint256"}],"outputs":[{"name":"usage","type":"tuple","internalType":"struct Coupon.CouponUsage","components":[{"name":"user","type":"address","internalType":"address"},{"name":"couponTypeId","type":"uint256","internalType":"uint256"},{"name":"market","type":"address","internalType":"address"},{"name":"betAmount","type":"uint256","internalType":"uint256"},{"name":"originalOdds","type":"uint256","internalType":"uint256"},{"name":"boostedOdds","type":"uint256","internalType":"uint256"},{"name":"timestamp","type":"uint256","internalType":"uint256"}]}],"stateMutability":"view"},{"type":"function","name":"getUserUsageHistory","inputs":[{"name":"user","type":"address","internalType":"address"}],"outputs":[{"name":"usageIds","type":"uint256[]","internalType":"uint256[]"}],"stateMutability":"view"},{"type":"function","name":"grantRole","inputs":[{"name":"role","type":"bytes32","internalType":"bytes32"},{"name":"account","type":"address","internalType":"address"}],"outputs":[],"stateMutability":"nonpayable"},{"type":"function","name":"hasRole","inputs":[{"name":"role","type":"bytes32","internalType":"bytes32"},{"name":"account","type":"address","internalType":"address"}],"outputs":[{"name":"","type":"bool","internalType":"bool"}],"stateMutability":"view"},{"type":"function","name":"isApprovedForAll","inputs":[{"name":"account","type":"address","internalType":"address"},{"name":"operator","type":"address","internalType":"address"}],"outputs":[{"name":"","type":"bool","internalType":"bool"}],"stateMutability":"view"},{"type":"function","name":"isCouponValid","inputs":[{"name":"user","type":"address","internalType":"address"},{"name":"couponTypeId","type":"uint256","internalType":"uint256"},{"name":"betAmount","type":"uint256","internalType":"uint256"},{"name":"marketScope","type":"uint8","internalType":"enum Coupon.UsageScope"}],"outputs":[{"name":"isValid","type":"bool","internalType":"bool"}],"stateMutability":"view"},{"type":"function","name":"mint","inputs":[{"name":"to","type":"address","internalType":"address"},{"name":"couponTypeId","type":"uint256","internalType":"uint256"},{"name":"amount","type":"uint256","internalType":"uint256"}],"outputs":[],"stateMutability":"nonpayable"},{"type":"function","name":"nextCouponTypeId","inputs":[],"outputs":[{"name":"","type":"uint256","internalType":"uint256"}],"stateMutability":"view"},{"type":"function","name":"pause","inputs":[],"outputs":[],"stateMutability":"nonpayable"},{"type":"function","name":"paused","inputs":[],"outputs":[{"name":"","type":"bool","internalType":"bool"}],"stateMutability":"view"},{"type":"function","name":"previewBoostedOdds","inputs":[{"name":"couponTypeId","type":"uint256","internalType":"uint256"},{"name":"originalOdds","type":"uint256","internalType":"uint256"}],"outputs":[{"name":"boostedOdds","type":"uint256","internalType":"uint256"}],"stateMutability":"view"},{"type":"function","name":"renounceRole","inputs":[{"name":"role","type":"bytes32","internalType":"bytes32"},{"name":"callerConfirmation","type":"address","internalType":"address"}],"outputs":[],"stateMutability":"nonpayable"},{"type":"function","name":"revokeRole","inputs":[{"name":"role","type":"bytes32","internalType":"bytes32"},{"name":"account","type":"address","internalType":"address"}],"outputs":[],"stateMutability":"nonpayable"},{"type":"function","name":"safeBatchTransferFrom","inputs":[{"name":"from","type":"address","internalType":"address"},{"name":"to","type":"address","internalType":"address"},{"name":"ids","type":"uint256[]","internalType":"uint256[]"},{"name":"values","type":"uint256[]","internalType":"uint256[]"},{"name":"data","type":"bytes","internalType":"bytes"}],"outputs":[],"stateMutability":"nonpayable"},{"type":"function","name":"safeTransferFrom","inputs":[{"name":"from","type":"address","internalType":"address"},{"name":"to","type":"address","internalType":"address"},{"name":"id","type":"uint256","internalType":"uint256"},{"name":"value","type":"uint256","internalType":"uint256"},{"name":"data","type":"bytes","internalType":"bytes"}],"outputs":[],"stateMutability":"nonpayable"},{"type":"function","name":"setApprovalForAll","inputs":[{"name":"operator","type":"address","internalType":"address"},{"name":"approved","type":"bool","internalType":"bool"}],"outputs":[],"stateMutability":"nonpayable"},{"type":"function","name":"setCouponTypeStatus","inputs":[{"name":"couponTypeId","type":"uint256","internalType":"uint256"},{"name":"isActive","type":"bool","internalType":"bool"}],"outputs":[],"stateMutability":"nonpayable"},{"type":"function","name":"setURI","inputs":[{"name":"newUri","type":"string","internalType":"string"}],"outputs":[],"stateMutability":"nonpayable"},{"type":"function","name":"supportsInterface","inputs":[{"name":"interfaceId","type":"bytes4","internalType":"bytes4"}],"outputs":[{"name":"","type":"bool","internalType":"bool"}],"stateMutability":"view"},{"type":"function","name":"totalSupply","inputs":[{"name":"","type":"uint256","internalType":"uint256"}],"outputs":[{"name":"","type":"uint256","internalType":"uint256"}],"stateMutability":"view"},{"type":"function","name":"totalUsed","inputs":[{"name":"","type":"uint256","internalType":"uint256"}],"outputs":[{"name":"","type":"uint256","internalType":"uint256"}],"stateMutability":"view"},{"type":"function","name":"unpause","inputs":[],"outputs":[],"stateMutability":"nonpayable"},{"type":"function","name":"uri","inputs":[{"name":"couponTypeId","type":"uint256","internalType":"uint256"}],"outputs":[{"name":"","type":"string","internalType":"string"}],"stateMutability":"view"},{"type":"function","name":"usageHistory","inputs":[{"name":"","type":"uint256","internalType":"uint256"}],"outputs":[{"name":"user","type":"address","internalType":"address"},{"name":"couponTypeId","type":"uint256","internalType":"uint256"},{"name":"market","type":"address","internalType":"address"},{"name":"betAmount","type":"uint256","internalType":"uint256"},{"name":"originalOdds","type":"uint256","internalType":"uint256"},{"name":"boostedOdds","type":"uint256","internalType":"uint256"},{"name":"timestamp","type":"uint256","internalType":"uint256"}],"stateMutability":"view"},{"type":"function","name":"useCoupon","inputs":[{"name":"user","type":"address","internalType":"address"},{"name":"couponTypeId","type":"uint256","internalType":"uint256"},{"name":"market","type":"address","internalType":"address"},{"name":"betAmount","type":"uint256","internalType":"uint256"},{"name":"originalOdds","type":"uint256","internalType":"uint256"},{"name":"marketScope","type":"uint8","internalType":"enum Coupon.UsageScope"}],"outputs":[{"name":"boostedOdds","type":"uint256","internalType":"uint256"}],"stateMutability":"nonpayable"},{"type":"function","name":"usedCount","inputs":[{"name":"","type":"address","internalType":"address"},{"name":"","type":"uint256","internalType":"uint256"}],"outputs":[{"name":"","type":"uint256","internalType":"uint256"}],"stateMutability":"view"},{"type":"function","name":"userUsageHistory","inputs":[{"name":"","type":"address","internalType":"address"},{"name":"","type":"uint256","internalType":"uint256"}],"outputs":[{"name":"","type":"uint256","internalType":"uint256"}],"stateMutability":"view"},{"type":"event","name":"ApprovalForAll","inputs":[{"name":"account","type":"address","indexed":true,"internalType":"address"},{"name":"operator","type":"address","indexed":true,"internalType":"address"},{"name":"approved","type":"bool","indexed":false,"internalType":"bool"}],"anonymous":false},{"type":"event","name":"CouponBatchMinted","inputs":[{"name":"couponTypeId","type":"uint256","indexed":true,"internalType":"uint256"},{"name":"recipients","type":"address[]","indexed":false,"internalType":"address[]"},{"name":"amounts","type":"uint256[]","indexed":false,"internalType":"uint256[]"},{"name":"totalAmount","type":"uint256","indexed":false,"internalType":"uint256"}],"anonymous":false},{"type":"event","name":"CouponTypeCreated","inputs":[{"name":"couponTypeId","type":"uint256","indexed":true,"internalType":"uint256"},{"name":"boostBps","type":"uint256","indexed":false,"internalType":"uint256"},{"name":"scope","type":"uint8","indexed":false,"internalType":"enum Coupon.UsageScope"},{"name":"minBetAmount","type":"uint256","indexed":false,"internalType":"uint256"},{"name":"maxOdds","type":"uint256","indexed":false,"internalType":"uint256"},{"name":"expiresAt","type":"uint256","indexed":false,"internalType":"uint256"},{"name":"maxUses","type":"uint256","indexed":false,"internalType":"uint256"}],"anonymous":false},{"type":"event","name":"CouponTypeStatusUpdated","inputs":[{"name":"couponTypeId","type":"uint256","indexed":true,"internalType":"uint256"},{"name":"isActive","type":"bool","indexed":false,"internalType":"bool"}],"anonymous":false},{"type":"event","name":"CouponUsed","inputs":[{"name":"user","type":"address","indexed":true,"internalType":"address"},{"name":"couponTypeId","type":"uint256","indexed":true,"internalType":"uint256"},{"name":"market","type":"address","indexed":true,"internalType":"address"},{"name":"betAmount","type":"uint256","indexed":false,"internalType":"uint256"},{"name":"originalOdds","type":"uint256","indexed":false,"internalType":"uint256"},{"name":"boostedOdds","type":"uint256","indexed":false,"internalType":"uint256"},{"name":"usageId","type":"uint256","indexed":false,"internalType":"uint256"}],"anonymous":false},{"type":"event","name":"Paused","inputs":[{"name":"account","type":"address","indexed":false,"internalType":"address"}],"anonymous":false},{"type":"event","name":"RoleAdminChanged","inputs":[{"name":"role","type":"bytes32","indexed":true,"internalType":"bytes32"},{"name":"previousAdminRole","type":"bytes32","indexed":true,"internalType":"bytes32"},{"name":"newAdminRole","type":"bytes32","indexed":true,"internalType":"bytes32"}],"anonymous":false},{"type":"event","name":"RoleGranted","inputs":[{"name":"role","type":"bytes32","indexed":true,"internalType":"bytes32"},{"name":"account","type":"address","indexed":true,"internalType":"address"},{"name":"sender","type":"address","indexed":true,"internalType":"address"}],"anonymous":false},{"type":"event","name":"RoleRevoked","inputs":[{"name":"role","type":"bytes32","indexed":true,"internalType":"bytes32"},{"name":"account","type":"address","indexed":true,"internalType":"address"},{"name":"sender","type":"address","indexed":true,"internalType":"address"}],"anonymous":false},{"type":"event","name":"TransferBatch","inputs":[{"name":"operator","type":"address","indexed":true,"internalType":"address"},{"name":"from","type":"address","indexed":true,"internalType":"address"},{"name":"to","type":"address","indexed":true,"internalType":"address"},{"name":"ids","type":"uint256[]","indexed":false,"internalType":"uint256[]"},{"name":"values","type":"uint256[]","indexed":false,"internalType":"uint256[]"}],"anonymous":false},{"type":"event","name":"TransferSingle","inputs":[{"name":"operator","type":"address","indexed":true,"internalType":"address"},{"name":"from","type":"address","indexed":true,"internalType":"address"},{"name":"to","type":"address","indexed":true,"internalType":"address"},{"name":"id","type":"uint256","indexed":false,"internalType":"uint256"},{"name":"value","type":"uint256","indexed":false,"internalType":"uint256"}],"anonymous":false},{"type":"event","name":"URI","inputs":[{"name":"value","type":"string","indexed":false,"internalType":"string"},{"name":"id","type":"uint256","indexed":true,"internalType":"uint256"}],"anonymous":false},{"type":"event","name":"Unpaused","inputs":[{"name":"account","type":"address","indexed":false,"internalType":"address"}],"anonymous":false},{"type":"error","name":"AccessControlBadConfirmation","inputs":[]},{"type":"error","name":"AccessControlUnauthorizedAccount","inputs":[{"name":"account","type":"address","internalType":"address"},{"name":"neededRole","type":"bytes32","internalType":"bytes32"}]},{"type":"error","name":"BetAmountTooLow","inputs":[]},{"type":"error","name":"CouponExpired","inputs":[]},{"type":"error","name":"CouponNotActive","inputs":[]},{"type":"error","name":"ERC1155InsufficientBalance","inputs":[{"name":"sender","type":"address","internalType":"address"},{"name":"balance","type":"uint256","internalType":"uint256"},{"name":"needed","type":"uint256","internalType":"uint256"},{"name":"tokenId","type":"uint256","internalType":"uint256"}]},{"type":"error","name":"ERC1155InvalidApprover","inputs":[{"name":"approver","type":"address","internalType":"address"}]},{"type":"error","name":"ERC1155InvalidArrayLength","inputs":[{"name":"idsLength","type":"uint256","internalType":"uint256"},{"name":"valuesLength","type":"uint256","internalType":"uint256"}]},{"type":"error","name":"ERC1155InvalidOperator","inputs":[{"name":"operator","type":"address","internalType":"address"}]},{"type":"error","name":"ERC1155InvalidReceiver","inputs":[{"name":"receiver","type":"address","internalType":"address"}]},{"type":"error","name":"ERC1155InvalidSender","inputs":[{"name":"sender","type":"address","internalType":"address"}]},{"type":"error","name":"ERC1155MissingApprovalForAll","inputs":[{"name":"operator","type":"address","internalType":"address"},{"name":"owner","type":"address","internalType":"address"}]},{"type":"error","name":"EnforcedPause","inputs":[]},{"type":"error","name":"ExpectedPause","inputs":[]},{"type":"error","name":"InsufficientCoupon","inputs":[]},{"type":"error","name":"InvalidArrayLength","inputs":[]},{"type":"error","name":"InvalidBoostBps","inputs":[]},{"type":"error","name":"InvalidCouponType","inputs":[]},{"type":"error","name":"InvalidScope","inputs":[]},{"type":"error","name":"MaxUsesExceeded","inputs":[]},{"type":"error","name":"OddsTooHigh","inputs":[]},{"type":"error","name":"ZeroAddress","inputs":[]}],"bytecode":{"object":"0x608060405234610217576130de803803806100198161021b565b928339810190602081830312610217578051906001600160401b038211610217570181601f82011215610217578051906001600160401b0382116102035761006a601f8301601f191660200161021b565b928284526020838301011161021757815f9260208093018386015e8301015280516001600160401b03811161020357600254600181811c911680156101f9575b60208210146101e557601f8111610182575b50602091601f8211600114610122579181925f92610117575b50508160011b915f199060031b1c1916176002555b6100f333610240565b506100fd336102b6565b5061010733610349565b50604051612c8190816103dd8239f35b015190505f806100d5565b601f1982169260025f52805f20915f5b85811061016a57508360019510610152575b505050811b016002556100ea565b01515f1960f88460031b161c191690555f8080610144565b91926020600181928685015181550194019201610132565b60025f527f405787fa12a823e0f2b7631cc41b3ba8828b3321ca811111fa75cd3aa3bb5ace601f830160051c810191602084106101db575b601f0160051c01905b8181106101d057506100bc565b5f81556001016101c3565b90915081906101ba565b634e487b7160e01b5f52602260045260245ffd5b90607f16906100aa565b634e487b7160e01b5f52604160045260245ffd5b5f80fd5b6040519190601f01601f191682016001600160401b0381118382101761020357604052565b6001600160a01b0381165f9081525f5160206130be5f395f51905f52602052604090205460ff166102b1576001600160a01b03165f8181525f5160206130be5f395f51905f5260205260408120805460ff191660011790553391905f51602061305e5f395f51905f528180a4600190565b505f90565b6001600160a01b0381165f9081525f51602061309e5f395f51905f52602052604090205460ff166102b1576001600160a01b03165f8181525f51602061309e5f395f51905f5260205260408120805460ff191660011790553391907f9f2df0fed2c77648de5860a4cc508cd0818c85b8b8a1ab4ceeef8d981c8956a6905f51602061305e5f395f51905f529080a4600190565b6001600160a01b0381165f9081525f51602061307e5f395f51905f52602052604090205460ff166102b1576001600160a01b03165f8181525f51602061307e5f395f51905f5260205260408120805460ff191660011790553391907f65d7a28e3265b37a6474929f336521b332c1681b933f6cb9f3376673440d862a905f51602061305e5f395f51905f529080a460019056fe60806040526004361015610011575f80fd5b5f3560e01c8062fdd58e1461028357806301ffc9a71461027e57806302fe5305146102795780630b0d2ae9146102745780630e89341c1461026f578063156e29f61461026a5780631dbeeb4e14610265578063248a9ca314610260578063294f776c1461025b5780632d42b6bd146102565780632eb2c2d6146102515780632f2ff15d1461024c5780633497298a1461024757806336568abe146102425780633d4821961461023d5780633d9a581a146102385780633f4ba83a146102335780634d7388ee1461022e5780634e1273f4146102295780634eab8a81146102245780634fbf41731461021f5780635c975abb1461021a5780636b584919146102155780638456cb59146102105780638edd9a961461020b57806391d1485414610206578063a217fddf14610201578063a22cb465146101fc578063bb34c453146101f7578063bd85b039146101f2578063cec3ae24146101ed578063d5391393146101e8578063d547741f146101e3578063dffdfcee146101de578063e162c281146101d9578063e1a45218146101d4578063e63ab1e9146101cf578063e985e9c5146101ca5763f242432a146101c5575f80fd5b611987565b61192f565b6118f5565b6118d9565b61187d565b611804565b61167c565b611642565b6115c9565b61159f565b611575565b6114c3565b6114a9565b611457565b611411565b6113b8565b61132c565b6112bc565b61129b565b611252565b61119d565b611180565b61111a565b6110fe565b61107d565b610fee565b610ef2565b610eac565b610e18565b610a76565b61092b565b6108da565b61075b565b610667565b610630565b61057d565b610459565b6102fb565b61029d565b6001600160a01b0381160361029957565b5f80fd5b346102995760403660031901126102995760206102e06004356102bf81610288565b6024355f525f835260405f209060018060a01b03165f5260205260405f2090565b54604051908152f35b6001600160e01b031981160361029957565b3461029957602036600319011261029957600435610318816102e9565b63ffffffff60e01b16637965db0b60e01b8114908115610341575b506040519015158152602090f35b636cdb3d1360e11b811491508115610373575b8115610362575b505f610333565b6301ffc9a760e01b1490505f61035b565b6303a24d0760e21b81149150610354565b634e487b7160e01b5f52604160045260245ffd5b60e081019081106001600160401b038211176103b357604052565b610384565b90601f801991011681019081106001600160401b038211176103b357604052565b604051906103e9610100836103b8565b565b604051906103e960e0836103b8565b6001600160401b0381116103b357601f01601f191660200190565b81601f820112156102995760208135910161042f826103fa565b9261043d60405194856103b8565b8284528282011161029957815f92602092838601378301015290565b34610299576020366003190112610299576004356001600160401b03811161029957610489903690600401610415565b61049161228d565b80516001600160401b0381116103b3576104b5816104b06002546116bd565b611c86565b602091601f82116001146104f3576104e3925f91836104e8575b50508160011b915f199060031b1c19161790565b600255005b015190505f806104cf565b60025f52601f198216927f405787fa12a823e0f2b7631cc41b3ba8828b3321ca811111fa75cd3aa3bb5ace915f5b8581106105565750836001951061053e575b505050811b01600255005b01515f1960f88460031b161c191690555f8080610533565b91926020600181928685015181550194019201610521565b60243590811515820361029957565b346102995760403660031901126102995760043561059961056e565b6105a161228d565b6007548210156105fd5760207f03a8cf690a5111bf082eb9feec67f4139916ef466546fe74de22964fb1f1e2aa91835f52600582526105f281600660405f20019060ff801983541691151516179055565b6040519015158152a2005b633b05143560e11b5f5260045ffd5b805180835260209291819084018484015e5f828201840152601f01601f1916010190565b346102995760203660031901126102995761066361064f600435611aa9565b60405191829160208352602083019061060c565b0390f35b346102995760603660031901126102995760043561068481610288565b602435604435916106936122dc565b61069b6123f4565b6001600160a01b0381161561071c576007548210156105fd57815f5260056020526106d46106d0600660405f20015460ff1690565b1590565b61070d57816106f36107019285610709956106ed611a95565b9261240f565b5f52600860205260405f2090565b918254611bac565b9055005b63787a167360e11b5f5260045ffd5b63d92e233d60e01b5f5260045ffd5b9181601f84011215610299578235916001600160401b038311610299576020808501948460051b01011161029957565b34610299576060366003190112610299576004356024356001600160401b0381116102995761078e90369060040161072b565b6044929192356001600160401b038111610299576107b090369060040161072b565b6107bb9491946122dc565b6107c36123f4565b8083036108cb576007548410156105fd576107f66106d060066107ee875f52600560205260405f2090565b015460ff1690565b61070d575f905f5b84811061085e5750906108599185966108407ffec8edae7b2cbf00c4892aeb696d4d61e86345faef0011178fea2d8b5c9e7d1a975f52600860205260405f2090565b61084b848254611bac565b905560405195869586611bd8565b0390a2005b91610881610875610870858888611bbe565b611bce565b6001600160a01b031690565b1561071c576108c46001916108b261089d610870878a8a611bbe565b6108a887878d611bbe565b358a6106ed611a95565b6108bd85858b611bbe565b3590611bac565b92016107fe565b634ec4810560e11b5f5260045ffd5b346102995760203660031901126102995760206109056004355f526003602052600160405f20015490565b604051908152f35b60243590600582101561029957565b60a43590600582101561029957565b346102995760e03660031901126102995760043561094761090d565b6044356064356084359260a4359460c4356001600160401b03811161029957610974903690600401610415565b9361097d61228d565b6113888211610a675761098f83611793565b600460ff841611610a585761066396610a39967fd47ab8cbe3dd6cb06814f05890cb839d2cd1a8f7e85c85ea369850482fc6d4a395610a4593600754998a996109df6109da8c611c54565b600755565b6109e76103d9565b908882526109f88a60208401611c62565b8360408301528460608301528560808301528660a0830152610a1d60c0830160019052565b60e0820152610a348b5f52600560205260405f2090565b611de4565b60405196879687611e60565b0390a26040519081529081906020820190565b63725a844f60e01b5f5260045ffd5b634681a54160e11b5f5260045ffd5b346102995760c036600319011261029957600435610a9381610288565b6024359060443590610aa482610288565b60843592606435610ab361091c565b93610abc6122dc565b610ac46123f4565b6007548310156105fd57610ae0835f52600560205260405f2090565b94610af26106d0600688015460ff1690565b61070d5760048601548015159081610d9a575b50610d8b57610b3485610b1f865f525f60205260405f2090565b9060018060a01b03165f5260205260405f2090565b5415610d7c57600586015480610d07575b50600186015460ff1690610b5882611793565b8115159182610ce9575b5050610a585760028501548015159081610cdf575b50610cd0576003610b9d610b97610b8f88548a611e90565b612710900490565b88611bac565b9501548015159081610cc6575b50610cb757610663957f6f78ce54ea7bb06315710eb1d3dd04869cc6916ab45b40899ebdccb622bb9a4491610bdf8587612560565b610ca4600a54610c2f610bf06103eb565b6001600160a01b038a168152602081018990526001600160a01b03851660408201528760608201528560808201528a60a08201524260c0820152611ea3565b6001600160a01b0388165f908152600b60205260409020610c51908290611f44565b610c63875f52600960205260405f2090565b610c6d8154611c54565b905560408051968752602087019490945292850188905260608501929092526001600160a01b039081169516929081906080820190565b0390a46040519081529081906020820190565b636fccf71760e01b5f5260045ffd5b905085115f610baa565b63f2c2fd8b60e01b5f5260045ffd5b905082105f610b77565b909150610cf582611793565b610cfe81611793565b14155f80610b62565b6001600160a01b0386165f908152600660205260409020610d329086905b905f5260205260405f2090565b541015610d6d576001600160a01b0385165f908152600660205260409020610d5b908590610d25565b610d658154611c54565b90555f610b45565b63ea7b358b60e01b5f5260045ffd5b631c420d1b60e11b5f5260045ffd5b6336743d3d60e11b5f5260045ffd5b905042115f610b05565b6001600160401b0381116103b35760051b60200190565b9080601f83011215610299578135610dd281610da4565b92610de060405194856103b8565b81845260208085019260051b82010192831161029957602001905b828210610e085750505090565b8135815260209182019101610dfb565b346102995760a036600319011261029957600435610e3581610288565b60243590610e4282610288565b6044356001600160401b03811161029957610e61903690600401610dbb565b6064356001600160401b03811161029957610e80903690600401610dbb565b90608435936001600160401b03851161029957610ea4610eaa953690600401610415565b93611f78565b005b3461029957604036600319011261029957610eaa602435600435610ecf82610288565b610eed610ee8825f526003602052600160405f20015490565b6123ba565b6126da565b34610299576020366003190112610299576004355f60c0604051610f1581610398565b8281528260208201528260408201528260608201528260808201528260a08201520152600a54811015610fb657610f57610f51610663926112f2565b50611fd4565b6040519182918291909160c08060e083019460018060a01b0381511684526020810151602085015260018060a01b036040820151166040850152606081015160608501526080810151608085015260a081015160a08501520151910152565b60405162461bcd60e51b815260206004820152601060248201526f125b9d985b1a59081d5cd859d948125160821b6044820152606490fd5b346102995760403660031901126102995760043560243561100e81610288565b336001600160a01b0382160361102757610eaa91612764565b63334bd91960e11b5f5260045ffd5b90602080835192838152019201905f5b8181106110535750505090565b8251845260209384019390920191600101611046565b90602061107a928181520190611036565b90565b346102995760203660031901126102995760043561109a81610288565b60018060a01b03165f52600b60205260405f206040519081602082549182815201915f5260205f20905f5b8181106110e857610663856110dc818703826103b8565b60405191829182611069565b82548452602090930192600192830192016110c5565b34610299575f3660031901126102995760206040516113888152f35b34610299575f3660031901126102995761113261234b565b60045460ff8116156111715760ff19166004557f5db9ee0a495bf2e6ff9c91a7834c1ba4fdd244a5e8aa4e537bd38aeae4b073aa6020604051338152a1005b638dfc202b60e01b5f5260045ffd5b34610299575f366003190112610299576020600754604051908152f35b34610299576040366003190112610299576004356001600160401b0381116102995736602382011215610299578060040135906111d982610da4565b916111e760405193846103b8565b8083526024602084019160051b8301019136831161029957602401905b82821061123857836024356001600160401b03811161029957610663916112326110dc923690600401610dbb565b90612044565b60208091833561124781610288565b815201910190611204565b346102995760403660031901126102995760043561126f81610288565b6024359060018060a01b03165f52600660205260405f20905f52602052602060405f2054604051908152f35b346102995760403660031901126102995760206109056024356004356120f8565b34610299575f36600319011261029957602060ff600454166040519015158152f35b634e487b7160e01b5f52603260045260245ffd5b600a5481101561130e57600a5f52600760205f20910201905f90565b6112de565b805482101561130e575f52600760205f20910201905f90565b3461029957602036600319011261029957600435600a5481101561029957611353906112f2565b50805460018201546002830154600384015460048501546005860154600690960154604080516001600160a01b039788168152602081019690965295909316948401949094526060830152608082019290925260a081019290925260c082015260e090f35b34610299575f366003190112610299576113d061234b565b6113d86123f4565b600160ff1960045416176004557f62e78cea01bee320cd4e420270b5ea74000d11b0c9f74754ebdbfc544b05a2586020604051338152a1005b346102995760803660031901126102995760043561142e81610288565b6024359060643560443560058210156102995760209361144d93612155565b6040519015158152f35b3461029957604036600319011261029957602060ff61149d60243560043561147e82610288565b5f526003845260405f209060018060a01b03165f5260205260405f2090565b54166040519015158152f35b34610299575f3660031901126102995760206040515f8152f35b34610299576040366003190112610299576004356114e081610288565b6114e861056e565b6001600160a01b038216918215611563578161152261153392335f52600160205260405f209060018060a01b03165f5260205260405f2090565b9060ff801983541691151516179055565b60405190151581527f17307eab39ab6107e8899845ad3d59bd9653f200f220920489ca2b5937696c3160203392a3005b62ced3e160e81b5f525f60045260245ffd5b34610299576020366003190112610299576004355f526009602052602060405f2054604051908152f35b34610299576020366003190112610299576004355f526008602052602060405f2054604051908152f35b34610299576040366003190112610299576004356115e681610288565b6024355f818152602081815260408083206001600160a01b039590951683529381528382205460068252848320938352928152838220546005808352928590209092015484519384529083019190915291810191909152606090f35b34610299575f3660031901126102995760206040517f9f2df0fed2c77648de5860a4cc508cd0818c85b8b8a1ab4ceeef8d981c8956a68152f35b3461029957604036600319011261029957610eaa60243560043561169f82610288565b6116b8610ee8825f526003602052600160405f20015490565b612764565b90600182811c921680156116eb575b60208310146116d757565b634e487b7160e01b5f52602260045260245ffd5b91607f16916116cc565b9060405191825f825492611708846116bd565b8084529360018116908115611771575060011461172d575b506103e9925003836103b8565b90505f9291925260205f20905f915b8183106117555750509060206103e9928201015f611720565b602091935080600191548385890101520191019091849261173c565b9050602092506103e994915060ff191682840152151560051b8201015f611720565b6005111561179d57565b634e487b7160e01b5f52602160045260245ffd5b90600582101561179d5752565b9491926117dc610100979461107a9a999693885260208801906117b1565b60408601526060850152608084015260a0830152151560c08201528160e0820152019061060c565b34610299576020366003190112610299576004355f52600560205260405f20805461066360ff600184015416926002810154906003810154600482015460058301549161185b600760ff60068701541695016116f5565b94604051988998896117be565b805482101561130e575f5260205f2001905f90565b346102995760403660031901126102995760043561189a81610288565b6001600160a01b03165f908152600b6020526040902080546024359190821015610299576020916118ca91611868565b90549060031b1c604051908152f35b34610299575f3660031901126102995760206040516127108152f35b34610299575f3660031901126102995760206040517f65d7a28e3265b37a6474929f336521b332c1681b933f6cb9f3376673440d862a8152f35b3461029957604036600319011261029957602060ff61149d60043561195381610288565b6024359061196082610288565b60018060a01b03165f526001845260405f209060018060a01b03165f5260205260405f2090565b346102995760a0366003190112610299576004356119a481610288565b6024356119b081610288565b60443590606435926084356001600160401b038111610299576119d7903690600401610415565b926001600160a01b0382163381141580611a72575b611a5c576001600160a01b03841615611a495715611a3757610eaa94611a2f60405192600184526020840152604083019160018352606084015260808301604052565b9290916127ec565b626a0d4560e21b5f525f60045260245ffd5b632bfa23e760e11b5f525f60045260245ffd5b63711bec9160e11b5f523360045260245260445ffd5b505f81815260016020908152604080832033845290915290205460ff16156119ec565b60405190611aa46020836103b8565b5f8252565b600754811015611b83575f526005602052611ac9600760405f20016116f5565b805161107a5750604051600254815f611ae1836116bd565b8083529260018116908115611b645750600114611b05575b61107a925003826103b8565b5060025f90815290917f405787fa12a823e0f2b7631cc41b3ba8828b3321ca811111fa75cd3aa3bb5ace5b818310611b4857505090602061107a92820101611af9565b6020919350806001915483858801015201910190918392611b30565b6020925061107a94915060ff191682840152151560051b820101611af9565b50604051611b926020826103b8565b5f815290565b634e487b7160e01b5f52601160045260245ffd5b91908201809211611bb957565b611b98565b919081101561130e5760051b0190565b3561107a81610288565b95949391929092806060880160608952526080870193905f5b818110611c2a5750505085830360208701528183526001600160fb1b0382116102995760409260209260051b8092848301370101930152565b9091946020806001928835611c3e81610288565b848060a01b031681520196019101919091611bf1565b5f198114611bb95760010190565b600582101561179d5752565b90600581101561179d5760ff80198354169116179055565b601f8111611c92575050565b60025f5260205f20906020601f840160051c83019310611ccc575b601f0160051c01905b818110611cc1575050565b5f8155600101611cb6565b9091508190611cad565b601f8211611ce357505050565b5f5260205f20906020601f840160051c83019310611d1b575b601f0160051c01905b818110611d10575050565b5f8155600101611d05565b9091508190611cfc565b91909182516001600160401b0381116103b357611d4c81611d4684546116bd565b84611cd6565b6020601f8211600114611d7f578190611d7b9394955f926104e85750508160011b915f199060031b1c19161790565b9055565b601f19821690611d92845f5260205f2090565b915f5b818110611dcc57509583600195969710611db4575b505050811b019055565b01515f1960f88460031b161c191690555f8080611daa565b9192602060018192868b015181550194019201611d95565b600760e06103e99380518455611e0a6020820151611e0181611793565b60018601611c6e565b60408101516002850155606081015160038501556080810151600485015560a08101516005850155611e57611e4260c0830151151590565b600686019060ff801983541691151516179055565b01519101611d25565b92611e7d60a095929897969360c0860199865260208601906117b1565b6040840152606083015260808201520152565b81810292918115918404141715611bb957565b600a54600160401b8110156103b357806001611ec49201600a55600a611313565b919091611f3157805182546001600160a01b039182166001600160a01b0319918216178455602083015160018501556040830151600285018054919093169116179055606081015160038301556080810151600483015560a0810151600583015560c00151600690910155565b634e487b7160e01b5f525f60045260245ffd5b8054600160401b8110156103b357611f6191600182018155611868565b819291549060031b91821b915f19901b1916179055565b939291906001600160a01b0385163381141580611fb1575b611a5c576001600160a01b03821615611a495715611a37576103e9946127ec565b505f81815260016020908152604080832033845290915290205460ff1615611f90565b90604051611fe181610398565b82546001600160a01b0390811682526001840154602083015260028401541660408201526003830154606082015260048301546080820152600583015460a082015260069092015460c0830152565b805182101561130e5760209160051b010190565b919091805183518082036120e357505080519061206082610da4565b9161206e60405193846103b8565b80835261207d601f1991610da4565b013660208401375f5b81518110156120dc57806120cb60019260051b60208082870101519189010151905f918252602082815260408084206001600160a01b03909316845291905290205490565b6120d58286612030565b5201612086565b5090925050565b635b05999160e01b5f5260045260245260445ffd5b919091600754811015612152575f52600560205260405f209161271061211f845483611e90565b048101809111611bb95760038193015490818015159182612148575b50506121445750565b9150565b119050815f61213b565b50565b9290919260075483101561228557612175835f52600560205260405f2090565b926121876106d0600686015460ff1690565b612272576004840154801515908161227b575b50612272576121b482610b1f835f525f60205260405f2090565b5415612272576005840154908115159283612245575b50505061223e57600182015460ff16906121e382611793565b8115159182612220575b505061221a57600201548015159182612210575b505061220c57600190565b5f90565b1090505f80612201565b50505f90565b90915061222c82611793565b61223581611793565b14155f806121ed565b5050505f90565b6001600160a01b03165f90815260066020526040902091925061226791610d25565b5410155f80806121ca565b50505050505f90565b905042115f61219a565b505050505f90565b335f9081527f3617319a054d772f909f7c479a2cebe5066e836a939412e32403c99029b92eff602052604090205460ff16156122c557565b63e2517d3f60e01b5f52336004525f60245260445ffd5b335f9081527f5562e70da342db81569f3094d36be279beaca7ad8e08f434ea188e79d2bfe10c602052604090205460ff161561231457565b63e2517d3f60e01b5f52336004527f9f2df0fed2c77648de5860a4cc508cd0818c85b8b8a1ab4ceeef8d981c8956a660245260445ffd5b335f9081527f30adeb818ef77f204f5a603c30fa5332397b6e28fb3b7f9d937ae6a6914716de602052604090205460ff161561238357565b63e2517d3f60e01b5f52336004527f65d7a28e3265b37a6474929f336521b332c1681b933f6cb9f3376673440d862a60245260445ffd5b5f81815260036020908152604080832033845290915290205460ff16156123de5750565b63e2517d3f60e01b5f523360045260245260445ffd5b60ff6004541661240057565b63d93c066560e01b5f5260045ffd5b6001600160a01b03811693929091908415611a495761244b60405192600184526020840152604083019160018352606084015260808301604052565b92815184519081810361254b5750505f5b8251811015612499578060019160051b61249161070187610b1f602080868b010151958c010151945f525f60205260405f2090565b90550161245c565b5092919360018251145f14612510576020828101518482015160408051928352928201525f9133917fc3d58168c5ae7397731d063d5bbf3d657854427343f4c083240f7aacaa2d0f629190a45b805160010361250557906020806103e995930151910151915f33612bad565b6103e9935f33612a7e565b5f6040517f4a39dc06d4c0dbc64b70af90fd698a233a518aa5d07e595d983b8c0526c8f7fb3391806125438888836129c2565b0390a46124e6565b635b05999160e01b5f5260045260245260445ffd5b916001600160a01b038316918215611a3757600161259b60405192600184526020840152604083019160018352606084015260808301604052565b91906020915f6040516125ae85826103b8565b52815184519081810361254b5750505f5b825181101561264f578060051b8480828601015191870101516125ed89610b1f845f525f60205260405f2090565b548181106126185789610b1f60019594936126119303935f525f60205260405f2090565b55016125bf565b6040516303dee4c560e01b81526001600160a01b038b16600482015260248101919091526044810182905260648101839052608490fd5b50945090915f9392600183511485146126a6579182015191015160408051928352602083019190915233917fc3d58168c5ae7397731d063d5bbf3d657854427343f4c083240f7aacaa2d0f6291819081015b0390a4565b506126a17f4a39dc06d4c0dbc64b70af90fd698a233a518aa5d07e595d983b8c0526c8f7fb916040519182913395836129c2565b5f8181526003602090815260408083206001600160a01b038616845290915290205460ff1661221a575f8181526003602090815260408083206001600160a01b03861684529091529020805460ff1916600117905533916001600160a01b0316907f2f8788117e7eff1d82e926ec794901d17c78024a50270940304540a733656f0d5f80a4600190565b5f8181526003602090815260408083206001600160a01b038616845290915290205460ff161561221a575f8181526003602090815260408083206001600160a01b03861684529091529020805460ff1916905533916001600160a01b0316907ff6391f5c32d9c69d2a47ea670b442974b53935d1edc7fd64eb21e047a839171b5f80a4600190565b949392909193845182519081810361254b5750506001600160a01b038681169586151595918516801515939192905f5b84518110156128f5578060051b90898988602080868b010151958c01015192612874575b93600194612852575b5050500161281c565b61286a91610b1f610701925f525f60205260405f2090565b90555f8981612849565b5050909161288d8d610b1f835f525f60205260405f2090565b548281106128be578291898f6128b5600197968f950391610b1f855f525f60205260405f2090565b55909450612840565b6040516303dee4c560e01b81526001600160a01b038f16600482015260248101919091526044810183905260648101829052608490fd5b5091989593929790965060018851145f146129885760208881015186820151604080519283529282015233917fc3d58168c5ae7397731d063d5bbf3d657854427343f4c083240f7aacaa2d0f6291a45b612951575b5050505050565b84516001036129775760208061296d9601519201519233612bad565b5f8080808061294a565b61298394919233612a7e565b61296d565b6040517f4a39dc06d4c0dbc64b70af90fd698a233a518aa5d07e595d983b8c0526c8f7fb3391806129ba898d836129c2565b0390a4612945565b90916129d961107a93604084526040840190611036565b916020818403910152611036565b90816020910312610299575161107a816102e9565b6001600160a01b0391821681529116602082015260a06040820181905261107a9491939192612a419291612a339190860190611036565b908482036060860152611036565b91608081840391015261060c565b3d15612a79573d90612a60826103fa565b91612a6e60405193846103b8565b82523d5f602084013e565b606090565b9091949293853b612a92575b505050505050565b602093612ab491604051968795869563bc197c8160e01b8752600487016129fc565b03815f6001600160a01b0387165af15f9181612b43575b50612b055750612ad9612a4f565b8051919082612afe57632bfa23e760e11b5f526001600160a01b03821660045260245ffd5b6020915001fd5b6001600160e01b0319166343e6837f60e01b01612b2857505f8080808080612a8a565b632bfa23e760e11b5f526001600160a01b031660045260245ffd5b612b6691925060203d602011612b6d575b612b5e81836103b8565b8101906129e7565b905f612acb565b503d612b54565b6001600160a01b039182168152911660208201526040810191909152606081019190915260a06080820181905261107a9291019061060c565b9091949293853b612bc057505050505050565b602093612be291604051968795869563f23a6e6160e01b875260048701612b74565b03815f6001600160a01b0387165af15f9181612c2a575b50612c075750612ad9612a4f565b6001600160e01b031916630dc5919f60e01b01612b2857505f8080808080612a8a565b612c4491925060203d602011612b6d57612b5e81836103b8565b905f612bf956fea2646970667358221220c9690c3c20d3e0f4b665325825f090e15755a753cd882573e8ef96d1524f8cde64736f6c634300081e00332f8788117e7eff1d82e926ec794901d17c78024a50270940304540a733656f0d30adeb818ef77f204f5a603c30fa5332397b6e28fb3b7f9d937ae6a6914716de5562e70da342db81569f3094d36be279beaca7ad8e08f434ea188e79d2bfe10c3617319a054d772f909f7c479a2cebe5066e836a939412e32403c99029b92eff","linkReferences":{}},"methodIdentifiers":{"BPS_DENOMINATOR()":"e1a45218","DEFAULT_ADMIN_ROLE()":"a217fddf","MAX_BOOST_BPS()":"3d9a581a","MINTER_ROLE()":"d5391393","PAUSER_ROLE()":"e63ab1e9","balanceOf(address,uint256)":"00fdd58e","balanceOfBatch(address[],uint256[])":"4e1273f4","batchMint(uint256,address[],uint256[])":"1dbeeb4e","couponTypes(uint256)":"dffdfcee","createCouponType(uint256,uint8,uint256,uint256,uint256,uint256,string)":"294f776c","getCouponStatus(address,uint256)":"cec3ae24","getRoleAdmin(bytes32)":"248a9ca3","getUsageDetail(uint256)":"3497298a","getUserUsageHistory(address)":"3d482196","grantRole(bytes32,address)":"2f2ff15d","hasRole(bytes32,address)":"91d14854","isApprovedForAll(address,address)":"e985e9c5","isCouponValid(address,uint256,uint256,uint8)":"8edd9a96","mint(address,uint256,uint256)":"156e29f6","nextCouponTypeId()":"4d7388ee","pause()":"8456cb59","paused()":"5c975abb","previewBoostedOdds(uint256,uint256)":"4fbf4173","renounceRole(bytes32,address)":"36568abe","revokeRole(bytes32,address)":"d547741f","safeBatchTransferFrom(address,address,uint256[],uint256[],bytes)":"2eb2c2d6","safeTransferFrom(address,address,uint256,uint256,bytes)":"f242432a","setApprovalForAll(address,bool)":"a22cb465","setCouponTypeStatus(uint256,bool)":"0b0d2ae9","setURI(string)":"02fe5305","supportsInterface(bytes4)":"01ffc9a7","totalSupply(uint256)":"bd85b039","totalUsed(uint256)":"bb34c453","unpause()":"3f4ba83a","uri(uint256)":"0e89341c","usageHistory(uint256)":"6b584919","useCoupon(address,uint256,address,uint256,uint256,uint8)":"2d42b6bd","usedCount(address,uint256)":"4eab8a81","userUsageHistory(address,uint256)":"e162c281"},"id":40}