{"abi":[{"type":"constructor","inputs":[{"name":"uri","type":"string","internalType":"string"}],"stateMutability":"nonpayable"},{"type":"function","name":"BPS_DENOMINATOR","inputs":[],"outputs":[{"name":"","type":"uint256","internalType":"uint256"}],"stateMutability":"view"},{"type":"function","name":"DEFAULT_ADMIN_ROLE","inputs":[],"outputs":[{"name":"","type":"bytes32","internalType":"bytes32"}],"stateMutability":"view"},{"type":"function","name":"MINTER_ROLE","inputs":[],"outputs":[{"name":"","type":"bytes32","internalType":"bytes32"}],"stateMutability":"view"},{"type":"function","name":"PAUSER_ROLE","inputs":[],"outputs":[{"name":"","type":"bytes32","internalType":"bytes32"}],"stateMutability":"view"},{"type":"function","name":"balanceOf","inputs":[{"name":"account","type":"address","internalType":"address"},{"name":"id","type":"uint256","internalType":"uint256"}],"outputs":[{"name":"","type":"uint256","internalType":"uint256"}],"stateMutability":"view"},{"type":"function","name":"balanceOfBatch","inputs":[{"name":"accounts","type":"address[]","internalType":"address[]"},{"name":"ids","type":"uint256[]","internalType":"uint256[]"}],"outputs":[{"name":"","type":"uint256[]","internalType":"uint256[]"}],"stateMutability":"view"},{"type":"function","name":"batchMint","inputs":[{"name":"creditTypeId","type":"uint256","internalType":"uint256"},{"name":"recipients","type":"address[]","internalType":"address[]"},{"name":"amounts","type":"uint256[]","internalType":"uint256[]"}],"outputs":[],"stateMutability":"nonpayable"},{"type":"function","name":"createCreditType","inputs":[{"name":"value","type":"uint256","internalType":"uint256"},{"name":"discountBps","type":"uint256","internalType":"uint256"},{"name":"expiresAt","type":"uint256","internalType":"uint256"},{"name":"maxUses","type":"uint256","internalType":"uint256"},{"name":"metadata","type":"string","internalType":"string"}],"outputs":[{"name":"creditTypeId","type":"uint256","internalType":"uint256"}],"stateMutability":"nonpayable"},{"type":"function","name":"creditTypes","inputs":[{"name":"","type":"uint256","internalType":"uint256"}],"outputs":[{"name":"value","type":"uint256","internalType":"uint256"},{"name":"discountBps","type":"uint256","internalType":"uint256"},{"name":"expiresAt","type":"uint256","internalType":"uint256"},{"name":"maxUses","type":"uint256","internalType":"uint256"},{"name":"isActive","type":"bool","internalType":"bool"},{"name":"metadata","type":"string","internalType":"string"}],"stateMutability":"view"},{"type":"function","name":"getAvailableDiscount","inputs":[{"name":"user","type":"address","internalType":"address"},{"name":"creditTypeId","type":"uint256","internalType":"uint256"}],"outputs":[{"name":"availableDiscount","type":"uint256","internalType":"uint256"}],"stateMutability":"view"},{"type":"function","name":"getCreditStatus","inputs":[{"name":"user","type":"address","internalType":"address"},{"name":"creditTypeId","type":"uint256","internalType":"uint256"}],"outputs":[{"name":"balance","type":"uint256","internalType":"uint256"},{"name":"used","type":"uint256","internalType":"uint256"},{"name":"maxUses","type":"uint256","internalType":"uint256"}],"stateMutability":"view"},{"type":"function","name":"getRoleAdmin","inputs":[{"name":"role","type":"bytes32","internalType":"bytes32"}],"outputs":[{"name":"","type":"bytes32","internalType":"bytes32"}],"stateMutability":"view"},{"type":"function","name":"grantRole","inputs":[{"name":"role","type":"bytes32","internalType":"bytes32"},{"name":"account","type":"address","internalType":"address"}],"outputs":[],"stateMutability":"nonpayable"},{"type":"function","name":"hasRole","inputs":[{"name":"role","type":"bytes32","internalType":"bytes32"},{"name":"account","type":"address","internalType":"address"}],"outputs":[{"name":"","type":"bool","internalType":"bool"}],"stateMutability":"view"},{"type":"function","name":"isApprovedForAll","inputs":[{"name":"account","type":"address","internalType":"address"},{"name":"operator","type":"address","internalType":"address"}],"outputs":[{"name":"","type":"bool","internalType":"bool"}],"stateMutability":"view"},{"type":"function","name":"isCreditValid","inputs":[{"name":"creditTypeId","type":"uint256","internalType":"uint256"}],"outputs":[{"name":"isValid","type":"bool","internalType":"bool"}],"stateMutability":"view"},{"type":"function","name":"mint","inputs":[{"name":"to","type":"address","internalType":"address"},{"name":"creditTypeId","type":"uint256","internalType":"uint256"},{"name":"amount","type":"uint256","internalType":"uint256"}],"outputs":[],"stateMutability":"nonpayable"},{"type":"function","name":"nextCreditTypeId","inputs":[],"outputs":[{"name":"","type":"uint256","internalType":"uint256"}],"stateMutability":"view"},{"type":"function","name":"pause","inputs":[],"outputs":[],"stateMutability":"nonpayable"},{"type":"function","name":"paused","inputs":[],"outputs":[{"name":"","type":"bool","internalType":"bool"}],"stateMutability":"view"},{"type":"function","name":"renounceRole","inputs":[{"name":"role","type":"bytes32","internalType":"bytes32"},{"name":"callerConfirmation","type":"address","internalType":"address"}],"outputs":[],"stateMutability":"nonpayable"},{"type":"function","name":"revokeRole","inputs":[{"name":"role","type":"bytes32","internalType":"bytes32"},{"name":"account","type":"address","internalType":"address"}],"outputs":[],"stateMutability":"nonpayable"},{"type":"function","name":"safeBatchTransferFrom","inputs":[{"name":"from","type":"address","internalType":"address"},{"name":"to","type":"address","internalType":"address"},{"name":"ids","type":"uint256[]","internalType":"uint256[]"},{"name":"values","type":"uint256[]","internalType":"uint256[]"},{"name":"data","type":"bytes","internalType":"bytes"}],"outputs":[],"stateMutability":"nonpayable"},{"type":"function","name":"safeTransferFrom","inputs":[{"name":"from","type":"address","internalType":"address"},{"name":"to","type":"address","internalType":"address"},{"name":"id","type":"uint256","internalType":"uint256"},{"name":"value","type":"uint256","internalType":"uint256"},{"name":"data","type":"bytes","internalType":"bytes"}],"outputs":[],"stateMutability":"nonpayable"},{"type":"function","name":"setApprovalForAll","inputs":[{"name":"operator","type":"address","internalType":"address"},{"name":"approved","type":"bool","internalType":"bool"}],"outputs":[],"stateMutability":"nonpayable"},{"type":"function","name":"setCreditTypeStatus","inputs":[{"name":"creditTypeId","type":"uint256","internalType":"uint256"},{"name":"isActive","type":"bool","internalType":"bool"}],"outputs":[],"stateMutability":"nonpayable"},{"type":"function","name":"setURI","inputs":[{"name":"newUri","type":"string","internalType":"string"}],"outputs":[],"stateMutability":"nonpayable"},{"type":"function","name":"supportsInterface","inputs":[{"name":"interfaceId","type":"bytes4","internalType":"bytes4"}],"outputs":[{"name":"","type":"bool","internalType":"bool"}],"stateMutability":"view"},{"type":"function","name":"totalSupply","inputs":[{"name":"","type":"uint256","internalType":"uint256"}],"outputs":[{"name":"","type":"uint256","internalType":"uint256"}],"stateMutability":"view"},{"type":"function","name":"totalUsed","inputs":[{"name":"","type":"uint256","internalType":"uint256"}],"outputs":[{"name":"","type":"uint256","internalType":"uint256"}],"stateMutability":"view"},{"type":"function","name":"unpause","inputs":[],"outputs":[],"stateMutability":"nonpayable"},{"type":"function","name":"uri","inputs":[{"name":"creditTypeId","type":"uint256","internalType":"uint256"}],"outputs":[{"name":"","type":"string","internalType":"string"}],"stateMutability":"view"},{"type":"function","name":"useCredit","inputs":[{"name":"user","type":"address","internalType":"address"},{"name":"creditTypeId","type":"uint256","internalType":"uint256"},{"name":"amount","type":"uint256","internalType":"uint256"}],"outputs":[{"name":"discountValue","type":"uint256","internalType":"uint256"}],"stateMutability":"nonpayable"},{"type":"function","name":"usedCount","inputs":[{"name":"","type":"address","internalType":"address"},{"name":"","type":"uint256","internalType":"uint256"}],"outputs":[{"name":"","type":"uint256","internalType":"uint256"}],"stateMutability":"view"},{"type":"event","name":"ApprovalForAll","inputs":[{"name":"account","type":"address","indexed":true,"internalType":"address"},{"name":"operator","type":"address","indexed":true,"internalType":"address"},{"name":"approved","type":"bool","indexed":false,"internalType":"bool"}],"anonymous":false},{"type":"event","name":"CreditBatchMinted","inputs":[{"name":"creditTypeId","type":"uint256","indexed":true,"internalType":"uint256"},{"name":"recipients","type":"address[]","indexed":false,"internalType":"address[]"},{"name":"amounts","type":"uint256[]","indexed":false,"internalType":"uint256[]"},{"name":"totalAmount","type":"uint256","indexed":false,"internalType":"uint256"}],"anonymous":false},{"type":"event","name":"CreditTypeCreated","inputs":[{"name":"creditTypeId","type":"uint256","indexed":true,"internalType":"uint256"},{"name":"value","type":"uint256","indexed":false,"internalType":"uint256"},{"name":"discountBps","type":"uint256","indexed":false,"internalType":"uint256"},{"name":"expiresAt","type":"uint256","indexed":false,"internalType":"uint256"},{"name":"maxUses","type":"uint256","indexed":false,"internalType":"uint256"}],"anonymous":false},{"type":"event","name":"CreditTypeStatusUpdated","inputs":[{"name":"creditTypeId","type":"uint256","indexed":true,"internalType":"uint256"},{"name":"isActive","type":"bool","indexed":false,"internalType":"bool"}],"anonymous":false},{"type":"event","name":"CreditUsed","inputs":[{"name":"user","type":"address","indexed":true,"internalType":"address"},{"name":"creditTypeId","type":"uint256","indexed":true,"internalType":"uint256"},{"name":"amount","type":"uint256","indexed":false,"internalType":"uint256"},{"name":"discountValue","type":"uint256","indexed":false,"internalType":"uint256"}],"anonymous":false},{"type":"event","name":"Paused","inputs":[{"name":"account","type":"address","indexed":false,"internalType":"address"}],"anonymous":false},{"type":"event","name":"RoleAdminChanged","inputs":[{"name":"role","type":"bytes32","indexed":true,"internalType":"bytes32"},{"name":"previousAdminRole","type":"bytes32","indexed":true,"internalType":"bytes32"},{"name":"newAdminRole","type":"bytes32","indexed":true,"internalType":"bytes32"}],"anonymous":false},{"type":"event","name":"RoleGranted","inputs":[{"name":"role","type":"bytes32","indexed":true,"internalType":"bytes32"},{"name":"account","type":"address","indexed":true,"internalType":"address"},{"name":"sender","type":"address","indexed":true,"internalType":"address"}],"anonymous":false},{"type":"event","name":"RoleRevoked","inputs":[{"name":"role","type":"bytes32","indexed":true,"internalType":"bytes32"},{"name":"account","type":"address","indexed":true,"internalType":"address"},{"name":"sender","type":"address","indexed":true,"internalType":"address"}],"anonymous":false},{"type":"event","name":"TransferBatch","inputs":[{"name":"operator","type":"address","indexed":true,"internalType":"address"},{"name":"from","type":"address","indexed":true,"internalType":"address"},{"name":"to","type":"address","indexed":true,"internalType":"address"},{"name":"ids","type":"uint256[]","indexed":false,"internalType":"uint256[]"},{"name":"values","type":"uint256[]","indexed":false,"internalType":"uint256[]"}],"anonymous":false},{"type":"event","name":"TransferSingle","inputs":[{"name":"operator","type":"address","indexed":true,"internalType":"address"},{"name":"from","type":"address","indexed":true,"internalType":"address"},{"name":"to","type":"address","indexed":true,"internalType":"address"},{"name":"id","type":"uint256","indexed":false,"internalType":"uint256"},{"name":"value","type":"uint256","indexed":false,"internalType":"uint256"}],"anonymous":false},{"type":"event","name":"URI","inputs":[{"name":"value","type":"string","indexed":false,"internalType":"string"},{"name":"id","type":"uint256","indexed":true,"internalType":"uint256"}],"anonymous":false},{"type":"event","name":"Unpaused","inputs":[{"name":"account","type":"address","indexed":false,"internalType":"address"}],"anonymous":false},{"type":"error","name":"AccessControlBadConfirmation","inputs":[]},{"type":"error","name":"AccessControlUnauthorizedAccount","inputs":[{"name":"account","type":"address","internalType":"address"},{"name":"neededRole","type":"bytes32","internalType":"bytes32"}]},{"type":"error","name":"CreditExpired","inputs":[]},{"type":"error","name":"CreditNotActive","inputs":[]},{"type":"error","name":"ERC1155InsufficientBalance","inputs":[{"name":"sender","type":"address","internalType":"address"},{"name":"balance","type":"uint256","internalType":"uint256"},{"name":"needed","type":"uint256","internalType":"uint256"},{"name":"tokenId","type":"uint256","internalType":"uint256"}]},{"type":"error","name":"ERC1155InvalidApprover","inputs":[{"name":"approver","type":"address","internalType":"address"}]},{"type":"error","name":"ERC1155InvalidArrayLength","inputs":[{"name":"idsLength","type":"uint256","internalType":"uint256"},{"name":"valuesLength","type":"uint256","internalType":"uint256"}]},{"type":"error","name":"ERC1155InvalidOperator","inputs":[{"name":"operator","type":"address","internalType":"address"}]},{"type":"error","name":"ERC1155InvalidReceiver","inputs":[{"name":"receiver","type":"address","internalType":"address"}]},{"type":"error","name":"ERC1155InvalidSender","inputs":[{"name":"sender","type":"address","internalType":"address"}]},{"type":"error","name":"ERC1155MissingApprovalForAll","inputs":[{"name":"operator","type":"address","internalType":"address"},{"name":"owner","type":"address","internalType":"address"}]},{"type":"error","name":"EnforcedPause","inputs":[]},{"type":"error","name":"ExpectedPause","inputs":[]},{"type":"error","name":"InsufficientCredit","inputs":[]},{"type":"error","name":"InvalidArrayLength","inputs":[]},{"type":"error","name":"InvalidCreditType","inputs":[]},{"type":"error","name":"InvalidDiscountBps","inputs":[]},{"type":"error","name":"MaxUsesExceeded","inputs":[]},{"type":"error","name":"ZeroAddress","inputs":[]}],"bytecode":{"object":"0x608060405234610217576129e5803803806100198161021b565b928339810190602081830312610217578051906001600160401b038211610217570181601f82011215610217578051906001600160401b0382116102035761006a601f8301601f191660200161021b565b928284526020838301011161021757815f9260208093018386015e8301015280516001600160401b03811161020357600254600181811c911680156101f9575b60208210146101e557601f8111610182575b50602091601f8211600114610122579181925f92610117575b50508160011b915f199060031b1c1916176002555b6100f333610240565b506100fd336102b6565b5061010733610349565b5060405161258890816103dd8239f35b015190505f806100d5565b601f1982169260025f52805f20915f5b85811061016a57508360019510610152575b505050811b016002556100ea565b01515f1960f88460031b161c191690555f8080610144565b91926020600181928685015181550194019201610132565b60025f527f405787fa12a823e0f2b7631cc41b3ba8828b3321ca811111fa75cd3aa3bb5ace601f830160051c810191602084106101db575b601f0160051c01905b8181106101d057506100bc565b5f81556001016101c3565b90915081906101ba565b634e487b7160e01b5f52602260045260245ffd5b90607f16906100aa565b634e487b7160e01b5f52604160045260245ffd5b5f80fd5b6040519190601f01601f191682016001600160401b0381118382101761020357604052565b6001600160a01b0381165f9081525f5160206129c55f395f51905f52602052604090205460ff166102b1576001600160a01b03165f8181525f5160206129c55f395f51905f5260205260408120805460ff191660011790553391905f5160206129655f395f51905f528180a4600190565b505f90565b6001600160a01b0381165f9081525f5160206129a55f395f51905f52602052604090205460ff166102b1576001600160a01b03165f8181525f5160206129a55f395f51905f5260205260408120805460ff191660011790553391907f9f2df0fed2c77648de5860a4cc508cd0818c85b8b8a1ab4ceeef8d981c8956a6905f5160206129655f395f51905f529080a4600190565b6001600160a01b0381165f9081525f5160206129855f395f51905f52602052604090205460ff166102b1576001600160a01b03165f8181525f5160206129855f395f51905f5260205260408120805460ff191660011790553391907f65d7a28e3265b37a6474929f336521b332c1681b933f6cb9f3376673440d862a905f5160206129655f395f51905f529080a460019056fe60806040526004361015610011575f80fd5b5f3560e01c8062fdd58e1461023357806301ffc9a71461022e57806302fe53051461022957806305a42ce3146102245780630e89341c1461021f578063156e29f61461021a5780631dbeeb4e14610215578063248a9ca3146102105780632e5ef6361461020b5780632eb2c2d6146102065780632f2ff15d1461020157806336568abe146101fc5780633f4ba83a146101f75780634e1273f4146101f25780634eab8a81146101ed578063525f4e56146101e85780635c975abb146101e35780638456cb59146101de57806391d14854146101d9578063a217fddf146101d4578063a22cb465146101cf578063ad4241da146101ca578063aeab8563146101c5578063bb34c453146101c0578063bc655165146101bb578063bd85b039146101b6578063c31fcbdd146101b1578063d5391393146101ac578063d547741f146101a7578063e1a45218146101a2578063e63ab1e91461019d578063e985e9c514610198578063f242432a146101935763fe2770ad1461018e575f80fd5b611460565b611352565b6112fa565b6112c0565b6112a4565b611263565b611229565b6111fe565b6111d4565b610fbc565b610f92565b610f19565b610dcb565b610d19565b610cff565b610cad565b610c54565b610c32565b610c15565b610bcc565b610b0b565b610a5e565b610a16565b6109d0565b61093c565b6108a0565b61086d565b6106ee565b61060f565b6105b5565b610502565b6103de565b6102ab565b61024d565b6001600160a01b0381160361024957565b5f80fd5b3461024957604036600319011261024957602061029060043561026f81610238565b6024355f525f835260405f209060018060a01b03165f5260205260405f2090565b54604051908152f35b6001600160e01b031981160361024957565b34610249576020366003190112610249576004356102c881610299565b63ffffffff60e01b16637965db0b60e01b81149081156102f1575b506040519015158152602090f35b636cdb3d1360e11b811491508115610323575b8115610312575b505f6102e3565b6301ffc9a760e01b1490505f61030b565b6303a24d0760e21b81149150610304565b634e487b7160e01b5f52604160045260245ffd5b90601f801991011681019081106001600160401b0382111761036957604052565b610334565b6040519061037d60c083610348565b565b6001600160401b03811161036957601f01601f191660200190565b81601f82011215610249576020813591016103b48261037f565b926103c26040519485610348565b8284528282011161024957815f92602092838601378301015290565b34610249576020366003190112610249576004356001600160401b0381116102495761040e90369060040161039a565b610416611b93565b80516001600160401b0381116103695761043a81610435600254610e43565b6119ea565b602091601f821160011461047857610468925f918361046d575b50508160011b915f199060031b1c19161790565b600255005b015190505f80610454565b60025f52601f198216927f405787fa12a823e0f2b7631cc41b3ba8828b3321ca811111fa75cd3aa3bb5ace915f5b8581106104db575083600195106104c3575b505050811b01600255005b01515f1960f88460031b161c191690555f80806104b8565b919260206001819286850151815501940192016104a6565b60243590811515820361024957565b346102495760403660031901126102495760043561051e6104f3565b610526611b93565b6007548210156105825760207f055d0e00c4445eed6699e8b14164720aec3849cb6708c1995c056edd685b03f791835f526005825261057781600460405f20019060ff801983541691151516179055565b6040519015158152a2005b630dcf2e9360e01b5f5260045ffd5b805180835260209291819084018484015e5f828201840152601f01601f1916010190565b34610249576020366003190112610249576105e86105d4600435611599565b604051918291602083526020830190610591565b0390f35b60609060031901126102495760043561060481610238565b906024359060443590565b346102495761061d366105ec565b91610626611be2565b61062e611cfa565b6001600160a01b038116156106af5760075482101561058257815f526005602052610667610663600460405f20015460ff1690565b1590565b6106a05781610686610694928561069c95610680611585565b92611d15565b5f52600860205260405f2090565b91825461169c565b9055005b6338e18b5160e11b5f5260045ffd5b63d92e233d60e01b5f5260045ffd5b9181601f84011215610249578235916001600160401b038311610249576020808501948460051b01011161024957565b34610249576060366003190112610249576004356024356001600160401b038111610249576107219036906004016106be565b6044929192356001600160401b038111610249576107439036906004016106be565b61074e949194611be2565b610756611cfa565b80830361085e57600754841015610582576107896106636004610781875f52600560205260405f2090565b015460ff1690565b6106a0575f905f5b8481106107f15750906107ec9185966107d37fcf10df50484884a9155827b82f08f391081b2258edb5f8a194d4f3b96dcf3b3f975f52600860205260405f2090565b6107de84825461169c565b9055604051958695866116dc565b0390a2005b916108146108086108038588886116bd565b6116d2565b6001600160a01b031690565b156106af57610857600191610845610830610803878a8a6116bd565b61083b87878d6116bd565b358a610680611585565b61085085858b6116bd565b359061169c565b9201610791565b634ec4810560e11b5f5260045ffd5b346102495760203660031901126102495760206108986004355f526003602052600160405f20015490565b604051908152f35b346102495760203660031901126102495760206108be600435611758565b6040519015158152f35b6001600160401b0381116103695760051b60200190565b9080601f830112156102495781356108f6816108c8565b926109046040519485610348565b81845260208085019260051b82010192831161024957602001905b82821061092c5750505090565b813581526020918201910161091f565b346102495760a03660031901126102495760043561095981610238565b6024359061096682610238565b6044356001600160401b038111610249576109859036906004016108df565b6064356001600160401b038111610249576109a49036906004016108df565b90608435936001600160401b038511610249576109c86109ce95369060040161039a565b936117a5565b005b34610249576040366003190112610249576109ce6024356004356109f382610238565b610a11610a0c825f526003602052600160405f20015490565b611cc0565b611e66565b3461024957604036600319011261024957600435602435610a3681610238565b336001600160a01b03821603610a4f576109ce91611ef0565b63334bd91960e11b5f5260045ffd5b34610249575f36600319011261024957610a76611c51565b60045460ff811615610ab55760ff19166004557f5db9ee0a495bf2e6ff9c91a7834c1ba4fdd244a5e8aa4e537bd38aeae4b073aa6020604051338152a1005b638dfc202b60e01b5f5260045ffd5b90602080835192838152019201905f5b818110610ae15750505090565b8251845260209384019390920191600101610ad4565b906020610b08928181520190610ac4565b90565b34610249576040366003190112610249576004356001600160401b038111610249573660238201121561024957806004013590610b47826108c8565b91610b556040519384610348565b8083526024602084019160051b8301019136831161024957602401905b828210610bb257836024356001600160401b038111610249576105e891610ba0610ba69236906004016108df565b90611815565b60405191829182610af7565b602080918335610bc181610238565b815201910190610b72565b3461024957604036600319011261024957600435610be981610238565b6024359060018060a01b03165f52600660205260405f20905f52602052602060405f2054604051908152f35b34610249575f366003190112610249576020600754604051908152f35b34610249575f36600319011261024957602060ff600454166040519015158152f35b34610249575f36600319011261024957610c6c611c51565b610c74611cfa565b600160ff1960045416176004557f62e78cea01bee320cd4e420270b5ea74000d11b0c9f74754ebdbfc544b05a2586020604051338152a1005b3461024957604036600319011261024957602060ff610cf3602435600435610cd482610238565b5f526003845260405f209060018060a01b03165f5260205260405f2090565b54166040519015158152f35b34610249575f3660031901126102495760206040515f8152f35b3461024957604036600319011261024957600435610d3681610238565b610d3e6104f3565b6001600160a01b038216918215610db95781610d78610d8992335f52600160205260405f209060018060a01b03165f5260205260405f2090565b9060ff801983541691151516179055565b60405190151581527f17307eab39ab6107e8899845ad3d59bd9653f200f220920489ca2b5937696c3160203392a3005b62ced3e160e81b5f525f60045260245ffd5b3461024957604036600319011261024957600435610de881610238565b6024355f818152602081815260408083206001600160a01b0395909516835293815283822054600682528483209383529281528382205460058252918490206003015484519384529083019190915291810191909152606090f35b90600182811c92168015610e71575b6020831014610e5d57565b634e487b7160e01b5f52602260045260245ffd5b91607f1691610e52565b9060405191825f825492610e8e84610e43565b8084529360018116908115610ef75750600114610eb3575b5061037d92500383610348565b90505f9291925260205f20905f915b818310610edb57505090602061037d928201015f610ea6565b6020919350806001915483858901015201910190918492610ec2565b90506020925061037d94915060ff191682840152151560051b8201015f610ea6565b34610249576020366003190112610249576004355f52600560205260405f2080546105e86001830154926002810154906003810154610f62600560ff6004850154169301610e7b565b9260405196879687526020870152604086015260608501521515608084015260c060a084015260c0830190610591565b34610249576020366003190112610249576004355f526009602052602060405f2054604051908152f35b3461024957610fca366105ec565b9190610fd4611be2565b610fdc611cfa565b60075481101561058257610ff8815f52600560205260405f2090565b9261100a610663600486015460ff1690565b6106a057600284015480151590816111ca575b506111bb578061104d84611038855f525f60205260405f2090565b9060018060a01b03165f5260205260405f2090565b54106111ac576003840154806110fe575b507f06c243c413275fc90e61338ed8cb8f0831d932ea789d5566c5efe9f78752990b6110b36110ab836110a66105e89861109983898b611f78565b60018154910154906118c9565b6118c9565b612710900490565b80946110c7855f52600960205260405f2090565b6110d285825461169c565b90556040805194855260208501929092526001600160a01b031692a36040519081529081906020820190565b6111338261112d856111208860018060a01b03165f52600660205260405f2090565b905f5260205260405f2090565b5461169c565b1161119d577f06c243c413275fc90e61338ed8cb8f0831d932ea789d5566c5efe9f78752990b6110b36110ab836110a66105e898611185886111208b60018060a01b03165f52600660205260405f2090565b61119084825461169c565b905598505050505061105e565b63ea7b358b60e01b5f5260045ffd5b638ac4bc7360e01b5f5260045ffd5b639e24596d60e01b5f5260045ffd5b905042115f61101d565b34610249576020366003190112610249576004355f526008602052602060405f2054604051908152f35b3461024957604036600319011261024957602061089860043561122081610238565b602435906118e9565b34610249575f3660031901126102495760206040517f9f2df0fed2c77648de5860a4cc508cd0818c85b8b8a1ab4ceeef8d981c8956a68152f35b34610249576040366003190112610249576109ce60243560043561128682610238565b61129f610a0c825f526003602052600160405f20015490565b611ef0565b34610249575f3660031901126102495760206040516127108152f35b34610249575f3660031901126102495760206040517f65d7a28e3265b37a6474929f336521b332c1681b933f6cb9f3376673440d862a8152f35b3461024957604036600319011261024957602060ff610cf360043561131e81610238565b6024359061132b82610238565b60018060a01b03165f526001845260405f209060018060a01b03165f5260205260405f2090565b346102495760a03660031901126102495760043561136f81610238565b60243561137b81610238565b60443590606435926084356001600160401b038111610249576113a290369060040161039a565b926001600160a01b038216338114158061143d575b611427576001600160a01b038416156114145715611402576109ce946113fa60405192600184526020840152604083019160018352606084015260808301604052565b9290916120f3565b626a0d4560e21b5f525f60045260245ffd5b632bfa23e760e11b5f525f60045260245ffd5b63711bec9160e11b5f523360045260245260445ffd5b505f81815260016020908152604080832033845290915290205460ff16156113b7565b346102495760a0366003190112610249576024356004356064356044356084356001600160401b0381116102495761149c90369060040161039a565b936114a5611b93565b612710811161157657600754935f1985146115715761155e85947f86cf0778adfa1b50cba96d5f9a553160bc660c154b40b6f83f5f9767cac0da659461153b6105e8996114f460018a01600755565b6114fc61036e565b9086825287602083015283604083015284606083015261151f6080830160019052565b60a0820152611536895f52600560205260405f2090565b611a89565b604051948594859094939260609260808301968352602083015260408201520152565b0390a26040519081529081906020820190565b611688565b6315a154e960e11b5f5260045ffd5b60405190611594602083610348565b5f8252565b600754811015611673575f5260056020526115b9600560405f2001610e7b565b8051610b085750604051600254815f6115d183610e43565b808352926001811690811561165457506001146115f5575b610b0892500382610348565b5060025f90815290917f405787fa12a823e0f2b7631cc41b3ba8828b3321ca811111fa75cd3aa3bb5ace5b818310611638575050906020610b08928201016115e9565b6020919350806001915483858801015201910190918392611620565b60209250610b0894915060ff191682840152151560051b8201016115e9565b50604051611682602082610348565b5f815290565b634e487b7160e01b5f52601160045260245ffd5b9190820180921161157157565b634e487b7160e01b5f52603260045260245ffd5b91908110156116cd5760051b0190565b6116a9565b35610b0881610238565b95949391929092806060880160608952526080870193905f5b81811061172e5750505085830360208701528183526001600160fb1b0382116102495760409260209260051b8092848301370101930152565b909194602080600192883561174281610238565b848060a01b0316815201960191019190916116f5565b6007548110156117a0575f52600560205260405f2060ff600482015416156117a057600201548015159081611796575b5061179257600190565b5f90565b905042115f611788565b505f90565b939291906001600160a01b03851633811415806117de575b611427576001600160a01b0382161561141457156114025761037d946120f3565b505f81815260016020908152604080832033845290915290205460ff16156117bd565b80518210156116cd5760209160051b010190565b919091805183518082036118b4575050805190611831826108c8565b9161183f6040519384610348565b80835261184e601f19916108c8565b013660208401375f5b81518110156118ad578061189c60019260051b60208082870101519189010151905f918252602082815260408084206001600160a01b03909316845291905290205490565b6118a68286611801565b5201611857565b5090925050565b635b05999160e01b5f5260045260245260445ffd5b8181029291811591840414171561157157565b9190820391821161157157565b6007548210156119e457611905825f52600560205260405f2090565b90611917610663600484015460ff1690565b6119cb57600282015480151590816119da575b506119cb5761194481611038855f525f60205260405f2090565b549283156119d25760038301549182611973575b505050610b08916110a68260016110ab9454910154906118c9565b6001600160a01b03165f90815260066020526040902061199e929161199791611120565b54906118dc565b9081156119cb576110a66110ab92610b08948181115f146119c457505b93829350611958565b90506119bb565b5050505f90565b505050505f90565b905042115f61192a565b50505f90565b601f81116119f6575050565b60025f5260205f20906020601f840160051c83019310611a30575b601f0160051c01905b818110611a25575050565b5f8155600101611a1a565b9091508190611a11565b601f8211611a4757505050565b5f5260205f20906020601f840160051c83019310611a7f575b601f0160051c01905b818110611a74575050565b5f8155600101611a69565b9091508190611a60565b600560a09193929384518155602085015160018201556040850151600282015560608501516003820155611ad260808601511515600483019060ff801983541691151516179055565b019201519182516001600160401b03811161036957611afb81611af58454610e43565b84611a3a565b6020601f8211600114611b2e578190611b2a9394955f9261046d5750508160011b915f199060031b1c19161790565b9055565b601f19821690611b41845f5260205f2090565b915f5b818110611b7b57509583600195969710611b63575b505050811b019055565b01515f1960f88460031b161c191690555f8080611b59565b9192602060018192868b015181550194019201611b44565b335f9081527f3617319a054d772f909f7c479a2cebe5066e836a939412e32403c99029b92eff602052604090205460ff1615611bcb57565b63e2517d3f60e01b5f52336004525f60245260445ffd5b335f9081527f5562e70da342db81569f3094d36be279beaca7ad8e08f434ea188e79d2bfe10c602052604090205460ff1615611c1a57565b63e2517d3f60e01b5f52336004527f9f2df0fed2c77648de5860a4cc508cd0818c85b8b8a1ab4ceeef8d981c8956a660245260445ffd5b335f9081527f30adeb818ef77f204f5a603c30fa5332397b6e28fb3b7f9d937ae6a6914716de602052604090205460ff1615611c8957565b63e2517d3f60e01b5f52336004527f65d7a28e3265b37a6474929f336521b332c1681b933f6cb9f3376673440d862a60245260445ffd5b5f81815260036020908152604080832033845290915290205460ff1615611ce45750565b63e2517d3f60e01b5f523360045260245260445ffd5b60ff60045416611d0657565b63d93c066560e01b5f5260045ffd5b6001600160a01b0381169392909190841561141457611d5160405192600184526020840152604083019160018352606084015260808301604052565b928151845190818103611e515750505f5b8251811015611d9f578060019160051b611d9761069487611038602080868b010151958c010151945f525f60205260405f2090565b905501611d62565b5092919360018251145f14611e16576020828101518482015160408051928352928201525f9133917fc3d58168c5ae7397731d063d5bbf3d657854427343f4c083240f7aacaa2d0f629190a45b8051600103611e0b579060208061037d95930151910151915f336124b4565b61037d935f33612385565b5f6040517f4a39dc06d4c0dbc64b70af90fd698a233a518aa5d07e595d983b8c0526c8f7fb339180611e498888836122c9565b0390a4611dec565b635b05999160e01b5f5260045260245260445ffd5b5f8181526003602090815260408083206001600160a01b038616845290915290205460ff166119e4575f8181526003602090815260408083206001600160a01b03861684529091529020805460ff1916600117905533916001600160a01b0316907f2f8788117e7eff1d82e926ec794901d17c78024a50270940304540a733656f0d5f80a4600190565b5f8181526003602090815260408083206001600160a01b038616845290915290205460ff16156119e4575f8181526003602090815260408083206001600160a01b03861684529091529020805460ff1916905533916001600160a01b0316907ff6391f5c32d9c69d2a47ea670b442974b53935d1edc7fd64eb21e047a839171b5f80a4600190565b926001600160a01b03841692909190831561140257611fb460405192600184526020840152604083019160018352606084015260808301604052565b91906020915f604051611fc78582610348565b528151845190818103611e515750505f5b8251811015612068578060051b84808286010151918701015161200689611038845f525f60205260405f2090565b548181106120315789611038600195949361202a9303935f525f60205260405f2090565b5501611fd8565b6040516303dee4c560e01b81526001600160a01b038b16600482015260248101919091526044810182905260648101839052608490fd5b50945090915f9392600183511485146120bf579182015191015160408051928352602083019190915233917fc3d58168c5ae7397731d063d5bbf3d657854427343f4c083240f7aacaa2d0f6291819081015b0390a4565b506120ba7f4a39dc06d4c0dbc64b70af90fd698a233a518aa5d07e595d983b8c0526c8f7fb916040519182913395836122c9565b9493929091938451825190818103611e515750506001600160a01b038681169586151595918516801515939192905f5b84518110156121fc578060051b90898988602080868b010151958c0101519261217b575b93600194612159575b50505001612123565b61217191611038610694925f525f60205260405f2090565b90555f8981612150565b505090916121948d611038835f525f60205260405f2090565b548281106121c5578291898f6121bc600197968f950391611038855f525f60205260405f2090565b55909450612147565b6040516303dee4c560e01b81526001600160a01b038f16600482015260248101919091526044810183905260648101829052608490fd5b5091989593929790965060018851145f1461228f5760208881015186820151604080519283529282015233917fc3d58168c5ae7397731d063d5bbf3d657854427343f4c083240f7aacaa2d0f6291a45b612258575b5050505050565b845160010361227e5760208061227496015192015192336124b4565b5f80808080612251565b61228a94919233612385565b612274565b6040517f4a39dc06d4c0dbc64b70af90fd698a233a518aa5d07e595d983b8c0526c8f7fb3391806122c1898d836122c9565b0390a461224c565b90916122e0610b0893604084526040840190610ac4565b916020818403910152610ac4565b908160209103126102495751610b0881610299565b6001600160a01b0391821681529116602082015260a060408201819052610b089491939192612348929161233a9190860190610ac4565b908482036060860152610ac4565b916080818403910152610591565b3d15612380573d906123678261037f565b916123756040519384610348565b82523d5f602084013e565b606090565b9091949293853b612399575b505050505050565b6020936123bb91604051968795869563bc197c8160e01b875260048701612303565b03815f6001600160a01b0387165af15f918161244a575b5061240c57506123e0612356565b805191908261240557632bfa23e760e11b5f526001600160a01b03821660045260245ffd5b6020915001fd5b6001600160e01b0319166343e6837f60e01b0161242f57505f8080808080612391565b632bfa23e760e11b5f526001600160a01b031660045260245ffd5b61246d91925060203d602011612474575b6124658183610348565b8101906122ee565b905f6123d2565b503d61245b565b6001600160a01b039182168152911660208201526040810191909152606081019190915260a060808201819052610b0892910190610591565b9091949293853b6124c757505050505050565b6020936124e991604051968795869563f23a6e6160e01b87526004870161247b565b03815f6001600160a01b0387165af15f9181612531575b5061250e57506123e0612356565b6001600160e01b031916630dc5919f60e01b0161242f57505f8080808080612391565b61254b91925060203d602011612474576124658183610348565b905f61250056fea264697066735822122003103b5117fc46393ebf2849c6042065e5e95723f9ae44794979cf3efbfb049364736f6c634300081e00332f8788117e7eff1d82e926ec794901d17c78024a50270940304540a733656f0d30adeb818ef77f204f5a603c30fa5332397b6e28fb3b7f9d937ae6a6914716de5562e70da342db81569f3094d36be279beaca7ad8e08f434ea188e79d2bfe10c3617319a054d772f909f7c479a2cebe5066e836a939412e32403c99029b92eff","linkReferences":{}},"methodIdentifiers":{"BPS_DENOMINATOR()":"e1a45218","DEFAULT_ADMIN_ROLE()":"a217fddf","MINTER_ROLE()":"d5391393","PAUSER_ROLE()":"e63ab1e9","balanceOf(address,uint256)":"00fdd58e","balanceOfBatch(address[],uint256[])":"4e1273f4","batchMint(uint256,address[],uint256[])":"1dbeeb4e","createCreditType(uint256,uint256,uint256,uint256,string)":"fe2770ad","creditTypes(uint256)":"aeab8563","getAvailableDiscount(address,uint256)":"c31fcbdd","getCreditStatus(address,uint256)":"ad4241da","getRoleAdmin(bytes32)":"248a9ca3","grantRole(bytes32,address)":"2f2ff15d","hasRole(bytes32,address)":"91d14854","isApprovedForAll(address,address)":"e985e9c5","isCreditValid(uint256)":"2e5ef636","mint(address,uint256,uint256)":"156e29f6","nextCreditTypeId()":"525f4e56","pause()":"8456cb59","paused()":"5c975abb","renounceRole(bytes32,address)":"36568abe","revokeRole(bytes32,address)":"d547741f","safeBatchTransferFrom(address,address,uint256[],uint256[],bytes)":"2eb2c2d6","safeTransferFrom(address,address,uint256,uint256,bytes)":"f242432a","setApprovalForAll(address,bool)":"a22cb465","setCreditTypeStatus(uint256,bool)":"05a42ce3","setURI(string)":"02fe5305","supportsInterface(bytes4)":"01ffc9a7","totalSupply(uint256)":"bd85b039","totalUsed(uint256)":"bb34c453","unpause()":"3f4ba83a","uri(uint256)":"0e89341c","useCredit(address,uint256,uint256)":"bc655165","usedCount(address,uint256)":"4eab8a81"},"id":41}