{"abi":[{"type":"constructor","inputs":[],"stateMutability":"nonpayable"},{"type":"function","name":"allProviders","inputs":[{"name":"","type":"uint256","internalType":"uint256"}],"outputs":[{"name":"","type":"address","internalType":"address"}],"stateMutability":"view"},{"type":"function","name":"authorizeDeployer","inputs":[{"name":"deployer","type":"address","internalType":"address"}],"outputs":[],"stateMutability":"nonpayable"},{"type":"function","name":"deployProvider","inputs":[{"name":"providerType","type":"string","internalType":"string"},{"name":"initData","type":"bytes","internalType":"bytes"}],"outputs":[{"name":"provider","type":"address","internalType":"address"}],"stateMutability":"nonpayable"},{"type":"function","name":"getAllProviders","inputs":[],"outputs":[{"name":"","type":"address[]","internalType":"address[]"}],"stateMutability":"view"},{"type":"function","name":"getProvider","inputs":[{"name":"index","type":"uint256","internalType":"uint256"}],"outputs":[{"name":"","type":"address","internalType":"address"}],"stateMutability":"view"},{"type":"function","name":"getProviderCount","inputs":[],"outputs":[{"name":"","type":"uint256","internalType":"uint256"}],"stateMutability":"view"},{"type":"function","name":"getProviderInfo","inputs":[{"name":"provider","type":"address","internalType":"address"}],"outputs":[{"name":"providerType","type":"string","internalType":"string"},{"name":"deployer","type":"address","internalType":"address"},{"name":"deployedAt","type":"uint256","internalType":"uint256"}],"stateMutability":"view"},{"type":"function","name":"getProvidersByDeployer","inputs":[{"name":"deployer","type":"address","internalType":"address"}],"outputs":[{"name":"","type":"address[]","internalType":"address[]"}],"stateMutability":"view"},{"type":"function","name":"getProvidersByType","inputs":[{"name":"providerType","type":"string","internalType":"string"}],"outputs":[{"name":"","type":"address[]","internalType":"address[]"}],"stateMutability":"view"},{"type":"function","name":"isAuthorizedDeployer","inputs":[{"name":"","type":"address","internalType":"address"}],"outputs":[{"name":"","type":"bool","internalType":"bool"}],"stateMutability":"view"},{"type":"function","name":"isProviderTypeRegistered","inputs":[{"name":"","type":"string","internalType":"string"}],"outputs":[{"name":"","type":"bool","internalType":"bool"}],"stateMutability":"view"},{"type":"function","name":"owner","inputs":[],"outputs":[{"name":"","type":"address","internalType":"address"}],"stateMutability":"view"},{"type":"function","name":"providerImplementations","inputs":[{"name":"","type":"string","internalType":"string"}],"outputs":[{"name":"","type":"address","internalType":"address"}],"stateMutability":"view"},{"type":"function","name":"providerInfoMap","inputs":[{"name":"","type":"address","internalType":"address"}],"outputs":[{"name":"providerType","type":"string","internalType":"string"},{"name":"deployer","type":"address","internalType":"address"},{"name":"deployedAt","type":"uint256","internalType":"uint256"},{"name":"exists","type":"bool","internalType":"bool"}],"stateMutability":"view"},{"type":"function","name":"providersByDeployer","inputs":[{"name":"","type":"address","internalType":"address"},{"name":"","type":"uint256","internalType":"uint256"}],"outputs":[{"name":"","type":"address","internalType":"address"}],"stateMutability":"view"},{"type":"function","name":"providersByType","inputs":[{"name":"","type":"string","internalType":"string"},{"name":"","type":"uint256","internalType":"uint256"}],"outputs":[{"name":"","type":"address","internalType":"address"}],"stateMutability":"view"},{"type":"function","name":"registerProviderType","inputs":[{"name":"providerType","type":"string","internalType":"string"},{"name":"implementation","type":"address","internalType":"address"}],"outputs":[],"stateMutability":"nonpayable"},{"type":"function","name":"renounceOwnership","inputs":[],"outputs":[],"stateMutability":"nonpayable"},{"type":"function","name":"revokeDeployer","inputs":[{"name":"deployer","type":"address","internalType":"address"}],"outputs":[],"stateMutability":"nonpayable"},{"type":"function","name":"transferOwnership","inputs":[{"name":"newOwner","type":"address","internalType":"address"}],"outputs":[],"stateMutability":"nonpayable"},{"type":"event","name":"DeployerAuthorized","inputs":[{"name":"deployer","type":"address","indexed":true,"internalType":"address"},{"name":"authorized","type":"bool","indexed":false,"internalType":"bool"}],"anonymous":false},{"type":"event","name":"OwnershipTransferred","inputs":[{"name":"previousOwner","type":"address","indexed":true,"internalType":"address"},{"name":"newOwner","type":"address","indexed":true,"internalType":"address"}],"anonymous":false},{"type":"event","name":"ProviderDeployed","inputs":[{"name":"provider","type":"address","indexed":true,"internalType":"address"},{"name":"providerType","type":"string","indexed":true,"internalType":"string"},{"name":"deployer","type":"address","indexed":true,"internalType":"address"},{"name":"index","type":"uint256","indexed":false,"internalType":"uint256"}],"anonymous":false},{"type":"event","name":"ProviderTypeRegistered","inputs":[{"name":"providerType","type":"string","indexed":true,"internalType":"string"},{"name":"implementation","type":"address","indexed":false,"internalType":"address"}],"anonymous":false},{"type":"error","name":"OwnableInvalidOwner","inputs":[{"name":"owner","type":"address","internalType":"address"}]},{"type":"error","name":"OwnableUnauthorizedAccount","inputs":[{"name":"account","type":"address","internalType":"address"}]}],"bytecode":{"object":"0x608080604052346071573315605e575f8054336001600160a01b0319821681178355916001600160a01b03909116907f8be0079c531659141344cd1fd0a4f28419497f9722a3daafe3b4186f6b6457e09080a361485290816100768239f35b631e4fbdf760e01b5f525f60045260245ffd5b5f80fdfe60806040526004361015610011575f80fd5b5f3560e01c80630517a73514610f5a57806313fc7efc14610ec15780632e4934dd14610e565780632e90a2db14610c95578063381780d314610c585780633bb4497c14610bdb57806346ce417514610bbe5780634930b34414610b0a5780635c42d07914610aa65780635ce1312014610a7d578063715018a614610a265780637583902f1461093957806385265035146108b95780638da5cb5b1461089257806391e2409814610838578063a8d690a3146107d7578063afb0bc9a14610285578063c53fa0c6146101fa578063e59f06851461017e5763f2fde38b146100f5575f80fd5b3461017a57602036600319011261017a5761010e610fa3565b6101166111ff565b6001600160a01b03168015610167575f80546001600160a01b03198116831782556001600160a01b0316907f8be0079c531659141344cd1fd0a4f28419497f9722a3daafe3b4186f6b6457e09080a3005b631e4fbdf760e01b5f525f60045260245ffd5b5f80fd5b3461017a57604036600319011261017a576004356001600160401b03811161017a576101ae903690600401611087565b604051815160243592602091839181908401835e81016006815203019020805482101561017a576020916101e191610fe5565b905460405160039290921b1c6001600160a01b03168152f35b3461017a57602036600319011261017a576001600160a01b0361021b610fa3565b165f52600760205260405f206040519081602082549182815201915f5260205f20905f5b818110610266576102628561025681870382611015565b604051918291826110a5565b0390f35b82546001600160a01b031684526020909301926001928301920161023f565b3461017a57604036600319011261017a576004356001600160401b03811161017a576102b5903690600401611087565b6024356001600160401b03811161017a573660238201121561017a576102e5903690602481600401359101611051565b90335f52600360205260ff60405f2054161561079a576040519160ff825193602081818601968088835e810160028152030190205416156107555781518320906040916007602084516103388682611015565b828152016622a9219a1b191b60c91b815220145f1461068157805181016060826020830192031261017a5761036f60208301611225565b91838101516001600160401b03811161017a5782602061039192840101611239565b916060820151916001600160401b03831161017a576103b39201602001611239565b918351926123c090818501918583106001600160401b03841117610663578594610409946103fc9261245d88396001600160a01b031684526060602085018190528401906110e7565b91868184039101526110e7565b03905ff08015610677576001600160a01b0316915b6004549081600160401b8110156106635780600161044192016004556004610fe5565b949060018060a01b0382169581549060031b9087821b9160018060a01b03901b191617905583519561047287610ffa565b828752602087019633885285810190428252606081019160018352885f526005602052875f209151998a516001600160401b038111610663576104b5845461110b565b9b601f8d1161061e575b60209c508c90601f83116001146105a857948896929461056798948661056c9c9b976003956105589a5f9261059d575b50508160011b915f1990871b1c19161783555b60018060a01b03905116600183019060018060a01b031660018060a01b0319825416179055516002820155019051151560ff801983541691161790558a8951809288518091835e8101600681520301902061127f565b335f5260078852855f2061127f565b6111e3565b8251918252837f9465b6f7569ac5fdecd00310465ced9f57f1c1ee33eb512262eccf10c20d395a863394a451908152f35b015190505f806104ef565b90601f19831691865f52815f20925f5b8181106106065750946001856003956105589a9561056c9f9e9c98958d9b966105679f9b106105ef575b505050811b018355610502565b01515f1983891b60f8161c191690555f80806105e2565b929360206001819287860151815501950193016105b8565b845f5260205f20601f830160051c81019d60208410610659575b601f0160051c019c5b8d811061064e57506104bf565b5f8155600101610641565b909d508d90610638565b634e487b7160e01b5f52604160045260245ffd5b50513d5f823e3d90fd5b82518420600a602084516106958682611015565b828152016914185c9a5b5d5d1d595b60b21b815220145f146107155760208180518101031261017a576001600160a01b03906106d390602001611225565b1681519061119c8083018381106001600160401b038211176106635760209284926112c1843981520301905ff08015610677576001600160a01b03169161041e565b815162461bcd60e51b8152602060048201526019602482015278556e737570706f727465642070726f7669646572207479706560381b6044820152606490fd5b60405162461bcd60e51b815260206004820152601c60248201527f50726f76696465722074797065206e6f742072656769737465726564000000006044820152606490fd5b60405162461bcd60e51b81526020600482015260156024820152742ab730baba3437b934bd32b2103232b83637bcb2b960591b6044820152606490fd5b3461017a57602036600319011261017a576004356001600160401b03811161017a576108096020913690600401611087565b8160405191805191829101835e600190820190815281900382019020546040516001600160a01b039091168152f35b3461017a57602036600319011261017a576004356001600160401b03811161017a5760ff60208061086e81943690600401611087565b604051928184925191829101835e8101600281520301902054166040519015158152f35b3461017a575f36600319011261017a575f546040516001600160a01b039091168152602090f35b3461017a57602036600319011261017a576001600160a01b036108da610fa3565b165f52600560205261092360405f206108f281611143565b9060018060a01b036001820154169060ff6003600283015492015416906040519485946080865260808601906110e7565b9260208501526040840152151560608301520390f35b3461017a57602036600319011261017a576001600160a01b0361095a610fa3565b165f52600560205260405f206040519061097382610ffa565b61097c81611143565b825260018101546001600160a01b03166020830190815260028201546040840190815260039092015460ff1615801560608501529091906109ec576109dd92519160018060a01b0390511690516040519384936060855260608501906110e7565b91602084015260408301520390f35b60405162461bcd60e51b8152602060048201526012602482015271141c9bdd9a59195c881b9bdd08199bdd5b9960721b6044820152606490fd5b3461017a575f36600319011261017a57610a3e6111ff565b5f80546001600160a01b0319811682556001600160a01b03167f8be0079c531659141344cd1fd0a4f28419497f9722a3daafe3b4186f6b6457e08280a3005b3461017a57602036600319011261017a5760043560045481101561017a576101e1602091610fb9565b3461017a57602036600319011261017a57600435600454811015610acf576101e1602091610fb9565b60405162461bcd60e51b8152602060048201526013602482015272496e646578206f7574206f6620626f756e647360681b6044820152606490fd5b3461017a57602036600319011261017a57610b23610fa3565b610b2b6111ff565b6001600160a01b03168015610b7e57805f52600360205260405f20600160ff198254161790557ffa27fcd166190505684063d08e30b8ccd6e8d6fa57ff7cb8540164a4b65a128e602060405160018152a2005b60405162461bcd60e51b8152602060048201526018602482015277496e76616c6964206465706c6f796572206164647265737360401b6044820152606490fd5b3461017a575f36600319011261017a576020600454604051908152f35b3461017a575f36600319011261017a57604051600480548083525f91825260208301917f8a35acfbc15ff81a39ae7d344fd709f28e8600b4aa8c65c6b64bfe7fe36bd19b91905b818110610c39576102628561025681870382611015565b82546001600160a01b0316845260209093019260019283019201610c22565b3461017a57602036600319011261017a576001600160a01b03610c79610fa3565b165f526003602052602060ff60405f2054166040519015158152f35b3461017a57604036600319011261017a576004356001600160401b03811161017a57610cc5903690600401611087565b6024356001600160a01b038116919082900361017a57610ce36111ff565b805115610e19578115610dd4576040519060ff815192602081818501958087835e810160028152030190205416610d9057610d866020917ff326e23a49cbbb0896cd8b2a113312babd598be3b0db69af181c6ce5d9c6a74d93604051848184518085835e810160018152030190208660018060a01b031982541617905583604051809284518091835e81016002815203019020600160ff198254161790556111e3565b92604051908152a2005b606460405162461bcd60e51b815260206004820152602060248201527f50726f7669646572207479706520616c726561647920726567697374657265646044820152fd5b60405162461bcd60e51b815260206004820152601e60248201527f496e76616c696420696d706c656d656e746174696f6e206164647265737300006044820152606490fd5b60405162461bcd60e51b8152602060048201526015602482015274496e76616c69642070726f7669646572207479706560581b6044820152606490fd5b3461017a57602036600319011261017a57610e6f610fa3565b610e776111ff565b6001600160a01b03165f818152600360209081526040808320805460ff19169055519182527ffa27fcd166190505684063d08e30b8ccd6e8d6fa57ff7cb8540164a4b65a128e91a2005b3461017a57602036600319011261017a576004356001600160401b03811161017a576020610ef481923690600401611087565b604051928184925191829101835e810160068152030190206040519081602082549182815201915f5260205f20905f5b818110610f3b576102628561025681870382611015565b82546001600160a01b0316845260209093019260019283019201610f24565b3461017a57604036600319011261017a57610f73610fa3565b6001600160a01b03165f9081526007602052604090208054602435919082101561017a576020916101e191610fe5565b600435906001600160a01b038216820361017a57565b600454811015610fd15760045f5260205f2001905f90565b634e487b7160e01b5f52603260045260245ffd5b8054821015610fd1575f5260205f2001905f90565b608081019081106001600160401b0382111761066357604052565b90601f801991011681019081106001600160401b0382111761066357604052565b6001600160401b03811161066357601f01601f191660200190565b92919261105d82611036565b9161106b6040519384611015565b82948184528183011161017a578281602093845f960137010152565b9080601f8301121561017a578160206110a293359101611051565b90565b60206040818301928281528451809452019201905f5b8181106110c85750505090565b82516001600160a01b03168452602093840193909201916001016110bb565b805180835260209291819084018484015e5f828201840152601f01601f1916010190565b90600182811c92168015611139575b602083101461112557565b634e487b7160e01b5f52602260045260245ffd5b91607f169161111a565b9060405191825f8254926111568461110b565b80845293600181169081156111c1575060011461117d575b5061117b92500383611015565b565b90505f9291925260205f20905f915b8183106111a557505090602061117b928201015f61116e565b602091935080600191548385890101520191019091849261118c565b90506020925061117b94915060ff191682840152151560051b8201015f61116e565b602090604051918183925191829101835e81015f815203902090565b5f546001600160a01b0316330361121257565b63118cdaa760e01b5f523360045260245ffd5b51906001600160a01b038216820361017a57565b81601f8201121561017a5780519061125082611036565b9261125e6040519485611015565b8284526020838301011161017a57815f9260208093018386015e8301015290565b8054600160401b8110156106635761129c91600182018155610fe5565b81546001600160a01b0393841660039290921b91821b9390911b191691909117905556fe60a0346100fd57601f61119c38819003918201601f19168301916001600160401b03831184841017610101578084926020946040528339810103126100fd57516001600160a01b03811681036100fd5733156100ea575f8054336001600160a01b0319821681178355604051939290916001600160a01b0316907f8be0079c531659141344cd1fd0a4f28419497f9722a3daafe3b4186f6b6457e09080a360805242600855611086908161011682396080518181816103da015281816104ec015281816106440152818161091001528181610a5e01528181610d2d01528181610e640152610f430152f35b631e4fbdf760e01b5f525f60045260245ffd5b5f80fd5b634e487b7160e01b5f52604160045260245ffdfe6080806040526004361015610012575f80fd5b5f3560e01c9081630941cb3d14610da8575080631083f76114610a4957806315770f9214610d0257806329527b8214610b285780632d07953a14610a8d57806338d52e0f14610a495780634299b8a2146105b95780634c19386c14610a2c5780635552ea40146109b957806363ec6ca8146108bc5780636c321c8a146108a25780636f10cbd01461088557806370cdc93014610868578063715018a61461081157806374375359146107ef5780637b803f8414610744578063849f691f146107085780638da5cb5b146106e15780638e5815df146105fa57806399079671146105b9578063b1283e7714610577578063b4ba2e5c1461055a578063c5ebeaec1461045a578063d8aed1451461032d578063f2862e67146101c75763f2fde38b1461013a575f80fd5b346101c35760203660031901126101c3576004356001600160a01b038116908190036101c357610168610f02565b80156101b0575f80546001600160a01b03198116831782556001600160a01b0316907f8be0079c531659141344cd1fd0a4f28419497f9722a3daafe3b4186f6b6457e09080a3005b631e4fbdf760e01b5f525f60045260245ffd5b5f80fd5b346101c35760203660031901126101c3576004356001600160a01b038116908181036101c3576101f5610f02565b81156102ef57815f52600160205260ff60405f2054166102ae57815f52600160205260405f20600160ff1982541617905560045490600160401b82101561029a5761024982600161026d9401600455610de1565b9080546001600160a01b0360039390931b83811b199091169290931690921b179055565b7fc792d97102b92a6590521ee4ad4d0e32f4494d254832be13b9b600ae4ed4f662602060405160018152a2005b634e487b7160e01b5f52604160045260245ffd5b60405162461bcd60e51b815260206004820152601960248201527813585c9ad95d08185b1c9958591e48185d5d1a1bdc9a5e9959603a1b6044820152606490fd5b60405162461bcd60e51b8152602060048201526016602482015275496e76616c6964206d61726b6574206164647265737360501b6044820152606490fd5b346101c35760403660031901126101c35760043560243590335f52600160205260ff60405f2054161561044757335f5260026020528060405f2054106104245761041f7f366037aa71e6646e64ac900b7f46e1174dc8d4c3edc7556685d86a4b2768e64e91335f52600260205260405f206103a9828254610e3c565b90556103b781600354610e3c565b6003556103c684600754610e2f565b6007556103fe6103d68583610e2f565b30337f0000000000000000000000000000000000000000000000000000000000000000610fad565b60405191829133954291846040919493926060820195825260208201520152565b0390a2005b335f52600260205260405f2054631f9863b960e21b5f523360045260245260445ffd5b63320b1e2560e21b5f523360045260245ffd5b346101c35760203660031901126101c357600435335f52600160205260ff60405f205416156104475761048b610f28565b8082116105445750335f52600260205260405f206104aa828254610e2f565b90556104b881600354610e2f565b60035560405163a9059cbb60e01b602082015233602482015260448082018390528152610510906104ea606482610e0d565b7f0000000000000000000000000000000000000000000000000000000000000000610ff8565b6040519081524260208201527f6eacc78bef5c94a765db80df145e01265f64fe8665e02370dd3fd1881ced38f060403392a2005b9063a17e11d560e01b5f5260045260245260445ffd5b346101c3575f3660031901126101c3576020600754604051908152f35b346101c35760203660031901126101c3576004356004548110156101c3576105a0602091610de1565b905460405160039290921b1c6001600160a01b03168152f35b346101c35760203660031901126101c3576004356001600160a01b038116908190036101c3575f526001602052602060ff60405f2054166040519015158152f35b346101c35760203660031901126101c357600435801561069c57335f52600560205260405f2061062b828254610e2f565b905561063981600654610e2f565b6006556106688130337f0000000000000000000000000000000000000000000000000000000000000000610fad565b6040519081524260208201527f2e293e8c8092644c41b4e557bc776ce5edf901da4da118730c41ed525dba40b360403392a2005b60405162461bcd60e51b815260206004820152601d60248201527f416d6f756e74206d7573742062652067726561746572207468616e20300000006044820152606490fd5b346101c3575f3660031901126101c3575f546040516001600160a01b039091168152602090f35b346101c35760203660031901126101c3576004356001600160a01b038116908190036101c3575f526005602052602060405f2054604051908152f35b346101c3575f3660031901126101c3576040518060206004549283815201809260045f5260205f20905f5b8181106107d05750505081610785910382610e0d565b604051918291602083019060208452518091526040830191905f5b8181106107ae575050500390f35b82516001600160a01b03168452859450602093840193909201916001016107a0565b82546001600160a01b031684526020909301926001928301920161076f565b346101c3575f3660031901126101c3576020610809610f28565b604051908152f35b346101c3575f3660031901126101c357610829610f02565b5f80546001600160a01b0319811682556001600160a01b03167f8be0079c531659141344cd1fd0a4f28419497f9722a3daafe3b4186f6b6457e08280a3005b346101c3575f3660031901126101c3576020600854604051908152f35b346101c3575f3660031901126101c3576020600654604051908152f35b346101c3575f3660031901126101c3576020610809610e49565b346101c35760203660031901126101c3576004356001600160a01b038116908190036101c3575f52600260205260405f20546040516370a0823160e01b815230600482015260208160248160018060a01b037f0000000000000000000000000000000000000000000000000000000000000000165afa80156109ae575f9061097a575b61094d915060035490610e2f565b90610976610959610f28565b604051938493846040919493926060820195825260208201520152565b0390f35b506020813d6020116109a6575b8161099460209383610e0d565b810103126101c35761094d905161093f565b3d9150610987565b6040513d5f823e3d90fd5b346101c3575f3660031901126101c3576040516040810181811067ffffffffffffffff82111761029a57604052600a8152604060208201916914185c9a5b5d5d1d595b60b21b83528151928391602083525180918160208501528484015e5f828201840152601f01601f19168101030190f35b346101c3575f3660031901126101c3576020600354604051908152f35b346101c3575f3660031901126101c3576040517f00000000000000000000000000000000000000000000000000000000000000006001600160a01b03168152602090f35b346101c3575f3660031901126101c357610aa5610f02565b6007548015610ae85760407ff2838e4b541f90d41a1076a560d75e948f7d1008e72118a655568626a30b451f915f600755426008558151908152426020820152a1005b60405162461bcd60e51b81526020600482015260186024820152774e6f20726576656e756520746f206469737472696275746560401b6044820152606490fd5b346101c35760203660031901126101c3576004356001600160a01b038116908190036101c357610b56610f02565b805f52600160205260ff60405f20541615610cc557805f52600260205260405f2054610c82575f818152600160205260408120805460ff191690555b6004549081811015610c7b5782610ba882610de1565b905460039190911b1c6001600160a01b031614610bc9576001915001610b92565b5f198201918211610c6757610249610be3610bfb93610de1565b905460039190911b1c6001600160a01b031691610de1565b6004548015610c53575f1901610c1081610de1565b81549060018060a01b039060031b1b191690556004555b7fc792d97102b92a6590521ee4ad4d0e32f4494d254832be13b9b600ae4ed4f66260206040515f8152a2005b634e487b7160e01b5f52603160045260245ffd5b634e487b7160e01b5f52601160045260245ffd5b5050610c27565b60405162461bcd60e51b815260206004820152601b60248201527a13585c9ad95d081a185cc81bdd5d1cdd185b991a5b99c81919589d602a1b6044820152606490fd5b60405162461bcd60e51b815260206004820152601560248201527413585c9ad95d081b9bdd08185d5d1a1bdc9a5e9959605a1b6044820152606490fd5b346101c3575f3660031901126101c3576040516370a0823160e01b81523060048201526020816024817f00000000000000000000000000000000000000000000000000000000000000006001600160a01b03165afa9081156109ae575f91610d74575b60206108098360035490610e2f565b90506020813d602011610da0575b81610d8f60209383610e0d565b810103126101c35751610809610d65565b3d9150610d82565b346101c35760203660031901126101c3576004356001600160a01b03811691908290036101c3576020915f526002825260405f20548152f35b600454811015610df95760045f5260205f2001905f90565b634e487b7160e01b5f52603260045260245ffd5b90601f8019910116810190811067ffffffffffffffff82111761029a57604052565b91908201809211610c6757565b91908203918211610c6757565b6040516370a0823160e01b81523060048201526020816024817f00000000000000000000000000000000000000000000000000000000000000006001600160a01b03165afa9081156109ae575f91610ed0575b50610eaa6003548092610e2f565b908115610eca576127108102908082046127101490151715610c67570490565b50505f90565b90506020813d602011610efa575b81610eeb60209383610e0d565b810103126101c357515f610e9c565b3d9150610ede565b5f546001600160a01b03163303610f1557565b63118cdaa760e01b5f523360045260245ffd5b6040516370a0823160e01b81523060048201526020816024817f00000000000000000000000000000000000000000000000000000000000000006001600160a01b03165afa9081156109ae575f91610f7e575090565b90506020813d602011610fa5575b81610f9960209383610e0d565b810103126101c3575190565b3d9150610f8c565b6040516323b872dd60e01b60208201526001600160a01b039283166024820152929091166044830152606480830193909352918152610ff691610ff1608483610e0d565b610ff8565b565b905f602091828151910182855af1156109ae575f513d61104757506001600160a01b0381163b155b6110275750565b635274afe760e01b5f9081526001600160a01b0391909116600452602490fd5b6001141561102056fea26469706673582212205b0f1ff4681d50c4190535d1434a014351823d9f71840a89db7d52c6b79c4cb264736f6c634300081e003360c080604052346103ec576123c0803803809161001c82856103f0565b83398101906060818303126103ec578051906001600160a01b03821682036103ec5760208101516001600160401b0381116103ec578361005d91830161042e565b60408201519093906001600160401b0381116103ec5761007d920161042e565b82519091906001600160401b0381116102fd57600354600181811c911680156103e2575b60208210146102df57601f811161037f575b506020601f821160011461031c57819293945f92610311575b50508160011b915f199060031b1c1916176003555b81516001600160401b0381116102fd57600454600181811c911680156102f3575b60208210146102df57601f811161027c575b50602092601f821160011461021b57928192935f92610210575b50508160011b915f199060031b1c1916176004555b61014c81610474565b9015610208575b60a05260805233156101f55760058054336001600160a01b03198216811790925560405191906001600160a01b03167f8be0079c531659141344cd1fd0a4f28419497f9722a3daafe3b4186f6b6457e05f80a3611ea8908161051882396080518181816105640152818161077d01528181610b6c015281816110780152818161164501528181611a3701528181611bac0152611d46015260a051816110bb0152f35b631e4fbdf760e01b5f525f60045260245ffd5b506012610153565b015190505f8061012e565b601f1982169360045f52805f20915f5b868110610264575083600195961061024c575b505050811b01600455610143565b01515f1960f88460031b161c191690555f808061023e565b9192602060018192868501518155019401920161022b565b60045f527f8a35acfbc15ff81a39ae7d344fd709f28e8600b4aa8c65c6b64bfe7fe36bd19b601f830160051c810191602084106102d5575b601f0160051c01905b8181106102ca5750610114565b5f81556001016102bd565b90915081906102b4565b634e487b7160e01b5f52602260045260245ffd5b90607f1690610102565b634e487b7160e01b5f52604160045260245ffd5b015190505f806100cc565b601f1982169060035f52805f20915f5b8181106103675750958360019596971061034f575b505050811b016003556100e1565b01515f1960f88460031b161c191690555f8080610341565b9192602060018192868b01518155019401920161032c565b60035f527fc2575a0e9e593c00f959f8c92f12db2869c3395a3b0502d05e2516446f71f85b601f830160051c810191602084106103d8575b601f0160051c01905b8181106103cd57506100b3565b5f81556001016103c0565b90915081906103b7565b90607f16906100a1565b5f80fd5b601f909101601f19168101906001600160401b038211908210176102fd57604052565b6001600160401b0381116102fd57601f01601f191660200190565b81601f820112156103ec5780519061044582610413565b9261045360405194856103f0565b828452602083830101116103ec57815f9260208093018386015e8301015290565b5f8091604051602081019063313ce56760e01b8252600481526104986024826103f0565b51916001600160a01b03165afa3d1561050f573d906104b682610413565b916104c460405193846103f0565b82523d5f602084013e5b80610503575b6104e0575b505f905f90565b6020818051810103126103ec576020015160ff81116104d9579060ff6001921690565b506020815110156104d4565b6060906104ce56fe60806040526004361015610011575f80fd5b5f3560e01c806301e1d114146114c457806306fdde031461140957806307a2d13a14610fd35780630941cb3d146113d1578063095ea7b3146113295780630a28a4771461130b57806315770f921461130657806318160ddd146112e957806323b872dd146112b157806329527b82146110ee578063313ce567146110a757806338d52e0f146110635780633f4ba83a14610ff5578063402d267d146106955780634299b8a2146109e05780634c19386c14610fd85780634cdad50614610fd35780635552ea4014610f815780635c975abb14610f5c57806363ec6ca814610eb65780636c321c8a14610e9c5780636e553f6514610e6157806370a0823114610e29578063715018a614610dce5780637437535914610db45780637b803f8414610d095780638456cb5914610ca85780638da5cb5b14610c8057806394bf804d14610c4557806395ccea6714610b2157806395d89b4114610a1d57806399079671146109e0578063a9059cbb146109af578063b1283e771461096d578063b3d7f6b91461094f578063b460af94146108d9578063b4ba2e5c146108bc578063ba0876521461083e578063bba8f82814610822578063c5ebeaec1461069a578063c63d75b614610695578063c6e6f59214610439578063ce96cb7714610672578063d1edbc531461064f578063d8aed145146104d5578063d905777e146104aa578063dd62ed3e1461045a578063e05fee4a1461043e578063ef8b30f714610439578063f2862e67146102d45763f2fde38b1461024a575f80fd5b346102d05760203660031901126102d057610263611526565b61026b6119f5565b6001600160a01b031680156102bd57600580546001600160a01b0319811683179091556001600160a01b03167f8be0079c531659141344cd1fd0a4f28419497f9722a3daafe3b4186f6b6457e05f80a3005b631e4fbdf760e01b5f525f60045260245ffd5b5f80fd5b346102d05760203660031901126102d0576102ed611526565b6102f56119f5565b6001600160a01b0381169081156103fb57815f52600660205260ff60405f2054166103ba575f828152600660205260409020805460ff19166001179055600a5490600160401b8210156103a6576103558260016103799401600a55611577565b9080546001600160a01b0360039390931b83811b199091169290931690921b179055565b7fc792d97102b92a6590521ee4ad4d0e32f4494d254832be13b9b600ae4ed4f662602060405160018152a2005b634e487b7160e01b5f52604160045260245ffd5b60405162461bcd60e51b815260206004820152601960248201527813585c9ad95d08185b1c9958591e48185d5d1a1bdc9a5e9959603a1b6044820152606490fd5b60405162461bcd60e51b8152602060048201526016602482015275496e76616c6964206d61726b6574206164647265737360501b6044820152606490fd5b6115dd565b346102d0575f3660031901126102d05760206040516123288152f35b346102d05760403660031901126102d057610473611526565b61047b61153c565b6001600160a01b039182165f908152600160209081526040808320949093168252928352819020549051908152f35b346102d05760203660031901126102d05760206104cd6104c8611526565b6117cb565b604051908152f35b346102d05760403660031901126102d0576024356004356104f4611aa1565b335f52600660205260ff60405f2054161561063c57335f5260076020528060405f20541061061957335f52600760205260405f206105338282546116cc565b9055610541816008546116cc565b6008556105508260095461161d565b600955610591610560838361161d565b30337f00000000000000000000000000000000000000000000000000000000000000006001600160a01b0316611b01565b6040805191825260208201839052429082015233907f366037aa71e6646e64ac900b7f46e1174dc8d4c3edc7556685d86a4b2768e64e90606090a2806105d357005b7f6215b003e186dbc79e3bd07b486dc69758f50dab026e5d485d4a945d56015447906105fd61162a565b60025460408051938452602084019290925290820152606090a1005b335f52600760205260405f2054631f9863b960e21b5f523360045260245260445ffd5b63320b1e2560e21b5f523360045260245ffd5b346102d05760203660031901126102d05760206104cd61066d611526565b6117a5565b346102d05760203660031901126102d05760206104cd610690611526565b611771565b611552565b346102d05760203660031901126102d0576004356106b6611aa1565b335f52600660205260ff60405f2054161561063c576106d3611a1c565b6106df8260085461161d565b61271081029080820461271014901517156107f8576107096123289161070361162a565b906116d9565b1161080c575061071761162a565b61138881029080820461138814901517156107f8576127109004335f526007602052806107488360405f205461161d565b116107de5750335f52600760205260405f2061076582825461161d565b90556107738160085461161d565b6008556107aa81337f00000000000000000000000000000000000000000000000000000000000000006001600160a01b0316611abf565b6040519081524260208201527f6eacc78bef5c94a765db80df145e01265f64fe8665e02370dd3fd1881ced38f060403392a2005b9063f81073bd60e01b5f523360045260245260445260645ffd5b634e487b7160e01b5f52601160045260245ffd5b906305c537c960e51b5f5260045260245260445ffd5b346102d0575f3660031901126102d05760206040516113888152f35b346102d05761084c366115a3565b9091610856611aa1565b61087161086282611820565b61086a611a1c565b101561172c565b61087a826117cb565b80821161089b5750806020936108926104cd93611820565b93849133611cb4565b91632e52afbb60e21b5f5260018060a01b031660045260245260445260645ffd5b346102d0575f3660031901126102d0576020600954604051908152f35b346102d0576108e7366115a3565b90916108f1611aa1565b6109046108fc611a1c565b82111561172c565b61090d82611771565b80821161092e5750602092816109256104cd9361184d565b93849233611cb4565b91633fa733bb60e21b5f5260018060a01b031660045260245260445260645ffd5b346102d05760203660031901126102d05760206104cd6004356117f2565b346102d05760203660031901126102d057600435600a548110156102d057610996602091611577565b905460405160039290921b1c6001600160a01b03168152f35b346102d05760403660031901126102d0576109d56109cb611526565b602435903361194b565b602060405160018152f35b346102d05760203660031901126102d0576001600160a01b03610a01611526565b165f526006602052602060ff60405f2054166040519015158152f35b346102d0575f3660031901126102d0576040515f6004548060011c90600181168015610b17575b602083108114610b0357828552908115610adf5750600114610a81575b610a7d83610a71818503826115fb565b604051918291826114de565b0390f35b60045f9081527f8a35acfbc15ff81a39ae7d344fd709f28e8600b4aa8c65c6b64bfe7fe36bd19b939250905b808210610ac557509091508101602001610a71610a61565b919260018160209254838588010152019101909291610aad565b60ff191660208086019190915291151560051b84019091019150610a719050610a61565b634e487b7160e01b5f52602260045260245ffd5b91607f1691610a44565b346102d05760403660031901126102d057610b3a611526565b602435610b456119f5565b6001600160a01b038216918215610c0c57610b5e611a1c565b8211610bc757610b999082907f00000000000000000000000000000000000000000000000000000000000000006001600160a01b0316611abf565b6040519081527f9495d03190a79a43e534c9e328ff322f6283261383f5f19c809564f6ad5a57b360203392a3005b60405162461bcd60e51b815260206004820152601d60248201527f496e73756666696369656e7420617661696c61626c65206173736574730000006044820152606490fd5b60405162461bcd60e51b8152602060048201526011602482015270125b9d985b1a59081c9958da5c1a595b9d607a1b6044820152606490fd5b346102d05760403660031901126102d05760206004356104cd610c6661153c565b91610c6f611aa1565b610c78816117f2565b809333611ba3565b346102d0575f3660031901126102d0576005546040516001600160a01b039091168152602090f35b346102d0575f3660031901126102d057610cc06119f5565b610cc8611aa1565b6005805460ff60a01b1916600160a01b1790556040513381527f62e78cea01bee320cd4e420270b5ea74000d11b0c9f74754ebdbfc544b05a25890602090a1005b346102d0575f3660031901126102d057604051806020600a5492838152018092600a5f5260205f20905f5b818110610d955750505081610d4a9103826115fb565b604051918291602083019060208452518091526040830191905f5b818110610d73575050500390f35b82516001600160a01b0316845285945060209384019390920191600101610d65565b82546001600160a01b0316845260209093019260019283019201610d34565b346102d0575f3660031901126102d05760206104cd611a1c565b346102d0575f3660031901126102d057610de66119f5565b600580546001600160a01b031981169091555f906001600160a01b03167f8be0079c531659141344cd1fd0a4f28419497f9722a3daafe3b4186f6b6457e08280a3005b346102d05760203660031901126102d05760206104cd610e47611526565b6001600160a01b03165f9081526020819052604090205490565b346102d05760403660031901126102d05760206004356104cd610e8261153c565b610e8a611aa1565b610e938361187b565b92839133611ba3565b346102d0575f3660031901126102d05760206104cd6116f7565b346102d05760203660031901126102d0576001600160a01b03610ed7611526565b165f52600760205260405f2054610eec61162a565b61138881029080820461138814901517156107f85761271090049080821115610f5357610a7d610f1c82846116cc565b80610f25611a1c565b809111610f4b575b50604051938493846040919493926060820195825260208201520152565b905084610f2d565b610a7d5f610f1c565b346102d0575f3660031901126102d057602060ff60055460a01c166040519015158152f35b346102d0575f3660031901126102d057604051604081019080821067ffffffffffffffff8311176103a657610a7d91604052600781526622a9219a1b191b60c91b6020820152604051918291826114de565b611508565b346102d0575f3660031901126102d0576020600854604051908152f35b346102d0575f3660031901126102d05761100d6119f5565b60055460ff8160a01c16156110545760ff60a01b19166005556040513381527f5db9ee0a495bf2e6ff9c91a7834c1ba4fdd244a5e8aa4e537bd38aeae4b073aa90602090a1005b638dfc202b60e01b5f5260045ffd5b346102d0575f3660031901126102d0576040517f00000000000000000000000000000000000000000000000000000000000000006001600160a01b03168152602090f35b346102d0575f3660031901126102d05760ff7f00000000000000000000000000000000000000000000000000000000000000001660ff81116107f857602090604051908152f35b346102d05760203660031901126102d057611107611526565b61110f6119f5565b6001600160a01b03165f8181526006602052604090205460ff161561127457805f52600760205260405f2054611231575f818152600660205260408120805460ff191690555b600a54908181101561122a578261116b82611577565b905460039190911b1c6001600160a01b03161461118c576001915001611155565b5f1982019182116107f8576103556111a66111be93611577565b905460039190911b1c6001600160a01b031691611577565b600a548015611216575f19016111d381611577565b81549060018060a01b039060031b1b19169055600a555b7fc792d97102b92a6590521ee4ad4d0e32f4494d254832be13b9b600ae4ed4f66260206040515f8152a2005b634e487b7160e01b5f52603160045260245ffd5b50506111ea565b60405162461bcd60e51b815260206004820152601b60248201527a13585c9ad95d081a185cc81bdd5d1cdd185b991a5b99c81919589d602a1b6044820152606490fd5b60405162461bcd60e51b815260206004820152601560248201527413585c9ad95d081b9bdd08185d5d1a1bdc9a5e9959605a1b6044820152606490fd5b346102d05760603660031901126102d0576109d56112cd611526565b6112d561153c565b604435916112e48333836118a8565b61194b565b346102d0575f3660031901126102d0576020600254604051908152f35b6114c4565b346102d05760203660031901126102d05760206104cd60043561184d565b346102d05760403660031901126102d057611342611526565b6024359033156113be576001600160a01b03169081156113ab57335f52600160205260405f20825f526020528060405f20556040519081527f8c5be1e5ebec7d5bd14f71427d1e84f3dd0314c0f7b2291e5b200ac8c7c3b92560203392a3602060405160018152f35b634a1406b160e11b5f525f60045260245ffd5b63e602df0560e01b5f525f60045260245ffd5b346102d05760203660031901126102d0576001600160a01b036113f2611526565b165f526007602052602060405f2054604051908152f35b346102d0575f3660031901126102d0576040515f6003548060011c906001811680156114ba575b602083108114610b0357828552908115610adf575060011461145c57610a7d83610a71818503826115fb565b60035f9081527fc2575a0e9e593c00f959f8c92f12db2869c3395a3b0502d05e2516446f71f85b939250905b8082106114a057509091508101602001610a71610a61565b919260018160209254838588010152019101909291611488565b91607f1691611430565b346102d0575f3660031901126102d05760206104cd61162a565b602060409281835280519182918282860152018484015e5f828201840152601f01601f1916010190565b346102d05760203660031901126102d05760206104cd600435611820565b600435906001600160a01b03821682036102d057565b602435906001600160a01b03821682036102d057565b346102d05760203660031901126102d05761156b611526565b5060206040515f198152f35b600a5481101561158f57600a5f5260205f2001905f90565b634e487b7160e01b5f52603260045260245ffd5b60609060031901126102d057600435906024356001600160a01b03811681036102d057906044356001600160a01b03811681036102d05790565b346102d05760203660031901126102d05760206104cd60043561187b565b90601f8019910116810190811067ffffffffffffffff8211176103a657604052565b919082018092116107f857565b6040516370a0823160e01b81523060048201526020816024817f00000000000000000000000000000000000000000000000000000000000000006001600160a01b03165afa80156116c1575f9061168d575b61168a91506008549061161d565b90565b506020813d6020116116b9575b816116a7602093836115fb565b810103126102d05761168a905161167c565b3d915061169a565b6040513d5f823e3d90fd5b919082039182116107f857565b81156116e3570490565b634e487b7160e01b5f52601260045260245ffd5b6116ff61162a565b8015611727576008549061271082029180830461271014901517156107f85761168a916116d9565b505f90565b1561173357565b60405162461bcd60e51b8152602060048201526016602482015275496e73756666696369656e74206c697175696469747960501b6044820152606490fd5b60018060a01b03165f525f60205261178c60405f2054611820565b611794611a1c565b808210156117a0575090565b905090565b6001600160a01b03165f9081526020819052604090205480156117275761168a90611820565b6001600160a01b03165f908152602081905260409020546117946117ed611a1c565b61187b565b6117fa61162a565b90600182018092116107f857600254600181018091116107f85761168a92600192611b45565b61182861162a565b90600182018092116107f857600254600181018091116107f85761168a925f92611b45565b60025490600182018092116107f85761186461162a565b600181018091116107f85761168a92600192611b45565b60025490600182018092116107f85761189261162a565b600181018091116107f85761168a925f92611b45565b6001600160a01b039081165f818152600160209081526040808320948616835293905291909120549291905f1984106118e2575b50505050565b8284106119285780156113be576001600160a01b038216156113ab575f52600160205260405f209060018060a01b03165f5260205260405f20910390555f8080806118dc565b508290637dc7a0d960e11b5f5260018060a01b031660045260245260445260645ffd5b6001600160a01b03169081156119e2576001600160a01b03169182156119cf57815f525f60205260405f20548181106119b657815f516020611e535f395f51905f5292602092855f525f84520360405f2055845f525f825260405f20818154019055604051908152a3565b8263391434e360e21b5f5260045260245260445260645ffd5b63ec442f0560e01b5f525f60045260245ffd5b634b637e8f60e11b5f525f60045260245ffd5b6005546001600160a01b03163303611a0957565b63118cdaa760e01b5f523360045260245ffd5b6040516370a0823160e01b81523060048201526020816024817f00000000000000000000000000000000000000000000000000000000000000006001600160a01b03165afa9081156116c1575f91611a72575090565b90506020813d602011611a99575b81611a8d602093836115fb565b810103126102d0575190565b3d9150611a80565b60ff60055460a01c16611ab057565b63d93c066560e01b5f5260045ffd5b60405163a9059cbb60e01b60208201526001600160a01b039092166024830152604480830193909352918152611aff91611afa6064836115fb565b611c5c565b565b6040516323b872dd60e01b60208201526001600160a01b039283166024820152929091166044830152606480830193909352918152611aff91611afa6084836115fb565b9291611b52818386611db4565b926004811015611b8f576001809116149182611b78575b505061168a925015159061161d565b90809250156116e35761168a930915155f80611b69565b634e487b7160e01b5f52602160045260245ffd5b90611bd98330847f00000000000000000000000000000000000000000000000000000000000000006001600160a01b0316611b01565b6001600160a01b03169283156119cf577fdcbc1c05240f31ff3ad067ef1ee35ce4997762752e3a095284754544f4c709d79181611c1a60409360025461161d565b600255855f525f602052825f20818154019055855f5f516020611e535f395f51905f5260208651858152a3825194855260208501526001600160a01b031692a3565b905f602091828151910182855af1156116c1575f513d611cab57506001600160a01b0381163b155b611c8b5750565b635274afe760e01b5f9081526001600160a01b0391909116600452602490fd5b60011415611c84565b6001600160a01b03808416959082169390918290878603611da3575b50505084156119e257845f525f60205260405f2054818110611d8a5791816040927ffbde797d201c681b91056529119e0b02407c7bb96a4a2c75c01fc9667232c8db94885f525f60205203835f205580600254036002555f875f516020611e535f395f51905f5260208651858152a3611d7386837f00000000000000000000000000000000000000000000000000000000000000006001600160a01b0316611abf565b825195865260208601526001600160a01b031693a4565b8563391434e360e21b5f5260045260245260445260645ffd5b611dac926118a8565b5f8181611cd0565b90915f198383099280830292838086109503948086039514611e455784831115611e2d5790829109815f0382168092046002816003021880820260020302808202600203028082026002030280820260020302808202600203028091026002030293600183805f03040190848311900302920304170290565b82634e487b715f52156003026011186020526024601cfd5b50509061168a92506116d956feddf252ad1be2c89b69c2b068fc378daa952ba7f163c4a11628f55a4df523b3efa26469706673582212203e57fe863ef08561557c28c0116c7a0ee40edf1854ce91b020c49f8c89f172fc64736f6c634300081e0033a2646970667358221220f09c2ab7570f0414e72bd1d4a9663ba637ba20766805268017b443ca512895c264736f6c634300081e0033","linkReferences":{}},"methodIdentifiers":{"allProviders(uint256)":"5ce13120","authorizeDeployer(address)":"4930b344","deployProvider(string,bytes)":"afb0bc9a","getAllProviders()":"3bb4497c","getProvider(uint256)":"5c42d079","getProviderCount()":"46ce4175","getProviderInfo(address)":"7583902f","getProvidersByDeployer(address)":"c53fa0c6","getProvidersByType(string)":"13fc7efc","isAuthorizedDeployer(address)":"381780d3","isProviderTypeRegistered(string)":"91e24098","owner()":"8da5cb5b","providerImplementations(string)":"a8d690a3","providerInfoMap(address)":"85265035","providersByDeployer(address,uint256)":"0517a735","providersByType(string,uint256)":"e59f0685","registerProviderType(string,address)":"2e90a2db","renounceOwnership()":"715018a6","revokeDeployer(address)":"2e4934dd","transferOwnership(address)":"f2fde38b"},"id":40}