{"abi":[{"type":"constructor","inputs":[{"name":"_asset","type":"address","internalType":"contract IERC20"}],"stateMutability":"nonpayable"},{"type":"function","name":"asset","inputs":[],"outputs":[{"name":"","type":"address","internalType":"address"}],"stateMutability":"view"},{"type":"function","name":"assetToken","inputs":[],"outputs":[{"name":"","type":"address","internalType":"contract IERC20"}],"stateMutability":"view"},{"type":"function","name":"authorizeMarket","inputs":[{"name":"market","type":"address","internalType":"address"}],"outputs":[],"stateMutability":"nonpayable"},{"type":"function","name":"authorizedMarkets","inputs":[{"name":"","type":"address","internalType":"address"}],"outputs":[{"name":"","type":"bool","internalType":"bool"}],"stateMutability":"view"},{"type":"function","name":"availableLiquidity","inputs":[],"outputs":[{"name":"","type":"uint256","internalType":"uint256"}],"stateMutability":"view"},{"type":"function","name":"borrow","inputs":[{"name":"amount","type":"uint256","internalType":"uint256"}],"outputs":[],"stateMutability":"nonpayable"},{"type":"function","name":"borrowed","inputs":[{"name":"","type":"address","internalType":"address"}],"outputs":[{"name":"","type":"uint256","internalType":"uint256"}],"stateMutability":"view"},{"type":"function","name":"contributeToPool","inputs":[{"name":"amount","type":"uint256","internalType":"uint256"}],"outputs":[],"stateMutability":"nonpayable"},{"type":"function","name":"distributeRevenue","inputs":[],"outputs":[],"stateMutability":"nonpayable"},{"type":"function","name":"getAuthorizedMarkets","inputs":[],"outputs":[{"name":"","type":"address[]","internalType":"address[]"}],"stateMutability":"view"},{"type":"function","name":"getMarketBorrowInfo","inputs":[{"name":"market","type":"address","internalType":"address"}],"outputs":[{"name":"","type":"uint256","internalType":"uint256"},{"name":"","type":"uint256","internalType":"uint256"},{"name":"","type":"uint256","internalType":"uint256"}],"stateMutability":"view"},{"type":"function","name":"isAuthorizedMarket","inputs":[{"name":"market","type":"address","internalType":"address"}],"outputs":[{"name":"","type":"bool","internalType":"bool"}],"stateMutability":"view"},{"type":"function","name":"lastRevenueDistribution","inputs":[],"outputs":[{"name":"","type":"uint256","internalType":"uint256"}],"stateMutability":"view"},{"type":"function","name":"markets","inputs":[{"name":"","type":"uint256","internalType":"uint256"}],"outputs":[{"name":"","type":"address","internalType":"address"}],"stateMutability":"view"},{"type":"function","name":"owner","inputs":[],"outputs":[{"name":"","type":"address","internalType":"address"}],"stateMutability":"view"},{"type":"function","name":"poolContributions","inputs":[{"name":"","type":"address","internalType":"address"}],"outputs":[{"name":"","type":"uint256","internalType":"uint256"}],"stateMutability":"view"},{"type":"function","name":"providerType","inputs":[],"outputs":[{"name":"","type":"string","internalType":"string"}],"stateMutability":"pure"},{"type":"function","name":"renounceOwnership","inputs":[],"outputs":[],"stateMutability":"nonpayable"},{"type":"function","name":"repay","inputs":[{"name":"principal","type":"uint256","internalType":"uint256"},{"name":"revenue","type":"uint256","internalType":"uint256"}],"outputs":[],"stateMutability":"nonpayable"},{"type":"function","name":"revokeMarket","inputs":[{"name":"market","type":"address","internalType":"address"}],"outputs":[],"stateMutability":"nonpayable"},{"type":"function","name":"totalBorrowed","inputs":[],"outputs":[{"name":"","type":"uint256","internalType":"uint256"}],"stateMutability":"view"},{"type":"function","name":"totalLiquidity","inputs":[],"outputs":[{"name":"","type":"uint256","internalType":"uint256"}],"stateMutability":"view"},{"type":"function","name":"totalPoolContributions","inputs":[],"outputs":[{"name":"","type":"uint256","internalType":"uint256"}],"stateMutability":"view"},{"type":"function","name":"totalRevenueAccumulated","inputs":[],"outputs":[{"name":"","type":"uint256","internalType":"uint256"}],"stateMutability":"view"},{"type":"function","name":"transferOwnership","inputs":[{"name":"newOwner","type":"address","internalType":"address"}],"outputs":[],"stateMutability":"nonpayable"},{"type":"function","name":"utilizationRate","inputs":[],"outputs":[{"name":"","type":"uint256","internalType":"uint256"}],"stateMutability":"view"},{"type":"event","name":"LiquidityBorrowed","inputs":[{"name":"market","type":"address","indexed":true,"internalType":"address"},{"name":"amount","type":"uint256","indexed":false,"internalType":"uint256"},{"name":"timestamp","type":"uint256","indexed":false,"internalType":"uint256"}],"anonymous":false},{"type":"event","name":"LiquidityRepaid","inputs":[{"name":"market","type":"address","indexed":true,"internalType":"address"},{"name":"principal","type":"uint256","indexed":false,"internalType":"uint256"},{"name":"revenue","type":"uint256","indexed":false,"internalType":"uint256"},{"name":"timestamp","type":"uint256","indexed":false,"internalType":"uint256"}],"anonymous":false},{"type":"event","name":"MarketAuthorizationChanged","inputs":[{"name":"market","type":"address","indexed":true,"internalType":"address"},{"name":"authorized","type":"bool","indexed":false,"internalType":"bool"}],"anonymous":false},{"type":"event","name":"OwnershipTransferred","inputs":[{"name":"previousOwner","type":"address","indexed":true,"internalType":"address"},{"name":"newOwner","type":"address","indexed":true,"internalType":"address"}],"anonymous":false},{"type":"event","name":"PoolContribution","inputs":[{"name":"contributor","type":"address","indexed":true,"internalType":"address"},{"name":"amount","type":"uint256","indexed":false,"internalType":"uint256"},{"name":"timestamp","type":"uint256","indexed":false,"internalType":"uint256"}],"anonymous":false},{"type":"event","name":"RevenueDistributed","inputs":[{"name":"amount","type":"uint256","indexed":false,"internalType":"uint256"},{"name":"timestamp","type":"uint256","indexed":false,"internalType":"uint256"}],"anonymous":false},{"type":"error","name":"ExceedsMarketBorrowLimit","inputs":[{"name":"market","type":"address","internalType":"address"},{"name":"requested","type":"uint256","internalType":"uint256"},{"name":"limit","type":"uint256","internalType":"uint256"}]},{"type":"error","name":"ExceedsUtilizationLimit","inputs":[{"name":"requested","type":"uint256","internalType":"uint256"},{"name":"available","type":"uint256","internalType":"uint256"}]},{"type":"error","name":"InsufficientBorrowBalance","inputs":[{"name":"market","type":"address","internalType":"address"},{"name":"balance","type":"uint256","internalType":"uint256"}]},{"type":"error","name":"InsufficientLiquidity","inputs":[{"name":"requested","type":"uint256","internalType":"uint256"},{"name":"available","type":"uint256","internalType":"uint256"}]},{"type":"error","name":"OwnableInvalidOwner","inputs":[{"name":"owner","type":"address","internalType":"address"}]},{"type":"error","name":"OwnableUnauthorizedAccount","inputs":[{"name":"account","type":"address","internalType":"address"}]},{"type":"error","name":"SafeERC20FailedOperation","inputs":[{"name":"token","type":"address","internalType":"address"}]},{"type":"error","name":"UnauthorizedMarket","inputs":[{"name":"market","type":"address","internalType":"address"}]}],"bytecode":{"object":"0x60a0346100fd57601f61119c38819003918201601f19168301916001600160401b03831184841017610101578084926020946040528339810103126100fd57516001600160a01b03811681036100fd5733156100ea575f8054336001600160a01b0319821681178355604051939290916001600160a01b0316907f8be0079c531659141344cd1fd0a4f28419497f9722a3daafe3b4186f6b6457e09080a360805242600855611086908161011682396080518181816103da015281816104ec015281816106440152818161091001528181610a5e01528181610d2d01528181610e640152610f430152f35b631e4fbdf760e01b5f525f60045260245ffd5b5f80fd5b634e487b7160e01b5f52604160045260245ffdfe6080806040526004361015610012575f80fd5b5f3560e01c9081630941cb3d14610da8575080631083f76114610a4957806315770f9214610d0257806329527b8214610b285780632d07953a14610a8d57806338d52e0f14610a495780634299b8a2146105b95780634c19386c14610a2c5780635552ea40146109b957806363ec6ca8146108bc5780636c321c8a146108a25780636f10cbd01461088557806370cdc93014610868578063715018a61461081157806374375359146107ef5780637b803f8414610744578063849f691f146107085780638da5cb5b146106e15780638e5815df146105fa57806399079671146105b9578063b1283e7714610577578063b4ba2e5c1461055a578063c5ebeaec1461045a578063d8aed1451461032d578063f2862e67146101c75763f2fde38b1461013a575f80fd5b346101c35760203660031901126101c3576004356001600160a01b038116908190036101c357610168610f02565b80156101b0575f80546001600160a01b03198116831782556001600160a01b0316907f8be0079c531659141344cd1fd0a4f28419497f9722a3daafe3b4186f6b6457e09080a3005b631e4fbdf760e01b5f525f60045260245ffd5b5f80fd5b346101c35760203660031901126101c3576004356001600160a01b038116908181036101c3576101f5610f02565b81156102ef57815f52600160205260ff60405f2054166102ae57815f52600160205260405f20600160ff1982541617905560045490600160401b82101561029a5761024982600161026d9401600455610de1565b9080546001600160a01b0360039390931b83811b199091169290931690921b179055565b7fc792d97102b92a6590521ee4ad4d0e32f4494d254832be13b9b600ae4ed4f662602060405160018152a2005b634e487b7160e01b5f52604160045260245ffd5b60405162461bcd60e51b815260206004820152601960248201527813585c9ad95d08185b1c9958591e48185d5d1a1bdc9a5e9959603a1b6044820152606490fd5b60405162461bcd60e51b8152602060048201526016602482015275496e76616c6964206d61726b6574206164647265737360501b6044820152606490fd5b346101c35760403660031901126101c35760043560243590335f52600160205260ff60405f2054161561044757335f5260026020528060405f2054106104245761041f7f366037aa71e6646e64ac900b7f46e1174dc8d4c3edc7556685d86a4b2768e64e91335f52600260205260405f206103a9828254610e3c565b90556103b781600354610e3c565b6003556103c684600754610e2f565b6007556103fe6103d68583610e2f565b30337f0000000000000000000000000000000000000000000000000000000000000000610fad565b60405191829133954291846040919493926060820195825260208201520152565b0390a2005b335f52600260205260405f2054631f9863b960e21b5f523360045260245260445ffd5b63320b1e2560e21b5f523360045260245ffd5b346101c35760203660031901126101c357600435335f52600160205260ff60405f205416156104475761048b610f28565b8082116105445750335f52600260205260405f206104aa828254610e2f565b90556104b881600354610e2f565b60035560405163a9059cbb60e01b602082015233602482015260448082018390528152610510906104ea606482610e0d565b7f0000000000000000000000000000000000000000000000000000000000000000610ff8565b6040519081524260208201527f6eacc78bef5c94a765db80df145e01265f64fe8665e02370dd3fd1881ced38f060403392a2005b9063a17e11d560e01b5f5260045260245260445ffd5b346101c3575f3660031901126101c3576020600754604051908152f35b346101c35760203660031901126101c3576004356004548110156101c3576105a0602091610de1565b905460405160039290921b1c6001600160a01b03168152f35b346101c35760203660031901126101c3576004356001600160a01b038116908190036101c3575f526001602052602060ff60405f2054166040519015158152f35b346101c35760203660031901126101c357600435801561069c57335f52600560205260405f2061062b828254610e2f565b905561063981600654610e2f565b6006556106688130337f0000000000000000000000000000000000000000000000000000000000000000610fad565b6040519081524260208201527f2e293e8c8092644c41b4e557bc776ce5edf901da4da118730c41ed525dba40b360403392a2005b60405162461bcd60e51b815260206004820152601d60248201527f416d6f756e74206d7573742062652067726561746572207468616e20300000006044820152606490fd5b346101c3575f3660031901126101c3575f546040516001600160a01b039091168152602090f35b346101c35760203660031901126101c3576004356001600160a01b038116908190036101c3575f526005602052602060405f2054604051908152f35b346101c3575f3660031901126101c3576040518060206004549283815201809260045f5260205f20905f5b8181106107d05750505081610785910382610e0d565b604051918291602083019060208452518091526040830191905f5b8181106107ae575050500390f35b82516001600160a01b03168452859450602093840193909201916001016107a0565b82546001600160a01b031684526020909301926001928301920161076f565b346101c3575f3660031901126101c3576020610809610f28565b604051908152f35b346101c3575f3660031901126101c357610829610f02565b5f80546001600160a01b0319811682556001600160a01b03167f8be0079c531659141344cd1fd0a4f28419497f9722a3daafe3b4186f6b6457e08280a3005b346101c3575f3660031901126101c3576020600854604051908152f35b346101c3575f3660031901126101c3576020600654604051908152f35b346101c3575f3660031901126101c3576020610809610e49565b346101c35760203660031901126101c3576004356001600160a01b038116908190036101c3575f52600260205260405f20546040516370a0823160e01b815230600482015260208160248160018060a01b037f0000000000000000000000000000000000000000000000000000000000000000165afa80156109ae575f9061097a575b61094d915060035490610e2f565b90610976610959610f28565b604051938493846040919493926060820195825260208201520152565b0390f35b506020813d6020116109a6575b8161099460209383610e0d565b810103126101c35761094d905161093f565b3d9150610987565b6040513d5f823e3d90fd5b346101c3575f3660031901126101c3576040516040810181811067ffffffffffffffff82111761029a57604052600a8152604060208201916914185c9a5b5d5d1d595b60b21b83528151928391602083525180918160208501528484015e5f828201840152601f01601f19168101030190f35b346101c3575f3660031901126101c3576020600354604051908152f35b346101c3575f3660031901126101c3576040517f00000000000000000000000000000000000000000000000000000000000000006001600160a01b03168152602090f35b346101c3575f3660031901126101c357610aa5610f02565b6007548015610ae85760407ff2838e4b541f90d41a1076a560d75e948f7d1008e72118a655568626a30b451f915f600755426008558151908152426020820152a1005b60405162461bcd60e51b81526020600482015260186024820152774e6f20726576656e756520746f206469737472696275746560401b6044820152606490fd5b346101c35760203660031901126101c3576004356001600160a01b038116908190036101c357610b56610f02565b805f52600160205260ff60405f20541615610cc557805f52600260205260405f2054610c82575f818152600160205260408120805460ff191690555b6004549081811015610c7b5782610ba882610de1565b905460039190911b1c6001600160a01b031614610bc9576001915001610b92565b5f198201918211610c6757610249610be3610bfb93610de1565b905460039190911b1c6001600160a01b031691610de1565b6004548015610c53575f1901610c1081610de1565b81549060018060a01b039060031b1b191690556004555b7fc792d97102b92a6590521ee4ad4d0e32f4494d254832be13b9b600ae4ed4f66260206040515f8152a2005b634e487b7160e01b5f52603160045260245ffd5b634e487b7160e01b5f52601160045260245ffd5b5050610c27565b60405162461bcd60e51b815260206004820152601b60248201527a13585c9ad95d081a185cc81bdd5d1cdd185b991a5b99c81919589d602a1b6044820152606490fd5b60405162461bcd60e51b815260206004820152601560248201527413585c9ad95d081b9bdd08185d5d1a1bdc9a5e9959605a1b6044820152606490fd5b346101c3575f3660031901126101c3576040516370a0823160e01b81523060048201526020816024817f00000000000000000000000000000000000000000000000000000000000000006001600160a01b03165afa9081156109ae575f91610d74575b60206108098360035490610e2f565b90506020813d602011610da0575b81610d8f60209383610e0d565b810103126101c35751610809610d65565b3d9150610d82565b346101c35760203660031901126101c3576004356001600160a01b03811691908290036101c3576020915f526002825260405f20548152f35b600454811015610df95760045f5260205f2001905f90565b634e487b7160e01b5f52603260045260245ffd5b90601f8019910116810190811067ffffffffffffffff82111761029a57604052565b91908201809211610c6757565b91908203918211610c6757565b6040516370a0823160e01b81523060048201526020816024817f00000000000000000000000000000000000000000000000000000000000000006001600160a01b03165afa9081156109ae575f91610ed0575b50610eaa6003548092610e2f565b908115610eca576127108102908082046127101490151715610c67570490565b50505f90565b90506020813d602011610efa575b81610eeb60209383610e0d565b810103126101c357515f610e9c565b3d9150610ede565b5f546001600160a01b03163303610f1557565b63118cdaa760e01b5f523360045260245ffd5b6040516370a0823160e01b81523060048201526020816024817f00000000000000000000000000000000000000000000000000000000000000006001600160a01b03165afa9081156109ae575f91610f7e575090565b90506020813d602011610fa5575b81610f9960209383610e0d565b810103126101c3575190565b3d9150610f8c565b6040516323b872dd60e01b60208201526001600160a01b039283166024820152929091166044830152606480830193909352918152610ff691610ff1608483610e0d565b610ff8565b565b905f602091828151910182855af1156109ae575f513d61104757506001600160a01b0381163b155b6110275750565b635274afe760e01b5f9081526001600160a01b0391909116600452602490fd5b6001141561102056fea26469706673582212205b0f1ff4681d50c4190535d1434a014351823d9f71840a89db7d52c6b79c4cb264736f6c634300081e0033","linkReferences":{}},"methodIdentifiers":{"asset()":"38d52e0f","assetToken()":"1083f761","authorizeMarket(address)":"f2862e67","authorizedMarkets(address)":"4299b8a2","availableLiquidity()":"74375359","borrow(uint256)":"c5ebeaec","borrowed(address)":"0941cb3d","contributeToPool(uint256)":"8e5815df","distributeRevenue()":"2d07953a","getAuthorizedMarkets()":"7b803f84","getMarketBorrowInfo(address)":"63ec6ca8","isAuthorizedMarket(address)":"99079671","lastRevenueDistribution()":"70cdc930","markets(uint256)":"b1283e77","owner()":"8da5cb5b","poolContributions(address)":"849f691f","providerType()":"5552ea40","renounceOwnership()":"715018a6","repay(uint256,uint256)":"d8aed145","revokeMarket(address)":"29527b82","totalBorrowed()":"4c19386c","totalLiquidity()":"15770f92","totalPoolContributions()":"6f10cbd0","totalRevenueAccumulated()":"b4ba2e5c","transferOwnership(address)":"f2fde38b","utilizationRate()":"6c321c8a"},"id":31}