{"abi":[{"type":"constructor","inputs":[{"name":"_rewardToken","type":"address","internalType":"address"},{"name":"_treasury","type":"address","internalType":"address"}],"stateMutability":"nonpayable"},{"type":"function","name":"BPS_DENOMINATOR","inputs":[],"outputs":[{"name":"","type":"uint256","internalType":"uint256"}],"stateMutability":"view"},{"type":"function","name":"BUDGET_WARNING_THRESHOLD_BPS","inputs":[],"outputs":[{"name":"","type":"uint256","internalType":"uint256"}],"stateMutability":"view"},{"type":"function","name":"DEFAULT_ADMIN_ROLE","inputs":[],"outputs":[{"name":"","type":"bytes32","internalType":"bytes32"}],"stateMutability":"view"},{"type":"function","name":"MAX_SCALE_BPS","inputs":[],"outputs":[{"name":"","type":"uint256","internalType":"uint256"}],"stateMutability":"view"},{"type":"function","name":"MIN_SCALE_BPS","inputs":[],"outputs":[{"name":"","type":"uint256","internalType":"uint256"}],"stateMutability":"view"},{"type":"function","name":"OPERATOR_ROLE","inputs":[],"outputs":[{"name":"","type":"bytes32","internalType":"bytes32"}],"stateMutability":"view"},{"type":"function","name":"PAUSER_ROLE","inputs":[],"outputs":[{"name":"","type":"bytes32","internalType":"bytes32"}],"stateMutability":"view"},{"type":"function","name":"autoScaleEnabled","inputs":[{"name":"","type":"uint8","internalType":"enum PayoutScaler.BudgetPool"}],"outputs":[{"name":"","type":"bool","internalType":"bool"}],"stateMutability":"view"},{"type":"function","name":"budgetStatus","inputs":[{"name":"","type":"uint8","internalType":"enum PayoutScaler.BudgetPool"}],"outputs":[{"name":"totalBudget","type":"uint256","internalType":"uint256"},{"name":"usedBudget","type":"uint256","internalType":"uint256"},{"name":"pendingPayout","type":"uint256","internalType":"uint256"},{"name":"lastRefillAt","type":"uint256","internalType":"uint256"}],"stateMutability":"view"},{"type":"function","name":"calculateScale","inputs":[{"name":"pool","type":"uint8","internalType":"enum PayoutScaler.BudgetPool"},{"name":"period","type":"uint256","internalType":"uint256"},{"name":"requestedAmount","type":"uint256","internalType":"uint256"}],"outputs":[{"name":"scaleBps","type":"uint256","internalType":"uint256"},{"name":"scaledAmount","type":"uint256","internalType":"uint256"}],"stateMutability":"nonpayable"},{"type":"function","name":"emergencyWithdraw","inputs":[{"name":"to","type":"address","internalType":"address"},{"name":"amount","type":"uint256","internalType":"uint256"}],"outputs":[],"stateMutability":"nonpayable"},{"type":"function","name":"getBudgetStatus","inputs":[{"name":"pool","type":"uint8","internalType":"enum PayoutScaler.BudgetPool"}],"outputs":[{"name":"total","type":"uint256","internalType":"uint256"},{"name":"used","type":"uint256","internalType":"uint256"},{"name":"pending","type":"uint256","internalType":"uint256"},{"name":"available","type":"uint256","internalType":"uint256"}],"stateMutability":"view"},{"type":"function","name":"getPeriodScale","inputs":[{"name":"pool","type":"uint8","internalType":"enum PayoutScaler.BudgetPool"},{"name":"period","type":"uint256","internalType":"uint256"}],"outputs":[{"name":"scaleBps","type":"uint256","internalType":"uint256"}],"stateMutability":"view"},{"type":"function","name":"getRoleAdmin","inputs":[{"name":"role","type":"bytes32","internalType":"bytes32"}],"outputs":[{"name":"","type":"bytes32","internalType":"bytes32"}],"stateMutability":"view"},{"type":"function","name":"getScalingHistoryCount","inputs":[],"outputs":[{"name":"count","type":"uint256","internalType":"uint256"}],"stateMutability":"view"},{"type":"function","name":"grantRole","inputs":[{"name":"role","type":"bytes32","internalType":"bytes32"},{"name":"account","type":"address","internalType":"address"}],"outputs":[],"stateMutability":"nonpayable"},{"type":"function","name":"hasRole","inputs":[{"name":"role","type":"bytes32","internalType":"bytes32"},{"name":"account","type":"address","internalType":"address"}],"outputs":[{"name":"","type":"bool","internalType":"bool"}],"stateMutability":"view"},{"type":"function","name":"markBudgetUsed","inputs":[{"name":"pool","type":"uint8","internalType":"enum PayoutScaler.BudgetPool"},{"name":"period","type":"uint256","internalType":"uint256"},{"name":"amount","type":"uint256","internalType":"uint256"}],"outputs":[],"stateMutability":"nonpayable"},{"type":"function","name":"pause","inputs":[],"outputs":[],"stateMutability":"nonpayable"},{"type":"function","name":"paused","inputs":[],"outputs":[{"name":"","type":"bool","internalType":"bool"}],"stateMutability":"view"},{"type":"function","name":"periodScaleBps","inputs":[{"name":"","type":"uint8","internalType":"enum PayoutScaler.BudgetPool"},{"name":"","type":"uint256","internalType":"uint256"}],"outputs":[{"name":"","type":"uint256","internalType":"uint256"}],"stateMutability":"view"},{"type":"function","name":"previewScale","inputs":[{"name":"pool","type":"uint8","internalType":"enum PayoutScaler.BudgetPool"},{"name":"requestedAmount","type":"uint256","internalType":"uint256"}],"outputs":[{"name":"scaleBps","type":"uint256","internalType":"uint256"},{"name":"scaledAmount","type":"uint256","internalType":"uint256"}],"stateMutability":"view"},{"type":"function","name":"refillBudget","inputs":[{"name":"pool","type":"uint8","internalType":"enum PayoutScaler.BudgetPool"},{"name":"amount","type":"uint256","internalType":"uint256"}],"outputs":[],"stateMutability":"nonpayable"},{"type":"function","name":"renounceRole","inputs":[{"name":"role","type":"bytes32","internalType":"bytes32"},{"name":"callerConfirmation","type":"address","internalType":"address"}],"outputs":[],"stateMutability":"nonpayable"},{"type":"function","name":"revokeRole","inputs":[{"name":"role","type":"bytes32","internalType":"bytes32"},{"name":"account","type":"address","internalType":"address"}],"outputs":[],"stateMutability":"nonpayable"},{"type":"function","name":"rewardToken","inputs":[],"outputs":[{"name":"","type":"address","internalType":"contract IERC20"}],"stateMutability":"view"},{"type":"function","name":"scalingHistory","inputs":[{"name":"","type":"uint256","internalType":"uint256"}],"outputs":[{"name":"pool","type":"uint8","internalType":"enum PayoutScaler.BudgetPool"},{"name":"period","type":"uint256","internalType":"uint256"},{"name":"requestedAmount","type":"uint256","internalType":"uint256"},{"name":"availableBudget","type":"uint256","internalType":"uint256"},{"name":"scaleBps","type":"uint256","internalType":"uint256"},{"name":"scaledAmount","type":"uint256","internalType":"uint256"},{"name":"timestamp","type":"uint256","internalType":"uint256"}],"stateMutability":"view"},{"type":"function","name":"setAutoScale","inputs":[{"name":"pool","type":"uint8","internalType":"enum PayoutScaler.BudgetPool"},{"name":"enabled","type":"bool","internalType":"bool"}],"outputs":[],"stateMutability":"nonpayable"},{"type":"function","name":"setTreasury","inputs":[{"name":"newTreasury","type":"address","internalType":"address"}],"outputs":[],"stateMutability":"nonpayable"},{"type":"function","name":"supportsInterface","inputs":[{"name":"interfaceId","type":"bytes4","internalType":"bytes4"}],"outputs":[{"name":"","type":"bool","internalType":"bool"}],"stateMutability":"view"},{"type":"function","name":"treasury","inputs":[],"outputs":[{"name":"","type":"address","internalType":"address"}],"stateMutability":"view"},{"type":"function","name":"unpause","inputs":[],"outputs":[],"stateMutability":"nonpayable"},{"type":"event","name":"AutoScaleUpdated","inputs":[{"name":"pool","type":"uint8","indexed":true,"internalType":"enum PayoutScaler.BudgetPool"},{"name":"enabled","type":"bool","indexed":false,"internalType":"bool"}],"anonymous":false},{"type":"event","name":"BudgetRefilled","inputs":[{"name":"pool","type":"uint8","indexed":true,"internalType":"enum PayoutScaler.BudgetPool"},{"name":"amount","type":"uint256","indexed":false,"internalType":"uint256"},{"name":"newTotal","type":"uint256","indexed":false,"internalType":"uint256"}],"anonymous":false},{"type":"event","name":"BudgetUsed","inputs":[{"name":"pool","type":"uint8","indexed":true,"internalType":"enum PayoutScaler.BudgetPool"},{"name":"period","type":"uint256","indexed":true,"internalType":"uint256"},{"name":"amount","type":"uint256","indexed":false,"internalType":"uint256"},{"name":"remainingBudget","type":"uint256","indexed":false,"internalType":"uint256"}],"anonymous":false},{"type":"event","name":"BudgetWarning","inputs":[{"name":"pool","type":"uint8","indexed":true,"internalType":"enum PayoutScaler.BudgetPool"},{"name":"availableBudget","type":"uint256","indexed":false,"internalType":"uint256"},{"name":"requestedAmount","type":"uint256","indexed":false,"internalType":"uint256"},{"name":"utilizationBps","type":"uint256","indexed":false,"internalType":"uint256"}],"anonymous":false},{"type":"event","name":"Paused","inputs":[{"name":"account","type":"address","indexed":false,"internalType":"address"}],"anonymous":false},{"type":"event","name":"RoleAdminChanged","inputs":[{"name":"role","type":"bytes32","indexed":true,"internalType":"bytes32"},{"name":"previousAdminRole","type":"bytes32","indexed":true,"internalType":"bytes32"},{"name":"newAdminRole","type":"bytes32","indexed":true,"internalType":"bytes32"}],"anonymous":false},{"type":"event","name":"RoleGranted","inputs":[{"name":"role","type":"bytes32","indexed":true,"internalType":"bytes32"},{"name":"account","type":"address","indexed":true,"internalType":"address"},{"name":"sender","type":"address","indexed":true,"internalType":"address"}],"anonymous":false},{"type":"event","name":"RoleRevoked","inputs":[{"name":"role","type":"bytes32","indexed":true,"internalType":"bytes32"},{"name":"account","type":"address","indexed":true,"internalType":"address"},{"name":"sender","type":"address","indexed":true,"internalType":"address"}],"anonymous":false},{"type":"event","name":"ScalingCalculated","inputs":[{"name":"pool","type":"uint8","indexed":true,"internalType":"enum PayoutScaler.BudgetPool"},{"name":"period","type":"uint256","indexed":true,"internalType":"uint256"},{"name":"requestedAmount","type":"uint256","indexed":false,"internalType":"uint256"},{"name":"availableBudget","type":"uint256","indexed":false,"internalType":"uint256"},{"name":"scaleBps","type":"uint256","indexed":false,"internalType":"uint256"},{"name":"scaledAmount","type":"uint256","indexed":false,"internalType":"uint256"},{"name":"recordId","type":"uint256","indexed":false,"internalType":"uint256"}],"anonymous":false},{"type":"event","name":"TreasuryUpdated","inputs":[{"name":"oldTreasury","type":"address","indexed":true,"internalType":"address"},{"name":"newTreasury","type":"address","indexed":true,"internalType":"address"}],"anonymous":false},{"type":"event","name":"Unpaused","inputs":[{"name":"account","type":"address","indexed":false,"internalType":"address"}],"anonymous":false},{"type":"error","name":"AccessControlBadConfirmation","inputs":[]},{"type":"error","name":"AccessControlUnauthorizedAccount","inputs":[{"name":"account","type":"address","internalType":"address"},{"name":"neededRole","type":"bytes32","internalType":"bytes32"}]},{"type":"error","name":"BudgetExhausted","inputs":[]},{"type":"error","name":"EnforcedPause","inputs":[]},{"type":"error","name":"ExpectedPause","inputs":[]},{"type":"error","name":"InsufficientBudget","inputs":[]},{"type":"error","name":"InvalidPool","inputs":[]},{"type":"error","name":"InvalidScaleBps","inputs":[]},{"type":"error","name":"ZeroAddress","inputs":[]},{"type":"error","name":"ZeroAmount","inputs":[]}],"bytecode":{"object":"0x60a0346101a657601f61170638819003918201601f19168301916001600160401b038311848410176101aa5780849260409485528339810103126101a657610052602061004b836101be565b92016101be565b906001600160a01b031680158015610195575b61018657608052600680546001600160a01b0319166001600160a01b0392909216919091179055610095336101d2565b5061009f33610248565b506100a9336102db565b5060056020527f05b8ccbb9d4d8fb16ea74ce3c29a41f1b461fbdaff4714a0d9a8eb05499746bc8054600160ff1991821681179092557f1471eb6eb2c5e789fc3de43f8ce62938c7d1836ec861730447e2ada8fd81017b80548216831790557f89832631fb3c3307a103ba2c84ab569c64d6182a18893dcd163f0f1c2090733a805482168317905560035f527fa9bc9a3a348c357ba16b37005d7e6b3236198c0e939f4af8c5f19b8deeb8ebc080549091169091179055604051611317908161036f8239608051818181610191015281816104e401526106ad0152f35b63d92e233d60e01b5f5260045ffd5b506001600160a01b03821615610065565b5f80fd5b634e487b7160e01b5f52604160045260245ffd5b51906001600160a01b03821682036101a657565b6001600160a01b0381165f9081525f5160206116e65f395f51905f52602052604090205460ff16610243576001600160a01b03165f8181525f5160206116e65f395f51905f5260205260408120805460ff191660011790553391905f5160206116865f395f51905f528180a4600190565b505f90565b6001600160a01b0381165f9081525f5160206116c65f395f51905f52602052604090205460ff16610243576001600160a01b03165f8181525f5160206116c65f395f51905f5260205260408120805460ff191660011790553391907f97667070c54ef182b0f5858b034beac1b6f3089aa2d3188bb1e8929f4fa9b929905f5160206116865f395f51905f529080a4600190565b6001600160a01b0381165f9081525f5160206116a65f395f51905f52602052604090205460ff16610243576001600160a01b03165f8181525f5160206116a65f395f51905f5260205260408120805460ff191660011790553391907f65d7a28e3265b37a6474929f336521b332c1681b933f6cb9f3376673440d862a905f5160206116865f395f51905f529080a460019056fe6080806040526004361015610012575f80fd5b5f3560e01c90816301ffc9a714610ddc57508063089269b1146107fa57806318fafd6514610dc057806319cca0c814610a6357806320ba9e1914610403578063248a9ca314610a315780632f2ff15d146109f457806336568abe146109b05780633f4ba83a1461094a57806341cca0311461088e5780635648b78a146108715780635c975abb1461084f57806361d027b314610827578063799a30d7146107fa57806380997cba1461079b5780638456cb591461074357806391d14854146106fb57806395ccea671461064f5780639c8865bd146105e8578063a217fddf146105ce578063af6727ef146105b2578063beb6717514610482578063c8e0e6271461044c578063d547741f14610408578063e1a4521814610403578063e63ab1e9146103c9578063ebe8cf2b146103a4578063efa746551461030e578063f0f442601461028c578063f5b541a614610252578063f6b42368146101c45763f7c618c11461017c575f80fd5b346101c0575f3660031901126101c0576040517f00000000000000000000000000000000000000000000000000000000000000006001600160a01b03168152602090f35b5f80fd5b346101c05760403660031901126101c05760043560048110156101c0576024358015158091036101c0576101f6611137565b600360ff8316116102445760207f384bfe566ea01a9969bdb8782bd12af41798d6f817e83fa098eda903123a61f99161022e84610ee7565b60ff1981541660ff8316179055604051908152a2005b62820f3560e61b5f5260045ffd5b346101c0575f3660031901126101c05760206040517f97667070c54ef182b0f5858b034beac1b6f3089aa2d3188bb1e8929f4fa9b9298152f35b346101c05760203660031901126101c0576102a5610ea3565b6102ad611137565b6001600160a01b031680156102ff57600680546001600160a01b0319811683179091556001600160a01b03167f4ab5be82436d353e61ca18726e984e561f5c1cc7c6d38b29d2553c790434705a5f80a3005b63d92e233d60e01b5f5260045ffd5b346101c05760203660031901126101c0576004356003548110156101c05761033590610efe565b5060ff81541690600181015490600281015490600381015460048201549060066005840154930154936040519560048810156103905760e0978752602087015260408601526060850152608084015260a083015260c0820152f35b634e487b7160e01b5f52602160045260245ffd5b346101c05760406103bd6103b736610e2f565b90610fb3565b82519182526020820152f35b346101c0575f3660031901126101c05760206040517f65d7a28e3265b37a6474929f336521b332c1681b933f6cb9f3376673440d862a8152f35b610e71565b346101c05760403660031901126101c05761044a600435610427610e8d565b90610445610440825f525f602052600160405f20015490565b611186565b611261565b005b346101c05760203660031901126101c05760043560048110156101c05760ff610476602092610ee7565b54166040519015158152f35b346101c05761049036610e2f565b610498611137565b6104a06111be565b80156105a357600482101561039057600360ff831611610244576040516323b872dd60e01b815233600482015230602482015260448101829052906020826064815f7f00000000000000000000000000000000000000000000000000000000000000006001600160a01b03165af1908115610598577f1858ffffa395241de4e33e3ba83781fb61518fcb122b48a69b7bc25b7a6364009260409261056b575b5061054984610ed0565b610554828254610f8e565b9081815560034291015582519182526020820152a2005b61058c9060203d602011610591575b6105848183610f6c565b810190610f9b565b61053f565b503d61057a565b6040513d5f823e3d90fd5b631f2a200560e01b5f5260045ffd5b346101c0575f3660031901126101c05760206040516107d08152f35b346101c0575f3660031901126101c05760206040515f8152f35b346101c05760203660031901126101c05760043560048110156101c05761060e90610ed0565b805461064b600260018401549301546106278484610f2e565b90604051948594859094939260609260808301968352602083015260408201520152565b0390f35b346101c05760403660031901126101c057610668610ea3565b60243590610674611137565b6001600160a01b03169081156102ff5780156105a35760405163a9059cbb60e01b8152600481019290925260248201526020816044815f7f00000000000000000000000000000000000000000000000000000000000000006001600160a01b03165af18015610598576106e357005b61044a9060203d602011610591576105848183610f6c565b346101c05760403660031901126101c057610714610e8d565b6004355f525f60205260405f209060018060a01b03165f52602052602060ff60405f2054166040519015158152f35b346101c0575f3660031901126101c05761075b6110c8565b6107636111be565b600160ff19815416176001557f62e78cea01bee320cd4e420270b5ea74000d11b0c9f74754ebdbfc544b05a2586020604051338152a1005b346101c05760203660031901126101c05760043560048110156101c0576107c190610ed0565b805461064b6001830154926003600282015491015490604051948594859094939260609260808301968352602083015260408201520152565b346101c05761081261080b36610e2f565b9190610eb9565b905f52602052602060405f2054604051908152f35b346101c0575f3660031901126101c0576006546040516001600160a01b039091168152602090f35b346101c0575f3660031901126101c057602060ff600154166040519015158152f35b346101c0575f3660031901126101c0576020600354604051908152f35b346101c05761089c36610e4e565b6108a7929192611059565b6108af6111be565b600482101561039057600360ff8316116102445780156105a3576108d282610ed0565b600281019182549281841061093b577f679a928d6efcfaafbfe720b7287f4473db5f51a647d581fbfb4f71aba6101a3a938361092e92610926856001604098019461091e828754610f8e565b809655610f2e565b905554610f2e565b82519182526020820152a3005b634dd23c8b60e01b5f5260045ffd5b346101c0575f3660031901126101c0576109626110c8565b60015460ff8116156109a15760ff19166001557f5db9ee0a495bf2e6ff9c91a7834c1ba4fdd244a5e8aa4e537bd38aeae4b073aa6020604051338152a1005b638dfc202b60e01b5f5260045ffd5b346101c05760403660031901126101c0576109c9610e8d565b336001600160a01b038216036109e55761044a90600435611261565b63334bd91960e11b5f5260045ffd5b346101c05760403660031901126101c05761044a600435610a13610e8d565b90610a2c610440825f525f602052600160405f20015490565b6111d9565b346101c05760203660031901126101c0576020610a5b6004355f525f602052600160405f20015490565b604051908152f35b346101c057610a7136610e4e565b610a7c929192611059565b610a846111be565b6004821015928361039057600360ff8416116102445781156105a357610aa983610ed0565b928354936001810154610abc8187610f2e565b958615610d06575b858710610c2757505061271094845b6003546040519860e08a018a811067ffffffffffffffff821117610c135760405261039057848952602089019286845260408a019383855260608b019582875260808c019b8b8d5260a081018b815260c0820142815268010000000000000000871015610c135760018701600355610b4a87610efe565b939093610c0057519160048310156103905760409f7fc07926cf1c1c8f8ac0fc9d3a1dbe16eb702b3402dbac2a8958c9861f6983fb759b60a09b60029860069660ff80198a54169116178855516001880155518887015551600386015551600485015551600584015551910155610bc088610eb9565b895f526020528a8c5f205501610bd7898254610f8e565b90558951928352602083015287898301528660608301526080820152a382519182526020820152f35b634e487b7160e01b5f525f60045260245ffd5b634e487b7160e01b5f52604160045260245ffd5b9460ff610c3685989398610ee7565b54161561093b5761271082028281046127101483151715610ce85781610c5b91610f4e565b966103e88810610cfc575b612710610c738984610f3b565b04966127108202918083046127101490151715610ce857610c9391610f4e565b886107d08211610ca5575b5050610ad3565b610390577f378b262045b466036a3aa4fb6929dca94fa9ed3a24a7b776aafd38e41c6ada9460608692604051908682528560208301526040820152a28888610c9e565b634e487b7160e01b5f52601160045260245ffd5b6103e89750610c66565b909650945060038214610db15760035f5260026020527f88601476d11616a71c5be67555bd1dff4b1cbf21533d2669b768b61518cfe1c3547f88601476d11616a71c5be67555bd1dff4b1cbf21533d2669b768b61518cfe1c454610d6991610f2e565b958615610db1575f96837f378b262045b466036a3aa4fb6929dca94fa9ed3a24a7b776aafd38e41c6ada9460606040515f81528960208201526127106040820152a295610ac4565b630b1ca52960e11b5f5260045ffd5b346101c0575f3660031901126101c05760206040516103e88152f35b346101c05760203660031901126101c0576004359063ffffffff60e01b82168092036101c057602091637965db0b60e01b8114908115610e1e575b5015158152f35b6301ffc9a760e01b14905083610e17565b60409060031901126101c05760043560048110156101c0579060243590565b60609060031901126101c05760043560048110156101c057906024359060443590565b346101c0575f3660031901126101c05760206040516127108152f35b602435906001600160a01b03821682036101c057565b600435906001600160a01b03821682036101c057565b6004811015610390575f52600460205260405f2090565b6004811015610390575f52600260205260405f2090565b6004811015610390575f52600560205260405f2090565b600354811015610f1a5760035f52600760205f20910201905f90565b634e487b7160e01b5f52603260045260245ffd5b91908203918211610ce857565b81810292918115918404141715610ce857565b8115610f58570490565b634e487b7160e01b5f52601260045260245ffd5b90601f8019910116810190811067ffffffffffffffff821117610c1357604052565b91908201809211610ce857565b908160209103126101c0575180151581036101c05790565b919091600481101561039057600360ff82161161105157821561105157610fe9610fdc82610ed0565b6001815491015490610f2e565b90838210610ffa5750506127109190565b61100560ff91610ee7565b541615611051576127108102908082046127101490151715610ce8578261102b91610f4e565b916103e88310611047575b6110438361271092610f3b565b0490565b6103e89250611036565b505f91508190565b335f9081527fee57cd81e84075558e8fcc182a1f4393f91fc97f963a136e66b7f949a62f319f602052604090205460ff161561109157565b63e2517d3f60e01b5f52336004527f97667070c54ef182b0f5858b034beac1b6f3089aa2d3188bb1e8929f4fa9b92960245260445ffd5b335f9081527ff7c9542c591017a21c74b6f3fab6263c7952fc0aaf9db4c22a2a04ddc7f8674f602052604090205460ff161561110057565b63e2517d3f60e01b5f52336004527f65d7a28e3265b37a6474929f336521b332c1681b933f6cb9f3376673440d862a60245260445ffd5b335f9081527fad3228b676f7d3cd4284a5443f17f1962b36e491b30a40b2405849e597ba5fb5602052604090205460ff161561116f57565b63e2517d3f60e01b5f52336004525f60245260445ffd5b5f8181526020818152604080832033845290915290205460ff16156111a85750565b63e2517d3f60e01b5f523360045260245260445ffd5b60ff600154166111ca57565b63d93c066560e01b5f5260045ffd5b5f818152602081815260408083206001600160a01b038616845290915290205460ff1661125b575f818152602081815260408083206001600160a01b0395909516808452949091528120805460ff19166001179055339291907f2f8788117e7eff1d82e926ec794901d17c78024a50270940304540a733656f0d9080a4600190565b50505f90565b5f818152602081815260408083206001600160a01b038616845290915290205460ff161561125b575f818152602081815260408083206001600160a01b0395909516808452949091528120805460ff19169055339291907ff6391f5c32d9c69d2a47ea670b442974b53935d1edc7fd64eb21e047a839171b9080a460019056fea264697066735822122083f66957303f9360443f3f96399f546ba5310504ff1cb64de352371e9f42f8a564736f6c634300081e00332f8788117e7eff1d82e926ec794901d17c78024a50270940304540a733656f0df7c9542c591017a21c74b6f3fab6263c7952fc0aaf9db4c22a2a04ddc7f8674fee57cd81e84075558e8fcc182a1f4393f91fc97f963a136e66b7f949a62f319fad3228b676f7d3cd4284a5443f17f1962b36e491b30a40b2405849e597ba5fb5","linkReferences":{}},"methodIdentifiers":{"BPS_DENOMINATOR()":"e1a45218","BUDGET_WARNING_THRESHOLD_BPS()":"af6727ef","DEFAULT_ADMIN_ROLE()":"a217fddf","MAX_SCALE_BPS()":"20ba9e19","MIN_SCALE_BPS()":"18fafd65","OPERATOR_ROLE()":"f5b541a6","PAUSER_ROLE()":"e63ab1e9","autoScaleEnabled(uint8)":"c8e0e627","budgetStatus(uint8)":"80997cba","calculateScale(uint8,uint256,uint256)":"19cca0c8","emergencyWithdraw(address,uint256)":"95ccea67","getBudgetStatus(uint8)":"9c8865bd","getPeriodScale(uint8,uint256)":"089269b1","getRoleAdmin(bytes32)":"248a9ca3","getScalingHistoryCount()":"5648b78a","grantRole(bytes32,address)":"2f2ff15d","hasRole(bytes32,address)":"91d14854","markBudgetUsed(uint8,uint256,uint256)":"41cca031","pause()":"8456cb59","paused()":"5c975abb","periodScaleBps(uint8,uint256)":"799a30d7","previewScale(uint8,uint256)":"ebe8cf2b","refillBudget(uint8,uint256)":"beb67175","renounceRole(bytes32,address)":"36568abe","revokeRole(bytes32,address)":"d547741f","rewardToken()":"f7c618c1","scalingHistory(uint256)":"efa74655","setAutoScale(uint8,bool)":"f6b42368","setTreasury(address)":"f0f44260","supportsInterface(bytes4)":"01ffc9a7","treasury()":"61d027b3","unpause()":"3f4ba83a"},"id":39}