{"abi":[{"type":"constructor","inputs":[{"name":"admin","type":"address","internalType":"address"},{"name":"_campaignContract","type":"address","internalType":"address"}],"stateMutability":"nonpayable"},{"type":"function","name":"ADMIN_ROLE","inputs":[],"outputs":[{"name":"","type":"bytes32","internalType":"bytes32"}],"stateMutability":"view"},{"type":"function","name":"DEFAULT_ADMIN_ROLE","inputs":[],"outputs":[{"name":"","type":"bytes32","internalType":"bytes32"}],"stateMutability":"view"},{"type":"function","name":"OPERATOR_ROLE","inputs":[],"outputs":[{"name":"","type":"bytes32","internalType":"bytes32"}],"stateMutability":"view"},{"type":"function","name":"campaignContract","inputs":[],"outputs":[{"name":"","type":"address","internalType":"contract ICampaign"}],"stateMutability":"view"},{"type":"function","name":"claimReward","inputs":[{"name":"questId","type":"bytes32","internalType":"bytes32"}],"outputs":[],"stateMutability":"nonpayable"},{"type":"function","name":"createQuest","inputs":[{"name":"questId","type":"bytes32","internalType":"bytes32"},{"name":"campaignId","type":"bytes32","internalType":"bytes32"},{"name":"questType","type":"uint8","internalType":"enum IQuest.QuestType"},{"name":"name","type":"string","internalType":"string"},{"name":"rewardAmount","type":"uint256","internalType":"uint256"},{"name":"targetValue","type":"uint256","internalType":"uint256"},{"name":"startTime","type":"uint256","internalType":"uint256"},{"name":"endTime","type":"uint256","internalType":"uint256"}],"outputs":[],"stateMutability":"nonpayable"},{"type":"function","name":"endQuest","inputs":[{"name":"questId","type":"bytes32","internalType":"bytes32"}],"outputs":[],"stateMutability":"nonpayable"},{"type":"function","name":"getAllQuestIds","inputs":[],"outputs":[{"name":"questIds","type":"bytes32[]","internalType":"bytes32[]"}],"stateMutability":"view"},{"type":"function","name":"getQuestCount","inputs":[],"outputs":[{"name":"count","type":"uint256","internalType":"uint256"}],"stateMutability":"view"},{"type":"function","name":"getQuestInfo","inputs":[{"name":"questId","type":"bytes32","internalType":"bytes32"}],"outputs":[{"name":"info","type":"tuple","internalType":"struct IQuest.QuestInfo","components":[{"name":"questId","type":"bytes32","internalType":"bytes32"},{"name":"campaignId","type":"bytes32","internalType":"bytes32"},{"name":"questType","type":"uint8","internalType":"enum IQuest.QuestType"},{"name":"name","type":"string","internalType":"string"},{"name":"rewardAmount","type":"uint256","internalType":"uint256"},{"name":"targetValue","type":"uint256","internalType":"uint256"},{"name":"startTime","type":"uint256","internalType":"uint256"},{"name":"endTime","type":"uint256","internalType":"uint256"},{"name":"status","type":"uint8","internalType":"enum IQuest.QuestStatus"},{"name":"completionCount","type":"uint256","internalType":"uint256"}]}],"stateMutability":"view"},{"type":"function","name":"getRoleAdmin","inputs":[{"name":"role","type":"bytes32","internalType":"bytes32"}],"outputs":[{"name":"","type":"bytes32","internalType":"bytes32"}],"stateMutability":"view"},{"type":"function","name":"getUserProgress","inputs":[{"name":"questId","type":"bytes32","internalType":"bytes32"},{"name":"user","type":"address","internalType":"address"}],"outputs":[{"name":"progress","type":"tuple","internalType":"struct IQuest.UserQuestProgress","components":[{"name":"currentValue","type":"uint256","internalType":"uint256"},{"name":"lastUpdateTime","type":"uint256","internalType":"uint256"},{"name":"completed","type":"bool","internalType":"bool"},{"name":"rewardClaimed","type":"bool","internalType":"bool"}]}],"stateMutability":"view"},{"type":"function","name":"grantRole","inputs":[{"name":"role","type":"bytes32","internalType":"bytes32"},{"name":"account","type":"address","internalType":"address"}],"outputs":[],"stateMutability":"nonpayable"},{"type":"function","name":"hasRole","inputs":[{"name":"role","type":"bytes32","internalType":"bytes32"},{"name":"account","type":"address","internalType":"address"}],"outputs":[{"name":"","type":"bool","internalType":"bool"}],"stateMutability":"view"},{"type":"function","name":"isActive","inputs":[{"name":"questId","type":"bytes32","internalType":"bytes32"}],"outputs":[{"name":"active","type":"bool","internalType":"bool"}],"stateMutability":"view"},{"type":"function","name":"isCompleted","inputs":[{"name":"questId","type":"bytes32","internalType":"bytes32"},{"name":"user","type":"address","internalType":"address"}],"outputs":[{"name":"completed","type":"bool","internalType":"bool"}],"stateMutability":"view"},{"type":"function","name":"isRewardClaimed","inputs":[{"name":"questId","type":"bytes32","internalType":"bytes32"},{"name":"user","type":"address","internalType":"address"}],"outputs":[{"name":"claimed","type":"bool","internalType":"bool"}],"stateMutability":"view"},{"type":"function","name":"pauseQuest","inputs":[{"name":"questId","type":"bytes32","internalType":"bytes32"}],"outputs":[],"stateMutability":"nonpayable"},{"type":"function","name":"renounceRole","inputs":[{"name":"role","type":"bytes32","internalType":"bytes32"},{"name":"callerConfirmation","type":"address","internalType":"address"}],"outputs":[],"stateMutability":"nonpayable"},{"type":"function","name":"resumeQuest","inputs":[{"name":"questId","type":"bytes32","internalType":"bytes32"}],"outputs":[],"stateMutability":"nonpayable"},{"type":"function","name":"revokeRole","inputs":[{"name":"role","type":"bytes32","internalType":"bytes32"},{"name":"account","type":"address","internalType":"address"}],"outputs":[],"stateMutability":"nonpayable"},{"type":"function","name":"supportsInterface","inputs":[{"name":"interfaceId","type":"bytes4","internalType":"bytes4"}],"outputs":[{"name":"","type":"bool","internalType":"bool"}],"stateMutability":"view"},{"type":"function","name":"updateProgress","inputs":[{"name":"questId","type":"bytes32","internalType":"bytes32"},{"name":"user","type":"address","internalType":"address"},{"name":"incrementValue","type":"uint256","internalType":"uint256"}],"outputs":[],"stateMutability":"nonpayable"},{"type":"function","name":"verifyCompletion","inputs":[{"name":"questId","type":"bytes32","internalType":"bytes32"},{"name":"user","type":"address","internalType":"address"}],"outputs":[],"stateMutability":"nonpayable"},{"type":"event","name":"QuestCompleted","inputs":[{"name":"questId","type":"bytes32","indexed":true,"internalType":"bytes32"},{"name":"user","type":"address","indexed":true,"internalType":"address"},{"name":"timestamp","type":"uint256","indexed":false,"internalType":"uint256"}],"anonymous":false},{"type":"event","name":"QuestCreated","inputs":[{"name":"questId","type":"bytes32","indexed":true,"internalType":"bytes32"},{"name":"campaignId","type":"bytes32","indexed":true,"internalType":"bytes32"},{"name":"questType","type":"uint8","indexed":false,"internalType":"enum IQuest.QuestType"},{"name":"name","type":"string","indexed":false,"internalType":"string"},{"name":"rewardAmount","type":"uint256","indexed":false,"internalType":"uint256"},{"name":"targetValue","type":"uint256","indexed":false,"internalType":"uint256"},{"name":"startTime","type":"uint256","indexed":false,"internalType":"uint256"},{"name":"endTime","type":"uint256","indexed":false,"internalType":"uint256"}],"anonymous":false},{"type":"event","name":"QuestProgressUpdated","inputs":[{"name":"questId","type":"bytes32","indexed":true,"internalType":"bytes32"},{"name":"user","type":"address","indexed":true,"internalType":"address"},{"name":"currentValue","type":"uint256","indexed":false,"internalType":"uint256"},{"name":"targetValue","type":"uint256","indexed":false,"internalType":"uint256"}],"anonymous":false},{"type":"event","name":"QuestRewardClaimed","inputs":[{"name":"questId","type":"bytes32","indexed":true,"internalType":"bytes32"},{"name":"user","type":"address","indexed":true,"internalType":"address"},{"name":"rewardAmount","type":"uint256","indexed":false,"internalType":"uint256"}],"anonymous":false},{"type":"event","name":"QuestStatusChanged","inputs":[{"name":"questId","type":"bytes32","indexed":true,"internalType":"bytes32"},{"name":"oldStatus","type":"uint8","indexed":false,"internalType":"enum IQuest.QuestStatus"},{"name":"newStatus","type":"uint8","indexed":false,"internalType":"enum IQuest.QuestStatus"}],"anonymous":false},{"type":"event","name":"RoleAdminChanged","inputs":[{"name":"role","type":"bytes32","indexed":true,"internalType":"bytes32"},{"name":"previousAdminRole","type":"bytes32","indexed":true,"internalType":"bytes32"},{"name":"newAdminRole","type":"bytes32","indexed":true,"internalType":"bytes32"}],"anonymous":false},{"type":"event","name":"RoleGranted","inputs":[{"name":"role","type":"bytes32","indexed":true,"internalType":"bytes32"},{"name":"account","type":"address","indexed":true,"internalType":"address"},{"name":"sender","type":"address","indexed":true,"internalType":"address"}],"anonymous":false},{"type":"event","name":"RoleRevoked","inputs":[{"name":"role","type":"bytes32","indexed":true,"internalType":"bytes32"},{"name":"account","type":"address","indexed":true,"internalType":"address"},{"name":"sender","type":"address","indexed":true,"internalType":"address"}],"anonymous":false},{"type":"error","name":"AccessControlBadConfirmation","inputs":[]},{"type":"error","name":"AccessControlUnauthorizedAccount","inputs":[{"name":"account","type":"address","internalType":"address"},{"name":"neededRole","type":"bytes32","internalType":"bytes32"}]},{"type":"error","name":"CampaignNotActive","inputs":[{"name":"campaignId","type":"bytes32","internalType":"bytes32"}]},{"type":"error","name":"InvalidQuestType","inputs":[{"name":"questType","type":"uint8","internalType":"enum IQuest.QuestType"}]},{"type":"error","name":"InvalidTargetValue","inputs":[{"name":"targetValue","type":"uint256","internalType":"uint256"}]},{"type":"error","name":"QuestAlreadyCompleted","inputs":[{"name":"questId","type":"bytes32","internalType":"bytes32"},{"name":"user","type":"address","internalType":"address"}]},{"type":"error","name":"QuestAlreadyExists","inputs":[{"name":"questId","type":"bytes32","internalType":"bytes32"}]},{"type":"error","name":"QuestNotActive","inputs":[{"name":"questId","type":"bytes32","internalType":"bytes32"}]},{"type":"error","name":"QuestNotCompleted","inputs":[{"name":"questId","type":"bytes32","internalType":"bytes32"},{"name":"user","type":"address","internalType":"address"}]},{"type":"error","name":"QuestNotFound","inputs":[{"name":"questId","type":"bytes32","internalType":"bytes32"}]},{"type":"error","name":"ReentrancyGuardReentrantCall","inputs":[]},{"type":"error","name":"RewardAlreadyClaimed","inputs":[{"name":"questId","type":"bytes32","internalType":"bytes32"},{"name":"user","type":"address","internalType":"address"}]}],"bytecode":{"object":"0x60a03461014557601f611a7538819003918201601f19168301916001600160401b0383118484101761014957808492604094855283398101031261014557610052602061004b8361015d565b920161015d565b600180556001600160a01b03821615610100576001600160a01b03169081156100bc578061008261009292610171565b5061008c816101e7565b5061027a565b506080526040516116e7908161030e8239608051818181610290015281816107cd0152610c4c0152f35b606460405162461bcd60e51b815260206004820152602060248201527f51756573743a20496e76616c69642063616d706169676e20636f6e74726163746044820152fd5b60405162461bcd60e51b815260206004820152601460248201527f51756573743a20496e76616c69642061646d696e0000000000000000000000006044820152606490fd5b5f80fd5b634e487b7160e01b5f52604160045260245ffd5b51906001600160a01b038216820361014557565b6001600160a01b0381165f9081525f516020611a555f395f51905f52602052604090205460ff166101e2576001600160a01b03165f8181525f516020611a555f395f51905f5260205260408120805460ff191660011790553391905f5160206119f55f395f51905f528180a4600190565b505f90565b6001600160a01b0381165f9081525f516020611a155f395f51905f52602052604090205460ff166101e2576001600160a01b03165f8181525f516020611a155f395f51905f5260205260408120805460ff191660011790553391907fa49807205ce4d355092ef5a8a18f56e8913cf4a201fbe287825b095693c21775905f5160206119f55f395f51905f529080a4600190565b6001600160a01b0381165f9081525f516020611a355f395f51905f52602052604090205460ff166101e2576001600160a01b03165f8181525f516020611a355f395f51905f5260205260408120805460ff191660011790553391907f97667070c54ef182b0f5858b034beac1b6f3089aa2d3188bb1e8929f4fa9b929905f5160206119f55f395f51905f529080a460019056fe6080806040526004361015610012575f80fd5b5f905f3560e01c90816301ffc9a7146111cc575080630ab91a05146111115780630b8dd3cd1461105b578063230f539814610b83578063248a9ca314610b515780632f2ff15d14610b145780632fa55b59146108d657806336568abe146108925780634813e6ce146107fc57806358ae05cd146107b85780635c36901c1461079057806363971781146107735780636ee58b781461072457806375b238fc146106ea578063785137951461063d57806391d14854146105f557806392c45d0b1461052757806393131fef14610441578063a217fddf14610427578063c54db2f3146103db578063d547741f14610397578063f541402314610200578063f5b541a6146101c55763fbb4b41d14610126575f80fd5b346101c25760203660031901126101c257600435610142611502565b808252600460205260ff604083205416156101b05780825260026020527f54d935a6c622009ed251a03e6dce1dbaaec9a78498073aa33cda1c3483c3a6e9604060088185200160ff81541690600260ff198254161790556101a582518092611242565b60026020820152a280f35b635b02176b60e11b8252600452602490fd5b80fd5b50346101c257806003193601126101c25760206040517f97667070c54ef182b0f5858b034beac1b6f3089aa2d3188bb1e8929f4fa9b9298152f35b503461034457602036600319011261034457600435600260015414610388576002600155805f52600460205260ff60405f20541615610376575f818152600360209081526040808320338452825280832084845260029283905292209101805460ff81161561035f5760ff8160081c166103485761ff0019166101001790556001810154600491909101805490917f00000000000000000000000000000000000000000000000000000000000000006001600160a01b031691823b156103445760445f92836040519586948593631de3152d60e11b8552600485015260248401525af1801561033957610324575b5054906040519182527f50fb0b63fc2568ac7e32f0b7724efe68d9682d5196e26bc7d94c00c1c4f3706860203393a36001805580f35b6103319193505f90611288565b5f915f6102ee565b6040513d5f823e3d90fd5b5f80fd5b83631b47907960e01b5f526004523360245260445ffd5b836307ecc9f360e51b5f526004523360245260445ffd5b635b02176b60e11b5f5260045260245ffd5b633ee5aeb560e01b5f5260045ffd5b34610344576040366003190112610344576103d96004356103b661121f565b906103d46103cf825f525f602052600160405f20015490565b611571565b611631565b005b34610344576040366003190112610344576103f461121f565b6004355f52600360205260405f209060018060a01b03165f52602052602060ff600260405f200154166040519015158152f35b34610344575f3660031901126103445760206040515f8152f35b346103445760203660031901126103445760043561045d611502565b805f52600460205260ff60405f2054161561037657805f526002602052600860405f200160ff81541690600382101561051357600182036104da57805460ff19169055604080517f54d935a6c622009ed251a03e6dce1dbaaec9a78498073aa33cda1c3483c3a6e9926104d1908290611242565b5f6020820152a2005b60405162461bcd60e51b8152602060048201526011602482015270145d595cdd0e88139bdd081c185d5cd959607a1b6044820152606490fd5b634e487b7160e01b5f52602160045260245ffd5b346103445760403660031901126103445760043561054361121f565b905f60606040516105538161126c565b8281528260208201528260408201520152805f52600460205260ff60405f20541615610376575f52600360205260405f209060018060a01b03165f52602052608060405f20604051906105a58261126c565b80549182815260026001830154926020830193845201549160ff6060604084019382861615158552019360081c161515835260405193845251602084015251151560408301525115156060820152f35b346103445760403660031901126103445761060e61121f565b6004355f525f60205260405f209060018060a01b03165f52602052602060ff60405f2054166040519015158152f35b3461034457602036600319011261034457600435610659611502565b805f52600460205260ff60405f2054161561037657805f526002602052600860405f200160ff81541690600382101561051357816106d757805460ff19166001179055604080517f54d935a6c622009ed251a03e6dce1dbaaec9a78498073aa33cda1c3483c3a6e9926106cd908290611242565b60016020820152a2005b8263b8988f8b60e01b5f5260045260245ffd5b34610344575f3660031901126103445760206040517fa49807205ce4d355092ef5a8a18f56e8913cf4a201fbe287825b095693c217758152f35b346103445760403660031901126103445761073d61121f565b6004355f52600360205260405f209060018060a01b03165f52602052602060ff600260405f20015460081c166040519015158152f35b34610344575f366003190112610344576020600554604051908152f35b346103445760203660031901126103445760206107ae60043561141c565b6040519015158152f35b34610344575f366003190112610344576040517f00000000000000000000000000000000000000000000000000000000000000006001600160a01b03168152602090f35b346103445760603660031901126103445761081561121f565b335f9081527fee57cd81e84075558e8fcc182a1f4393f91fc97f963a136e66b7f949a62f319f602052604090205460ff161561085b576103d990604435906004356112ee565b63e2517d3f60e01b5f52336004527f97667070c54ef182b0f5858b034beac1b6f3089aa2d3188bb1e8929f4fa9b92960245260445ffd5b34610344576040366003190112610344576108ab61121f565b336001600160a01b038216036108c7576103d990600435611631565b63334bd91960e11b5f5260045ffd5b34610344576020366003190112610344576004355f6101206040516108fa8161124f565b8281528260208201528260408201526060808201528260808201528260a08201528260c08201528260e0820152826101008201520152805f52600460205260ff60405f20541615610376575f52600260205260405f206040519061095d8261124f565b805482526001810154906020830191825260ff6002820154166109846040850191826112aa565b600382019260405193845f82549261099b846112b6565b8084529360018116908115610af25750600114610aae575b506109c092500385611288565b606085019384526004830154926080860193845260058101549360a08701948552600682015460c0880190815260078301549060e0890191825260ff600885015416966101008a019360038910156105135761018099610a5360209a998d996101206009610a999b8f9e8c5201549b019a8b526040519e8f9d8e91818352519101525160408d01525160608c0190611235565b5161014060808b01528051988991826101608d0152018b8b015e5f8a898b0101525160a08901525160c08801525160e08701525161010086015251610120850190611242565b51610140830152601f01601f19168101030190f35b90505f9291925260205f20905f915b818310610ad65750509060206109c092820101886109b3565b6020919350806001915483858b01015201910190918692610abd565b9050602092506109c094915060ff191682840152151560051b820101886109b3565b34610344576040366003190112610344576103d9600435610b3361121f565b90610b4c6103cf825f525f602052600160405f20015490565b6115a9565b34610344576020366003190112610344576020610b7b6004355f525f602052600160405f20015490565b604051908152f35b3461034457610100366003190112610344576004356024359060443560058110908115610344576064359067ffffffffffffffff821161034457366023830112156103445781600401359067ffffffffffffffff82116103445760248301926024833692010111610344576084359360a4359060c43560e43591610c05611502565b885f52600460205260ff60405f2054166110485783156110355782821015610ff05760048511610fd7575060405163170da40760e21b8152600481018a90526020816024817f00000000000000000000000000000000000000000000000000000000000000006001600160a01b03165afa908115610339575f91610f9c575b5015610f895760405192610c978461124f565b88845260208401938a85526040810194610cb187876112aa565b8a601f19601f8a011696604051610ccb60208a0182611288565b8a81528a8c60208301375f60208c8301015260608501908152608085018d815260a086019087825260c087019289845260e08801948b86526101008901975f89526101208a01975f89525f52600260205260405f2099518a555160018a015560028901905160058110156105135760ff8019835416911617905560038801905180519067ffffffffffffffff8211610eb7578190610d6984546112b6565b601f8111610f39575b50602090601f8311600114610ed6575f92610ecb575b50508160011b915f199060031b1c19161790555b5160048701555160058601555160068501555160078401556008830191519160038310156105135760099260ff8019835416911617905551910155885f52600460205260405f20600160ff198254161790556005549768010000000000000000891015610eb7576001890180600555891015610ea3575f60e0888199610e729b8e7f8bebd5f954c2ff171819d700e9482c07bb5890bd9e33696fbb1f445c317c8b3b9e600587527f036b6384b5eca791c62761152d0c79bb0604c104a5fb6f4eb0703f3154bb3db001556040519c8d809c611235565b60c060208c01528160c08c0152838b01378801015260408601526060850152608084015260a08301528101030190a3005b634e487b7160e01b5f52603260045260245ffd5b634e487b7160e01b5f52604160045260245ffd5b015190505f80610d88565b5f8581528281209350601f198516905b818110610f215750908460019594939210610f09575b505050811b019055610d9c565b01515f1960f88460031b161c191690555f8080610efc565b92936020600181928786015181550195019301610ee6565b909150835f5260205f20601f840160051c81019160208510610f7f575b90601f859493920160051c01905b818110610f715750610d72565b5f8155849350600101610f64565b9091508190610f56565b8863ef78d6ef60e01b5f5260045260245ffd5b90506020813d602011610fcf575b81610fb760209383611288565b8101031261034457518015158103610344578a610c84565b3d9150610faa565b637cabe3f960e01b5f528490156105135760045260245ffd5b60405162461bcd60e51b815260206004820152601960248201527f51756573743a20496e76616c69642074696d652072616e6765000000000000006044820152606490fd5b836324b31ff960e21b5f5260045260245ffd5b88634d352bb160e11b5f5260045260245ffd5b34610344575f366003190112610344576040518060206005549283815201809260055f527f036b6384b5eca791c62761152d0c79bb0604c104a5fb6f4eb0703f3154bb3db0905f5b8181106110fb57505050816110b9910382611288565b604051918291602083019060208452518091526040830191905f5b8181106110e2575050500390f35b82518452859450602093840193909201916001016110d4565b82548452602090930192600192830192016110a3565b346103445760403660031901126103445760043561112d61121f565b90805f52600460205260ff60405f2054161561037657805f52600360205260405f2060018060a01b0383165f5260205260405f20815f52600260205260405f209060ff6002820154166111ad57600590549101541161119057906103d99161147d565b6307ecc9f360e51b5f5260045260018060a01b031660245260445ffd5b50506302c538a960e21b5f5260045260018060a01b031660245260445ffd5b34610344576020366003190112610344576004359063ffffffff60e01b821680920361034457602091637965db0b60e01b811490811561120e575b5015158152f35b6301ffc9a760e01b14905083611207565b602435906001600160a01b038216820361034457565b9060058210156105135752565b9060038210156105135752565b610140810190811067ffffffffffffffff821117610eb757604052565b6080810190811067ffffffffffffffff821117610eb757604052565b90601f8019910116810190811067ffffffffffffffff821117610eb757604052565b60058210156105135752565b90600182811c921680156112e4575b60208310146112d057565b634e487b7160e01b5f52602260045260245ffd5b91607f16916112c5565b91825f52600460205260ff60405f2054161561140957825f52600260205260405f20835f52600360205260405f2060018060a01b0384165f5260205260405f209060ff6008820154166003811015610513576113f6576006810154421080156113e8575b6113e15760ff6002830154166113e15781549283018093116113cd57818360059355600142910155015490604051818152826020820152847f885cc67cfc0654626d6fbe79755aeac34679efe66c6e34f521517b4f6e8c9041604060018060a01b03871693a310156113c2575050565b6113cb9161147d565b565b634e487b7160e01b5f52601160045260245ffd5b5050505050565b506007810154421015611352565b8463b8988f8b60e01b5f5260045260245ffd5b82635b02176b60e11b5f5260045260245ffd5b805f52600460205260ff60405f20541615611478575f52600260205260405f2060ff600882015416600381101561051357159081611469575b8161145e575090565b600791500154421090565b60068101544210159150611455565b505f90565b5f8181526003602090815260408083206001600160a01b0386168452825280832084845260029283905292209101805460ff1916600117905560090180545f1981146113cd5760010190556040514281526001600160a01b03909216917f7480b8e3391a2e75b0854ab7c8978a570c806a2799430a06b727049931afd33e90602090a3565b335f9081527f7d7ffb7a348e1c6a02869081a26547b49160dd3df72d1d75a570eb9b698292ec602052604090205460ff161561153a57565b63e2517d3f60e01b5f52336004527fa49807205ce4d355092ef5a8a18f56e8913cf4a201fbe287825b095693c2177560245260445ffd5b5f8181526020818152604080832033845290915290205460ff16156115935750565b63e2517d3f60e01b5f523360045260245260445ffd5b5f818152602081815260408083206001600160a01b038616845290915290205460ff1661162b575f818152602081815260408083206001600160a01b0395909516808452949091528120805460ff19166001179055339291907f2f8788117e7eff1d82e926ec794901d17c78024a50270940304540a733656f0d9080a4600190565b50505f90565b5f818152602081815260408083206001600160a01b038616845290915290205460ff161561162b575f818152602081815260408083206001600160a01b0395909516808452949091528120805460ff19169055339291907ff6391f5c32d9c69d2a47ea670b442974b53935d1edc7fd64eb21e047a839171b9080a460019056fea2646970667358221220f39706153a4ae15b0e204a0e1b1dd0a7d39ff9c7767cdcb86e5eb131b78856de64736f6c634300081e00332f8788117e7eff1d82e926ec794901d17c78024a50270940304540a733656f0d7d7ffb7a348e1c6a02869081a26547b49160dd3df72d1d75a570eb9b698292ecee57cd81e84075558e8fcc182a1f4393f91fc97f963a136e66b7f949a62f319fad3228b676f7d3cd4284a5443f17f1962b36e491b30a40b2405849e597ba5fb5","linkReferences":{}},"methodIdentifiers":{"ADMIN_ROLE()":"75b238fc","DEFAULT_ADMIN_ROLE()":"a217fddf","OPERATOR_ROLE()":"f5b541a6","campaignContract()":"58ae05cd","claimReward(bytes32)":"f5414023","createQuest(bytes32,bytes32,uint8,string,uint256,uint256,uint256,uint256)":"230f5398","endQuest(bytes32)":"fbb4b41d","getAllQuestIds()":"0b8dd3cd","getQuestCount()":"63971781","getQuestInfo(bytes32)":"2fa55b59","getRoleAdmin(bytes32)":"248a9ca3","getUserProgress(bytes32,address)":"92c45d0b","grantRole(bytes32,address)":"2f2ff15d","hasRole(bytes32,address)":"91d14854","isActive(bytes32)":"5c36901c","isCompleted(bytes32,address)":"c54db2f3","isRewardClaimed(bytes32,address)":"6ee58b78","pauseQuest(bytes32)":"78513795","renounceRole(bytes32,address)":"36568abe","resumeQuest(bytes32)":"93131fef","revokeRole(bytes32,address)":"d547741f","supportsInterface(bytes4)":"01ffc9a7","updateProgress(bytes32,address,uint256)":"4813e6ce","verifyCompletion(bytes32,address)":"0ab91a05"},"id":75}